{
	"data": {
		"bytecode": {
			"linkReferences": {},
			"object": "6101206040523073ffffffffffffffffffffffffffffffffffffffff166101009073ffffffffffffffffffffffffffffffffffffffff16815250348015610044575f80fd5b5060405161572938038061572983398181016040528101906100669190610383565b8083835f73ffffffffffffffffffffffffffffffffffffffff168173ffffffffffffffffffffffffffffffffffffffff16036100ce576040517f532538cf00000000000000000000000000000000000000000000000000000000815260040160405180910390fd5b5f73ffffffffffffffffffffffffffffffffffffffff168273ffffffffffffffffffffffffffffffffffffffff1603610133576040517f2bdbe33b00000000000000000000000000000000000000000000000000000000815260040160405180910390fd5b8073ffffffffffffffffffffffffffffffffffffffff1660808173ffffffffffffffffffffffffffffffffffffffff16815250505f801b60a081815250508173ffffffffffffffffffffffffffffffffffffffff1660c08173ffffffffffffffffffffffffffffffffffffffff168152505050508073ffffffffffffffffffffffffffffffffffffffff1660e08173ffffffffffffffffffffffffffffffffffffffff16815250506101e961020060201b60201c565b506101f861020060201b60201c565b50505061040e565b5f61020f6102fe60201b60201c565b9050805f0160089054906101000a900460ff1615610259576040517ff92ee8a900000000000000000000000000000000000000000000000000000000815260040160405180910390fd5b67ffffffffffffffff8016815f015f9054906101000a900467ffffffffffffffff1667ffffffffffffffff16146102fb5767ffffffffffffffff815f015f6101000a81548167ffffffffffffffff021916908367ffffffffffffffff1602179055507fc7f505b2f371ae2175ee4913f4499e1f2633a7b5936321eed1cdaeb6115181d267ffffffffffffffff6040516102f291906103f5565b60405180910390a15b50565b5f7ff0c57e16840df040f15088dc2f81fe391c3923bec73e23a9662efc9c229c6a00905090565b5f80fd5b5f73ffffffffffffffffffffffffffffffffffffffff82169050919050565b5f61035282610329565b9050919050565b61036281610348565b811461036c575f80fd5b50565b5f8151905061037d81610359565b92915050565b5f805f6060848603121561039a57610399610325565b5b5f6103a78682870161036f565b93505060206103b88682870161036f565b92505060406103c98682870161036f565b9150509250925092565b5f67ffffffffffffffff82169050919050565b6103ef816103d3565b82525050565b5f6020820190506104085f8301846103e6565b92915050565b60805160a05160c05160e0516101005161527c6104ad5f395f81816120fb0152818161215001526123a001525f8181610a2b01528181610c5501528181610f6101528181610f8601526112e001525f81816108490152818161293e0152612ee601525f8181610a070152818161299b0152612f4301525f8181610f2f015281816114dc0152818161297a01528181612f220152612fca015261527c5ff3fe608060405260043610610203575f3560e01c80637d294b4011610117578063be68d9d71161009f578063c4d66de81161006e578063c4d66de814610741578063ca709a2514610769578063d26bb83f14610793578063fa2372f6146107cf578063fca247ac1461080b57610203565b8063be68d9d714610675578063bf5c9822146106b1578063bf7e214f146106db578063c3c5a5471461070557610203565b80638fb36037116100e65780638fb360371461059357806395a3dfb2146105bd578063a32a054e146105e7578063a72a6fa914610623578063ad3cb1cc1461064b57610203565b80637d294b40146104dd57806381fdafa0146105195780638456cb591461054157806387020f951461055757610203565b80634094f4ed1161019a5780635796ffbc116101695780635796ffbc146103fb5780635c975abb146104255780635ee5e32a1461044f57806363ace9ad146104795780637a9e5e4b146104b557610203565b80634094f4ed146103515780634f1ef2861461037957806351eee2761461039557806352d1902d146103d157610203565b806320ef8372116101d657806320ef8372146102ad57806330d63280146102d55780633b19e84a146103115780633f4ba83a1461033b57610203565b80630c3c72641461020757806318160ddd14610231578063198fdd981461025b5780631a8bb07b14610283575b5f80fd5b348015610212575f80fd5b5061021b610847565b6040516102289190613fba565b60405180910390f35b34801561023c575f80fd5b5061024561086b565b6040516102529190613feb565b60405180910390f35b348015610266575f80fd5b50610281600480360381019061027c919061403f565b61087c565b005b34801561028e575f80fd5b50610297610a05565b6040516102a49190614082565b60405180910390f35b3480156102b8575f80fd5b506102d360048036038101906102ce91906140d0565b610a29565b005b3480156102e0575f80fd5b506102fb60048036038101906102f6919061403f565b610b92565b6040516103089190613fba565b60405180910390f35b34801561031c575f80fd5b50610325610c00565b6040516103329190613fba565b60405180910390f35b348015610346575f80fd5b5061034f610c31565b005b34801561035c575f80fd5b506103776004803603810190610372919061416f565b610c53565b005b610393600480360381019061038e9190614304565b610e76565b005b3480156103a0575f80fd5b506103bb60048036038101906103b6919061403f565b610e95565b6040516103c8919061436d565b60405180910390f35b3480156103dc575f80fd5b506103e5610efc565b6040516103f29190614082565b60405180910390f35b348015610406575f80fd5b5061040f610f2d565b60405161041c9190613fba565b60405180910390f35b348015610430575f80fd5b50610439610f51565b604051610446919061436d565b60405180910390f35b34801561045a575f80fd5b50610463610f5f565b60405161047091906143e1565b60405180910390f35b348015610484575f80fd5b5061049f600480360381019061049a9190614424565b610f83565b6040516104ac9190613fba565b60405180910390f35b3480156104c0575f80fd5b506104db60048036038101906104d6919061403f565b611194565b005b3480156104e8575f80fd5b5061050360048036038101906104fe9190614488565b61127e565b604051610510919061436d565b60405180910390f35b348015610524575f80fd5b5061053f600480360381019061053a919061416f565b6112de565b005b34801561054c575f80fd5b50610555611469565b005b348015610562575f80fd5b5061057d600480360381019061057891906144c6565b61148b565b60405161058a9190613fba565b60405180910390f35b34801561059e575f80fd5b506105a76114a0565b6040516105b49190614550565b60405180910390f35b3480156105c8575f80fd5b506105d16114d9565b6040516105de9190613fba565b60405180910390f35b3480156105f2575f80fd5b5061060d6004803603810190610608919061403f565b611500565b60405161061a9190613feb565b60405180910390f35b34801561062e575f80fd5b50610649600480360381019061064491906145aa565b611555565b005b348015610656575f80fd5b5061065f61178d565b60405161066c919061465a565b60405180910390f35b348015610680575f80fd5b5061069b6004803603810190610696919061467a565b6117c6565b6040516106a89190614781565b60405180910390f35b3480156106bc575f80fd5b506106c56118f6565b6040516106d291906147b0565b60405180910390f35b3480156106e6575f80fd5b506106ef611920565b6040516106fc9190613fba565b60405180910390f35b348015610710575f80fd5b5061072b6004803603810190610726919061403f565b611955565b604051610738919061436d565b60405180910390f35b34801561074c575f80fd5b506107676004803603810190610762919061403f565b611966565b005b348015610774575f80fd5b5061077d611b54565b60405161078a9190613fba565b60405180910390f35b34801561079e575f80fd5b506107b960048036038101906107b491906144c6565b611b85565b6040516107c69190613fba565b60405180910390f35b3480156107da575f80fd5b506107f560048036038101906107f0919061403f565b611b9a565b604051610802919061436d565b60405180910390f35b348015610816575f80fd5b50610831600480360381019061082c91906144c6565b611bf5565b60405161083e9190613fba565b60405180910390f35b7f000000000000000000000000000000000000000000000000000000000000000081565b5f610874611c13565b5f0154905090565b5f610885611c3a565b90505f815f0160089054906101000a900460ff161590505f825f015f9054906101000a900467ffffffffffffffff1690505f808267ffffffffffffffff161480156108cd5750825b90505f60018367ffffffffffffffff1614801561090057505f3073ffffffffffffffffffffffffffffffffffffffff163b145b90508115801561090e575080155b15610945576040517ff92ee8a900000000000000000000000000000000000000000000000000000000815260040160405180910390fd5b6001855f015f6101000a81548167ffffffffffffffff021916908367ffffffffffffffff1602179055508315610992576001855f0160086101000a81548160ff0219169083151502179055505b61099b86611c61565b6109a3611c75565b83156109fd575f855f0160086101000a81548160ff0219169083151502179055507fc7f505b2f371ae2175ee4913f4499e1f2633a7b5936321eed1cdaeb6115181d260016040516109f49190614815565b60405180910390a15b505050505050565b7f000000000000000000000000000000000000000000000000000000000000000081565b7f000000000000000000000000000000000000000000000000000000000000000073ffffffffffffffffffffffffffffffffffffffff163373ffffffffffffffffffffffffffffffffffffffff1614610ab957336040517f658938d5000000000000000000000000000000000000000000000000000000008152600401610ab09190613fba565b60405180910390fd5b610ac1611c87565b5f73ffffffffffffffffffffffffffffffffffffffff168273ffffffffffffffffffffffffffffffffffffffff1603610b3157816040517f865c825b000000000000000000000000000000000000000000000000000000008152600401610b289190613fba565b60405180910390fd5b80610b3a611cc8565b6002015f8473ffffffffffffffffffffffffffffffffffffffff1673ffffffffffffffffffffffffffffffffffffffff1681526020019081526020015f205f6101000a81548160ff0219169083151502179055505050565b5f610b9b611cc8565b6001015f8373ffffffffffffffffffffffffffffffffffffffff1673ffffffffffffffffffffffffffffffffffffffff1681526020019081526020015f205f9054906101000a900473ffffffffffffffffffffffffffffffffffffffff169050919050565b5f610c09611c13565b6001015f9054906101000a900473ffffffffffffffffffffffffffffffffffffffff16905090565b610c49610c3c611cef565b610c44611cf6565b611d02565b610c51611e49565b565b7f000000000000000000000000000000000000000000000000000000000000000073ffffffffffffffffffffffffffffffffffffffff163373ffffffffffffffffffffffffffffffffffffffff1614610ce357336040517f658938d5000000000000000000000000000000000000000000000000000000008152600401610cda9190613fba565b60405180910390fd5b610ceb611c87565b610cf483611eb7565b610d3557826040517fa2a8cf1b000000000000000000000000000000000000000000000000000000008152600401610d2c9190613fba565b60405180910390fd5b5f610d3e611cc8565b90505f815f015f8673ffffffffffffffffffffffffffffffffffffffff1673ffffffffffffffffffffffffffffffffffffffff1681526020019081526020015f2090505f5b84849050811015610e6e57610dbe858583818110610da457610da361482e565b5b9050602002016020810190610db9919061403f565b611f1e565b610e2657848482818110610dd557610dd461482e565b5b9050602002016020810190610dea919061403f565b6040517f6951fb00000000000000000000000000000000000000000000000000000000008152600401610e1d9190613fba565b60405180910390fd5b610e60858583818110610e3c57610e3b61482e565b5b9050602002016020810190610e51919061403f565b836120cc90919063ffffffff16565b508080600101915050610d83565b505050505050565b610e7e6120f9565b610e87826121df565b610e9182826121fa565b5050565b5f610e9f82611f1e565b610eab575f9050610ef7565b610ef47f47524f55505f49504100000000000000000000000000000000000000000000008373ffffffffffffffffffffffffffffffffffffffff1661231890919063ffffffff16565b90505b919050565b5f610f0561239e565b7f360894a13ba1a3210667c828492db98dca3e2076cc3735a920a3ca505d382bbc5f1b905090565b7f000000000000000000000000000000000000000000000000000000000000000081565b5f610f5a612425565b905090565b7f000000000000000000000000000000000000000000000000000000000000000081565b5f7f000000000000000000000000000000000000000000000000000000000000000073ffffffffffffffffffffffffffffffffffffffff163373ffffffffffffffffffffffffffffffffffffffff161461101457336040517f658938d500000000000000000000000000000000000000000000000000000000815260040161100b9190613fba565b60405180910390fd5b61101c611c87565b61102846868685612447565b90506110767f47524f55505f495041000000000000000000000000000000000000000000000060018373ffffffffffffffffffffffffffffffffffffffff1661276d9092919063ffffffff16565b5f61107f611cc8565b9050806002015f8573ffffffffffffffffffffffffffffffffffffffff1673ffffffffffffffffffffffffffffffffffffffff1681526020019081526020015f205f9054906101000a900460ff1661110e57836040517f1b5345330000000000000000000000000000000000000000000000000000000081526004016111059190613fba565b60405180910390fd5b83816001015f8473ffffffffffffffffffffffffffffffffffffffff1673ffffffffffffffffffffffffffffffffffffffff1681526020019081526020015f205f6101000a81548173ffffffffffffffffffffffffffffffffffffffff021916908373ffffffffffffffffffffffffffffffffffffffff16021790555050949350505050565b5f61119d611cef565b90506111a7611920565b73ffffffffffffffffffffffffffffffffffffffff168173ffffffffffffffffffffffffffffffffffffffff161461121657806040517f068ca9d800000000000000000000000000000000000000000000000000000000815260040161120d9190613fba565b60405180910390fd5b5f8273ffffffffffffffffffffffffffffffffffffffff163b0361127157816040517fc2f31e5e0000000000000000000000000000000000000000000000000000000081526004016112689190613fba565b60405180910390fd5b61127a826127eb565b5050565b5f6112d68261128b611cc8565b5f015f8673ffffffffffffffffffffffffffffffffffffffff1673ffffffffffffffffffffffffffffffffffffffff1681526020019081526020015f2061287290919063ffffffff16565b905092915050565b7f000000000000000000000000000000000000000000000000000000000000000073ffffffffffffffffffffffffffffffffffffffff163373ffffffffffffffffffffffffffffffffffffffff161461136e57336040517f658938d50000000000000000000000000000000000000000000000000000000081526004016113659190613fba565b60405180910390fd5b611376611c87565b61137f83611eb7565b6113c057826040517fa2a8cf1b0000000000000000000000000000000000000000000000000000000081526004016113b79190613fba565b60405180910390fd5b5f6113c9611cc8565b90505f815f015f8673ffffffffffffffffffffffffffffffffffffffff1673ffffffffffffffffffffffffffffffffffffffff1681526020019081526020015f2090505f5b848490508110156114615761145385858381811061142f5761142e61482e565b5b9050602002016020810190611444919061403f565b8361289f90919063ffffffff16565b50808060010191505061140e565b505050505050565b611481611474611cef565b61147c611cf6565b611d02565b6114896128cc565b565b5f61149784848461293b565b90509392505050565b5f806114aa612a25565b9050805f0160149054906101000a900460ff166114ca575f60e01b6114d3565b638fb3603760e01b5b91505090565b5f7f0000000000000000000000000000000000000000000000000000000000000000905090565b5f61154e61150c611cc8565b5f015f8473ffffffffffffffffffffffffffffffffffffffff1673ffffffffffffffffffffffffffffffffffffffff1681526020019081526020015f20612a4c565b9050919050565b61156d611560611cef565b611568611cf6565b611d02565b5f816bffffffffffffffffffffffff161115611660575f73ffffffffffffffffffffffffffffffffffffffff168373ffffffffffffffffffffffffffffffffffffffff16036115f1576040517f6cb3c17a0000000000000000000000000000000000000000000000000000000081526004016115e8906148a5565b60405180910390fd5b5f73ffffffffffffffffffffffffffffffffffffffff168273ffffffffffffffffffffffffffffffffffffffff160361165f576040517f6cb3c17a0000000000000000000000000000000000000000000000000000000081526004016116569061490d565b60405180910390fd5b5b5f611669611c13565b905082816002015f6101000a81548173ffffffffffffffffffffffffffffffffffffffff021916908373ffffffffffffffffffffffffffffffffffffffff160217905550818160020160146101000a8154816bffffffffffffffffffffffff02191690836bffffffffffffffffffffffff16021790555083816001015f6101000a81548173ffffffffffffffffffffffffffffffffffffffff021916908373ffffffffffffffffffffffffffffffffffffffff1602179055508273ffffffffffffffffffffffffffffffffffffffff168473ffffffffffffffffffffffffffffffffffffffff167f959c9a8d4d770a82475a59e1e7380ca97ff98d35574e5959f98e3eafb28ee9b28460405161177f91906147b0565b60405180910390a350505050565b6040518060400160405280600581526020017f352e302e3000000000000000000000000000000000000000000000000000000081525081565b60605f6117d1611cc8565b5f015f8673ffffffffffffffffffffffffffffffffffffffff1673ffffffffffffffffffffffffffffffffffffffff1681526020019081526020015f2090505f61181a82612a4c565b905080851061182a5750506118ef565b5f8185876118389190614958565b116118435784611866565b8185876118509190614958565b61185a919061498b565b85611865919061498b565b5b90505f5b818110156118ea5761189081886118819190614958565b85612a5f90919063ffffffff16565b8582815181106118a3576118a261482e565b5b602002602001019073ffffffffffffffffffffffffffffffffffffffff16908173ffffffffffffffffffffffffffffffffffffffff1681525050808060010191505061186a565b505050505b9392505050565b5f6118ff611c13565b60020160149054906101000a90046bffffffffffffffffffffffff16905090565b5f8061192a612a25565b9050805f015f9054906101000a900473ffffffffffffffffffffffffffffffffffffffff1691505090565b5f61195f82611f1e565b9050919050565b5f61196f611c3a565b90505f815f0160089054906101000a900460ff161590505f825f015f9054906101000a900467ffffffffffffffff1690505f808267ffffffffffffffff161480156119b75750825b90505f60018367ffffffffffffffff161480156119ea57505f3073ffffffffffffffffffffffffffffffffffffffff163b145b9050811580156119f8575080155b15611a2f576040517ff92ee8a900000000000000000000000000000000000000000000000000000000815260040160405180910390fd5b6001855f015f6101000a81548167ffffffffffffffff021916908367ffffffffffffffff1602179055508315611a7c576001855f0160086101000a81548160ff0219169083151502179055505b5f73ffffffffffffffffffffffffffffffffffffffff168673ffffffffffffffffffffffffffffffffffffffff1603611ae1576040517fb40f363000000000000000000000000000000000000000000000000000000000815260040160405180910390fd5b611aea8661087c565b611af2612a76565b8315611b4c575f855f0160086101000a81548160ff0219169083151502179055507fc7f505b2f371ae2175ee4913f4499e1f2633a7b5936321eed1cdaeb6115181d26001604051611b439190614815565b60405180910390a15b505050505050565b5f611b5d611c13565b6002015f9054906101000a900473ffffffffffffffffffffffffffffffffffffffff16905090565b5f611b9184848461148b565b90509392505050565b5f611ba3611cc8565b6002015f8373ffffffffffffffffffffffffffffffffffffffff1673ffffffffffffffffffffffffffffffffffffffff1681526020019081526020015f205f9054906101000a900460ff169050919050565b5f611bfe611c87565b611c0a84848433612447565b90509392505050565b5f7f987c61809af5a42943abd137c7acff8426aab6f7a1f5c967a03d1d718ba5cf00905090565b5f7ff0c57e16840df040f15088dc2f81fe391c3923bec73e23a9662efc9c229c6a00905090565b611c69612a80565b611c7281612ac0565b50565b611c7d612a80565b611c85612ad4565b565b611c8f610f51565b15611cc6576040517fd93c066500000000000000000000000000000000000000000000000000000000815260040160405180910390fd5b565b5f7f34c89140582ad641fa679f955c67d1a82028bef0953ade7c28b8194cf080d600905090565b5f33905090565b365f8036915091509091565b5f611d0b612a25565b90505f80611d3f611d1a611920565b873088885f90600492611d2f939291906149c6565b90611d3a9190614a16565b612b04565b9150915081611e41575f8163ffffffff161115611e03576001835f0160146101000a81548160ff021916908315150217905550611d7a611920565b73ffffffffffffffffffffffffffffffffffffffff166394c7d7ee8787876040518463ffffffff1660e01b8152600401611db693929190614ab0565b5f604051808303815f87803b158015611dcd575f80fd5b505af1158015611ddf573d5f803e3d5ffd5b505050505f835f0160146101000a81548160ff021916908315150217905550611e40565b856040517f068ca9d8000000000000000000000000000000000000000000000000000000008152600401611e379190613fba565b60405180910390fd5b5b505050505050565b611e51612c25565b5f611e5a612c65565b90505f815f015f6101000a81548160ff0219169083151502179055507f5db9ee0a495bf2e6ff9c91a7834c1ba4fdd244a5e8aa4e537bd38aeae4b073aa611e9f611cef565b604051611eac9190613fba565b60405180910390a150565b5f611ec182611f1e565b611ecd575f9050611f19565b611f167f47524f55505f49504100000000000000000000000000000000000000000000008373ffffffffffffffffffffffffffffffffffffffff1661231890919063ffffffff16565b90505b919050565b5f8073ffffffffffffffffffffffffffffffffffffffff168273ffffffffffffffffffffffffffffffffffffffff1603611f5a575f90506120c7565b5f8273ffffffffffffffffffffffffffffffffffffffff163b03611f80575f90506120c7565b611faa827febe268b300000000000000000000000000000000000000000000000000000000612c8c565b611fb6575f90506120c7565b5f805f8473ffffffffffffffffffffffffffffffffffffffff1663fc0c546a6040518163ffffffff1660e01b8152600401606060405180830381865afa158015612002573d5f803e3d5ffd5b505050506040513d601f19601f820116820180604052508101906120269190614b08565b92509250925061203783838361148b565b73ffffffffffffffffffffffffffffffffffffffff168573ffffffffffffffffffffffffffffffffffffffff1614612074575f93505050506120c7565b5f6120be7f4e414d45000000000000000000000000000000000000000000000000000000008773ffffffffffffffffffffffffffffffffffffffff16612cb090919063ffffffff16565b51141593505050505b919050565b5f6120f1835f018373ffffffffffffffffffffffffffffffffffffffff165f1b612d35565b905092915050565b7f000000000000000000000000000000000000000000000000000000000000000073ffffffffffffffffffffffffffffffffffffffff163073ffffffffffffffffffffffffffffffffffffffff1614806121a657507f000000000000000000000000000000000000000000000000000000000000000073ffffffffffffffffffffffffffffffffffffffff1661218d612d9c565b73ffffffffffffffffffffffffffffffffffffffff1614155b156121dd576040517fe07c8dba00000000000000000000000000000000000000000000000000000000815260040160405180910390fd5b565b6121f76121ea611cef565b6121f2611cf6565b611d02565b50565b8173ffffffffffffffffffffffffffffffffffffffff166352d1902d6040518163ffffffff1660e01b8152600401602060405180830381865afa92505050801561226257506040513d601f19601f8201168201806040525081019061225f9190614b82565b60015b6122a357816040517f4c9c8ce300000000000000000000000000000000000000000000000000000000815260040161229a9190613fba565b60405180910390fd5b7f360894a13ba1a3210667c828492db98dca3e2076cc3735a920a3ca505d382bbc5f1b811461230957806040517faa1d49a40000000000000000000000000000000000000000000000000000000081526004016123009190614082565b60405180910390fd5b6123138383612def565b505050565b5f805f1b8373ffffffffffffffffffffffffffffffffffffffff1663a6ed563e846040518263ffffffff1660e01b81526004016123559190614082565b602060405180830381865afa158015612370573d5f803e3d5ffd5b505050506040513d601f19601f820116820180604052508101906123949190614b82565b1415905092915050565b7f000000000000000000000000000000000000000000000000000000000000000073ffffffffffffffffffffffffffffffffffffffff163073ffffffffffffffffffffffffffffffffffffffff1614612423576040517fe07c8dba00000000000000000000000000000000000000000000000000000000815260040160405180910390fd5b565b5f8061242f612c65565b9050805f015f9054906101000a900460ff1691505090565b5f80612451611c13565b90505f8160020160149054906101000a90046bffffffffffffffffffffffff1690505f816bffffffffffffffffffffffff161115612591575f826002015f9054906101000a900473ffffffffffffffffffffffffffffffffffffffff1690505f836001015f9054906101000a900473ffffffffffffffffffffffffffffffffffffffff1690506125128682856bffffffffffffffffffffffff168573ffffffffffffffffffffffffffffffffffffffff16612e61909392919063ffffffff16565b8173ffffffffffffffffffffffffffffffffffffffff168173ffffffffffffffffffffffffffffffffffffffff168773ffffffffffffffffffffffffffffffffffffffff167f27855217c202a0a7fe50b01fb6826cb2f4b667828a8951941d4934e7146e08d08660405161258691906147b0565b60405180910390a450505b61259c878787612ee3565b92505f8390505f6125ec7f4e414d45000000000000000000000000000000000000000000000000000000008373ffffffffffffffffffffffffffffffffffffffff16612cb090919063ffffffff16565b51146125fa57505050612765565b5f806126078a8a8a613056565b915091505f42905061265a7f4e414d4500000000000000000000000000000000000000000000000000000000848673ffffffffffffffffffffffffffffffffffffffff166133f29092919063ffffffff16565b6126a57f5552490000000000000000000000000000000000000000000000000000000000838673ffffffffffffffffffffffffffffffffffffffff166133f29092919063ffffffff16565b6126f07f524547495354524154494f4e5f44415445000000000000000000000000000000828673ffffffffffffffffffffffffffffffffffffffff1661345f9092919063ffffffff16565b855f015f81548092919061270390614bad565b9190505550888a73ffffffffffffffffffffffffffffffffffffffff168c7f02ad3a2e0356b65fdfe4a73c825b78071ae469db35162978518b8c258abb37678a8787876040516127569493929190614bf4565b60405180910390a45050505050505b949350505050565b8273ffffffffffffffffffffffffffffffffffffffff16634e91db088383612797575f801b61279c565b60015f1b5b6040518363ffffffff1660e01b81526004016127b9929190614c45565b5f604051808303815f87803b1580156127d0575f80fd5b505af11580156127e2573d5f803e3d5ffd5b50505050505050565b5f6127f4612a25565b905081815f015f6101000a81548173ffffffffffffffffffffffffffffffffffffffff021916908373ffffffffffffffffffffffffffffffffffffffff1602179055507f2f658b440c35314f52658ea8a740e05b284cdc84dc9ae01e891f21b8933e7cad826040516128669190613fba565b60405180910390a15050565b5f612897835f018373ffffffffffffffffffffffffffffffffffffffff165f1b6134ce565b905092915050565b5f6128c4835f018373ffffffffffffffffffffffffffffffffffffffff165f1b6134ee565b905092915050565b6128d4611c87565b5f6128dd612c65565b90506001815f015f6101000a81548160ff0219169083151502179055507f62e78cea01bee320cd4e420270b5ea74000d11b0c9f74754ebdbfc544b05a258612923611cef565b6040516129309190613fba565b60405180910390a150565b5f7f000000000000000000000000000000000000000000000000000000000000000073ffffffffffffffffffffffffffffffffffffffff1663246a00217f00000000000000000000000000000000000000000000000000000000000000007f00000000000000000000000000000000000000000000000000000000000000008787876040518663ffffffff1660e01b81526004016129dd959493929190614c6c565b602060405180830381865afa1580156129f8573d5f803e3d5ffd5b505050506040513d601f19601f82011682018060405250810190612a1c9190614cbd565b90509392505050565b5f7ff3177357ab46d8af007ab3fdb9af81da189e1068fefdc0073dca88a2cab40a00905090565b5f612a58825f016135ea565b9050919050565b5f612a6c835f01836135f9565b5f1c905092915050565b612a7e612a80565b565b612a88613620565b612abe576040517fd7e6bcf800000000000000000000000000000000000000000000000000000000815260040160405180910390fd5b565b612ac8612a80565b612ad1816127eb565b50565b612adc612a80565b5f612ae5612c65565b90505f815f015f6101000a81548160ff02191690831515021790555050565b5f805f808773ffffffffffffffffffffffffffffffffffffffff16878787604051602401612b3493929190614ce8565b60405160208183030381529060405263b700961360e01b6020820180517bffffffffffffffffffffffffffffffffffffffffffffffffffffffff8381831617835250505050604051612b869190614d61565b5f60405180830381855afa9150503d805f8114612bbe576040519150601f19603f3d011682016040523d82523d5f602084013e612bc3565b606091505b50915091508115612c1a576040815110612bf85780806020019051810190612beb9190614dc4565b8094508195505050612c19565b6020815110612c185780806020019051810190612c159190614e02565b93505b5b5b505094509492505050565b612c2d610f51565b612c63576040517f8dfc202b00000000000000000000000000000000000000000000000000000000815260040160405180910390fd5b565b5f7fcd5ed15c6e187e77e9aee88184c21f4f2182ab5827cb3b7e07fbedcd63f03300905090565b5f612c968361363e565b8015612ca85750612ca7838361368a565b5b905092915050565b60608273ffffffffffffffffffffffffffffffffffffffff1663c031a180836040518263ffffffff1660e01b8152600401612ceb9190614082565b5f60405180830381865afa158015612d05573d5f803e3d5ffd5b505050506040513d5f823e3d601f19601f82011682018060405250810190612d2d9190614e9b565b905092915050565b5f612d4083836134ce565b612d9257825f0182908060018154018082558091505060019003905f5260205f20015f9091909190915055825f0180549050836001015f8481526020019081526020015f208190555060019050612d96565b5f90505b92915050565b5f612dc87f360894a13ba1a3210667c828492db98dca3e2076cc3735a920a3ca505d382bbc5f1b613723565b5f015f9054906101000a900473ffffffffffffffffffffffffffffffffffffffff16905090565b612df88261372c565b8173ffffffffffffffffffffffffffffffffffffffff167fbc7cd75a20ee27fd9adebab32041f755214dbc6bffa90cc0225b39da2e5c2d3b60405160405180910390a25f81511115612e5457612e4e82826137f5565b50612e5d565b612e5c613875565b5b5050565b612edd848573ffffffffffffffffffffffffffffffffffffffff166323b872dd868686604051602401612e9693929190614ee2565b604051602081830303815290604052915060e01b6020820180517bffffffffffffffffffffffffffffffffffffffffffffffffffffffff83818316178352505050506138b1565b50505050565b5f7f000000000000000000000000000000000000000000000000000000000000000073ffffffffffffffffffffffffffffffffffffffff16638a54c52f7f00000000000000000000000000000000000000000000000000000000000000007f00000000000000000000000000000000000000000000000000000000000000008787876040518663ffffffff1660e01b8152600401612f85959493929190614c6c565b6020604051808303815f875af1158015612fa1573d5f803e3d5ffd5b505050506040513d601f19601f82011682018060405250810190612fc59190614cbd565b9050837f000000000000000000000000000000000000000000000000000000000000000073ffffffffffffffffffffffffffffffffffffffff168273ffffffffffffffffffffffffffffffffffffffff167f5be70b68c8361762980ec7d425d79fd33f6d49cac8a498e6ddf514f995b987f78686604051613047929190614f17565b60405180910390a49392505050565b6060804685146130ca5761306985613946565b6130888573ffffffffffffffffffffffffffffffffffffffff16613a10565b61309185613946565b6040516020016130a393929190614fc4565b604051602081830303815290604052915060405180602001604052805f81525090506133ea565b6131137f80ac58cd000000000000000000000000000000000000000000000000000000008573ffffffffffffffffffffffffffffffffffffffff16612c8c90919063ffffffff16565b61315457836040517f1033cd8800000000000000000000000000000000000000000000000000000000815260040161314b9190613fba565b60405180910390fd5b5f73ffffffffffffffffffffffffffffffffffffffff168473ffffffffffffffffffffffffffffffffffffffff16636352211e856040518263ffffffff1660e01b81526004016131a49190613feb565b602060405180830381865afa1580156131bf573d5f803e3d5ffd5b505050506040513d601f19601f820116820180604052508101906131e39190614cbd565b73ffffffffffffffffffffffffffffffffffffffff160361323d5783836040517f4bc7306e000000000000000000000000000000000000000000000000000000008152600401613234929190614f17565b60405180910390fd5b6132867f5b5e139f000000000000000000000000000000000000000000000000000000008573ffffffffffffffffffffffffffffffffffffffff16612c8c90919063ffffffff16565b6132c757836040517f3aad84720000000000000000000000000000000000000000000000000000000081526004016132be9190613fba565b60405180910390fd5b6132d046613946565b8473ffffffffffffffffffffffffffffffffffffffff166306fdde036040518163ffffffff1660e01b81526004015f60405180830381865afa158015613318573d5f803e3d5ffd5b505050506040513d5f823e3d601f19601f8201168201806040525081019061334091906150b0565b61334985613946565b60405160200161335b93929190614fc4565b60405160208183030381529060405291508373ffffffffffffffffffffffffffffffffffffffff1663c87b56dd846040518263ffffffff1660e01b81526004016133a59190613feb565b5f60405180830381865afa1580156133bf573d5f803e3d5ffd5b505050506040513d5f823e3d601f19601f820116820180604052508101906133e791906150b0565b90505b935093915050565b8273ffffffffffffffffffffffffffffffffffffffff16632e28d08483836040518363ffffffff1660e01b815260040161342d92919061512f565b5f604051808303815f87803b158015613444575f80fd5b505af1158015613456573d5f803e3d5ffd5b50505050505050565b8273ffffffffffffffffffffffffffffffffffffffff16634e91db0883835f1b6040518363ffffffff1660e01b815260040161349c929190614c45565b5f604051808303815f87803b1580156134b3575f80fd5b505af11580156134c5573d5f803e3d5ffd5b50505050505050565b5f80836001015f8481526020019081526020015f20541415905092915050565b5f80836001015f8481526020019081526020015f205490505f81146135df575f60018261351b919061498b565b90505f6001865f0180549050613531919061498b565b9050808214613597575f865f0182815481106135505761354f61482e565b5b905f5260205f200154905080875f0184815481106135715761357061482e565b5b905f5260205f20018190555083876001015f8381526020019081526020015f2081905550505b855f018054806135aa576135a961515d565b5b600190038181905f5260205f20015f90559055856001015f8681526020019081526020015f205f9055600193505050506135e4565b5f9150505b92915050565b5f815f01805490509050919050565b5f825f01828154811061360f5761360e61482e565b5b905f5260205f200154905092915050565b5f613629611c3a565b5f0160089054906101000a900460ff16905090565b5f613669827f01ffc9a70000000000000000000000000000000000000000000000000000000061368a565b801561368357506136818263ffffffff60e01b61368a565b155b9050919050565b5f808260405160240161369d9190614550565b6040516020818303038152906040526301ffc9a760e01b6020820180517bffffffffffffffffffffffffffffffffffffffffffffffffffffffff838183161783525050505090505f805f60205f8551602087018a617530fa92503d91505f51905082801561370c575060208210155b801561371757505f81115b94505050505092915050565b5f819050919050565b5f8173ffffffffffffffffffffffffffffffffffffffff163b0361378757806040517f4c9c8ce300000000000000000000000000000000000000000000000000000000815260040161377e9190613fba565b60405180910390fd5b806137b37f360894a13ba1a3210667c828492db98dca3e2076cc3735a920a3ca505d382bbc5f1b613723565b5f015f6101000a81548173ffffffffffffffffffffffffffffffffffffffff021916908373ffffffffffffffffffffffffffffffffffffffff16021790555050565b60605f808473ffffffffffffffffffffffffffffffffffffffff168460405161381e9190614d61565b5f60405180830381855af49150503d805f8114613856576040519150601f19603f3d011682016040523d82523d5f602084013e61385b565b606091505b509150915061386b858383613a3d565b9250505092915050565b5f3411156138af576040517fb398979f00000000000000000000000000000000000000000000000000000000815260040160405180910390fd5b565b5f6138db828473ffffffffffffffffffffffffffffffffffffffff16613aca90919063ffffffff16565b90505f8151141580156138ff5750808060200190518101906138fd9190614e02565b155b1561394157826040517f5274afe70000000000000000000000000000000000000000000000000000000081526004016139389190613fba565b60405180910390fd5b505050565b60605f600161395484613adf565b0190505f8167ffffffffffffffff811115613972576139716141e0565b5b6040519080825280601f01601f1916602001820160405280156139a45781602001600182028036833780820191505090505b5090505f82602001820190505b600115613a05578080600190039150507f3031323334353637383961626364656600000000000000000000000000000000600a86061a8153600a85816139fa576139f961518a565b5b0494505f85036139b1575b819350505050919050565b6060613a368273ffffffffffffffffffffffffffffffffffffffff16601460ff16613c30565b9050919050565b606082613a5257613a4d82613e6e565b613ac2565b5f8251148015613a7857505f8473ffffffffffffffffffffffffffffffffffffffff163b145b15613aba57836040517f9996b315000000000000000000000000000000000000000000000000000000008152600401613ab19190613fba565b60405180910390fd5b819050613ac3565b5b9392505050565b6060613ad783835f613eb2565b905092915050565b5f805f90507a184f03e93ff9f4daa797ed6e38ed64bf6a1f0100000000000000008310613b3b577a184f03e93ff9f4daa797ed6e38ed64bf6a1f0100000000000000008381613b3157613b3061518a565b5b0492506040810190505b6d04ee2d6d415b85acef81000000008310613b78576d04ee2d6d415b85acef81000000008381613b6e57613b6d61518a565b5b0492506020810190505b662386f26fc100008310613ba757662386f26fc100008381613b9d57613b9c61518a565b5b0492506010810190505b6305f5e1008310613bd0576305f5e1008381613bc657613bc561518a565b5b0492506008810190505b6127108310613bf5576127108381613beb57613bea61518a565b5b0492506004810190505b60648310613c185760648381613c0e57613c0d61518a565b5b0492506002810190505b600a8310613c27576001810190505b80915050919050565b60605f8390505f6002846002613c4691906151b7565b613c509190614958565b67ffffffffffffffff811115613c6957613c686141e0565b5b6040519080825280601f01601f191660200182016040528015613c9b5781602001600182028036833780820191505090505b5090507f3000000000000000000000000000000000000000000000000000000000000000815f81518110613cd257613cd161482e565b5b60200101907effffffffffffffffffffffffffffffffffffffffffffffffffffffffffffff191690815f1a9053507f780000000000000000000000000000000000000000000000000000000000000081600181518110613d3557613d3461482e565b5b60200101907effffffffffffffffffffffffffffffffffffffffffffffffffffffffffffff191690815f1a9053505f6001856002613d7391906151b7565b613d7d9190614958565b90505b6001811115613e1c577f3031323334353637383961626364656600000000000000000000000000000000600f841660108110613dbf57613dbe61482e565b5b1a60f81b828281518110613dd657613dd561482e565b5b60200101907effffffffffffffffffffffffffffffffffffffffffffffffffffffffffffff191690815f1a905350600483901c925080613e15906151f8565b9050613d80565b505f8214613e635784846040517fe22e27eb000000000000000000000000000000000000000000000000000000008152600401613e5a92919061521f565b60405180910390fd5b809250505092915050565b5f81511115613e805780518082602001fd5b6040517f1425ea4200000000000000000000000000000000000000000000000000000000815260040160405180910390fd5b606081471015613ef957306040517fcd786059000000000000000000000000000000000000000000000000000000008152600401613ef09190613fba565b60405180910390fd5b5f808573ffffffffffffffffffffffffffffffffffffffff168486604051613f219190614d61565b5f6040518083038185875af1925050503d805f8114613f5b576040519150601f19603f3d011682016040523d82523d5f602084013e613f60565b606091505b5091509150613f70868383613a3d565b925050509392505050565b5f73ffffffffffffffffffffffffffffffffffffffff82169050919050565b5f613fa482613f7b565b9050919050565b613fb481613f9a565b82525050565b5f602082019050613fcd5f830184613fab565b92915050565b5f819050919050565b613fe581613fd3565b82525050565b5f602082019050613ffe5f830184613fdc565b92915050565b5f604051905090565b5f80fd5b5f80fd5b61401e81613f9a565b8114614028575f80fd5b50565b5f8135905061403981614015565b92915050565b5f602082840312156140545761405361400d565b5b5f6140618482850161402b565b91505092915050565b5f819050919050565b61407c8161406a565b82525050565b5f6020820190506140955f830184614073565b92915050565b5f8115159050919050565b6140af8161409b565b81146140b9575f80fd5b50565b5f813590506140ca816140a6565b92915050565b5f80604083850312156140e6576140e561400d565b5b5f6140f38582860161402b565b9250506020614104858286016140bc565b9150509250929050565b5f80fd5b5f80fd5b5f80fd5b5f8083601f84011261412f5761412e61410e565b5b8235905067ffffffffffffffff81111561414c5761414b614112565b5b60208301915083602082028301111561416857614167614116565b5b9250929050565b5f805f604084860312156141865761418561400d565b5b5f6141938682870161402b565b935050602084013567ffffffffffffffff8111156141b4576141b3614011565b5b6141c08682870161411a565b92509250509250925092565b5f80fd5b5f601f19601f8301169050919050565b7f4e487b71000000000000000000000000000000000000000000000000000000005f52604160045260245ffd5b614216826141d0565b810181811067ffffffffffffffff82111715614235576142346141e0565b5b80604052505050565b5f614247614004565b9050614253828261420d565b919050565b5f67ffffffffffffffff821115614272576142716141e0565b5b61427b826141d0565b9050602081019050919050565b828183375f83830152505050565b5f6142a86142a384614258565b61423e565b9050828152602081018484840111156142c4576142c36141cc565b5b6142cf848285614288565b509392505050565b5f82601f8301126142eb576142ea61410e565b5b81356142fb848260208601614296565b91505092915050565b5f806040838503121561431a5761431961400d565b5b5f6143278582860161402b565b925050602083013567ffffffffffffffff81111561434857614347614011565b5b614354858286016142d7565b9150509250929050565b6143678161409b565b82525050565b5f6020820190506143805f83018461435e565b92915050565b5f819050919050565b5f6143a96143a461439f84613f7b565b614386565b613f7b565b9050919050565b5f6143ba8261438f565b9050919050565b5f6143cb826143b0565b9050919050565b6143db816143c1565b82525050565b5f6020820190506143f45f8301846143d2565b92915050565b61440381613fd3565b811461440d575f80fd5b50565b5f8135905061441e816143fa565b92915050565b5f805f806080858703121561443c5761443b61400d565b5b5f6144498782880161402b565b945050602061445a87828801614410565b935050604061446b8782880161402b565b925050606061447c8782880161402b565b91505092959194509250565b5f806040838503121561449e5761449d61400d565b5b5f6144ab8582860161402b565b92505060206144bc8582860161402b565b9150509250929050565b5f805f606084860312156144dd576144dc61400d565b5b5f6144ea86828701614410565b93505060206144fb8682870161402b565b925050604061450c86828701614410565b9150509250925092565b5f7fffffffff0000000000000000000000000000000000000000000000000000000082169050919050565b61454a81614516565b82525050565b5f6020820190506145635f830184614541565b92915050565b5f6bffffffffffffffffffffffff82169050919050565b61458981614569565b8114614593575f80fd5b50565b5f813590506145a481614580565b92915050565b5f805f606084860312156145c1576145c061400d565b5b5f6145ce8682870161402b565b93505060206145df8682870161402b565b92505060406145f086828701614596565b9150509250925092565b5f81519050919050565b5f82825260208201905092915050565b8281835e5f83830152505050565b5f61462c826145fa565b6146368185614604565b9350614646818560208601614614565b61464f816141d0565b840191505092915050565b5f6020820190508181035f8301526146728184614622565b905092915050565b5f805f606084860312156146915761469061400d565b5b5f61469e8682870161402b565b93505060206146af86828701614410565b92505060406146c086828701614410565b9150509250925092565b5f81519050919050565b5f82825260208201905092915050565b5f819050602082019050919050565b6146fc81613f9a565b82525050565b5f61470d83836146f3565b60208301905092915050565b5f602082019050919050565b5f61472f826146ca565b61473981856146d4565b9350614744836146e4565b805f5b8381101561477457815161475b8882614702565b975061476683614719565b925050600181019050614747565b5085935050505092915050565b5f6020820190508181035f8301526147998184614725565b905092915050565b6147aa81614569565b82525050565b5f6020820190506147c35f8301846147a1565b92915050565b5f819050919050565b5f67ffffffffffffffff82169050919050565b5f6147ff6147fa6147f5846147c9565b614386565b6147d2565b9050919050565b61480f816147e5565b82525050565b5f6020820190506148285f830184614806565b92915050565b7f4e487b71000000000000000000000000000000000000000000000000000000005f52603260045260245ffd5b7f74726561737572790000000000000000000000000000000000000000000000005f82015250565b5f61488f600883614604565b915061489a8261485b565b602082019050919050565b5f6020820190508181035f8301526148bc81614883565b9050919050565b7f666565546f6b656e0000000000000000000000000000000000000000000000005f82015250565b5f6148f7600883614604565b9150614902826148c3565b602082019050919050565b5f6020820190508181035f830152614924816148eb565b9050919050565b7f4e487b71000000000000000000000000000000000000000000000000000000005f52601160045260245ffd5b5f61496282613fd3565b915061496d83613fd3565b92508282019050808211156149855761498461492b565b5b92915050565b5f61499582613fd3565b91506149a083613fd3565b92508282039050818111156149b8576149b761492b565b5b92915050565b5f80fd5b5f80fd5b5f80858511156149d9576149d86149be565b5b838611156149ea576149e96149c2565b5b6001850283019150848603905094509492505050565b5f82905092915050565b5f82821b905092915050565b5f614a218383614a00565b82614a2c8135614516565b92506004821015614a6c57614a677fffffffff0000000000000000000000000000000000000000000000000000000083600403600802614a0a565b831692505b505092915050565b5f82825260208201905092915050565b5f614a8f8385614a74565b9350614a9c838584614288565b614aa5836141d0565b840190509392505050565b5f604082019050614ac35f830186613fab565b8181036020830152614ad6818486614a84565b9050949350505050565b5f81519050614aee816143fa565b92915050565b5f81519050614b0281614015565b92915050565b5f805f60608486031215614b1f57614b1e61400d565b5b5f614b2c86828701614ae0565b9350506020614b3d86828701614af4565b9250506040614b4e86828701614ae0565b9150509250925092565b614b618161406a565b8114614b6b575f80fd5b50565b5f81519050614b7c81614b58565b92915050565b5f60208284031215614b9757614b9661400d565b5b5f614ba484828501614b6e565b91505092915050565b5f614bb782613fd3565b91507fffffffffffffffffffffffffffffffffffffffffffffffffffffffffffffffff8203614be957614be861492b565b5b600182019050919050565b5f608082019050614c075f830187613fab565b8181036020830152614c198186614622565b90508181036040830152614c2d8185614622565b9050614c3c6060830184613fdc565b95945050505050565b5f604082019050614c585f830185614073565b614c656020830184614073565b9392505050565b5f60a082019050614c7f5f830188613fab565b614c8c6020830187614073565b614c996040830186613fdc565b614ca66060830185613fab565b614cb36080830184613fdc565b9695505050505050565b5f60208284031215614cd257614cd161400d565b5b5f614cdf84828501614af4565b91505092915050565b5f606082019050614cfb5f830186613fab565b614d086020830185613fab565b614d156040830184614541565b949350505050565b5f81519050919050565b5f81905092915050565b5f614d3b82614d1d565b614d458185614d27565b9350614d55818560208601614614565b80840191505092915050565b5f614d6c8284614d31565b915081905092915050565b5f81519050614d85816140a6565b92915050565b5f63ffffffff82169050919050565b614da381614d8b565b8114614dad575f80fd5b50565b5f81519050614dbe81614d9a565b92915050565b5f8060408385031215614dda57614dd961400d565b5b5f614de785828601614d77565b9250506020614df885828601614db0565b9150509250929050565b5f60208284031215614e1757614e1661400d565b5b5f614e2484828501614d77565b91505092915050565b5f614e3f614e3a84614258565b61423e565b905082815260208101848484011115614e5b57614e5a6141cc565b5b614e66848285614614565b509392505050565b5f82601f830112614e8257614e8161410e565b5b8151614e92848260208601614e2d565b91505092915050565b5f60208284031215614eb057614eaf61400d565b5b5f82015167ffffffffffffffff811115614ecd57614ecc614011565b5b614ed984828501614e6e565b91505092915050565b5f606082019050614ef55f830186613fab565b614f026020830185613fab565b614f0f6040830184613fdc565b949350505050565b5f604082019050614f2a5f830185613fab565b614f376020830184613fdc565b9392505050565b5f81905092915050565b5f614f52826145fa565b614f5c8185614f3e565b9350614f6c818560208601614614565b80840191505092915050565b7f3a20000000000000000000000000000000000000000000000000000000000000815250565b7f2023000000000000000000000000000000000000000000000000000000000000815250565b5f614fcf8286614f48565b9150614fda82614f78565b600282019150614fea8285614f48565b9150614ff582614f9e565b6002820191506150058284614f48565b9150819050949350505050565b5f67ffffffffffffffff82111561502c5761502b6141e0565b5b615035826141d0565b9050602081019050919050565b5f61505461504f84615012565b61423e565b9050828152602081018484840111156150705761506f6141cc565b5b61507b848285614614565b509392505050565b5f82601f8301126150975761509661410e565b5b81516150a7848260208601615042565b91505092915050565b5f602082840312156150c5576150c461400d565b5b5f82015167ffffffffffffffff8111156150e2576150e1614011565b5b6150ee84828501615083565b91505092915050565b5f61510182614d1d565b61510b8185614a74565b935061511b818560208601614614565b615124816141d0565b840191505092915050565b5f6040820190506151425f830185614073565b818103602083015261515481846150f7565b90509392505050565b7f4e487b71000000000000000000000000000000000000000000000000000000005f52603160045260245ffd5b7f4e487b71000000000000000000000000000000000000000000000000000000005f52601260045260245ffd5b5f6151c182613fd3565b91506151cc83613fd3565b92508282026151da81613fd3565b915082820484148315176151f1576151f061492b565b5b5092915050565b5f61520282613fd3565b91505f82036152145761521361492b565b5b600182039050919050565b5f6040820190506152325f830185613fdc565b61523f6020830184613fdc565b939250505056fea264697066735822122037528c58f14e1b5cc77bd7907437b0a9f5c41cf473b1804bd7d708cde5e5568964736f6c634300081a0033",
			"opcodes": "PUSH2 0x120 PUSH1 0x40 MSTORE ADDRESS PUSH20 0xFFFFFFFFFFFFFFFFFFFFFFFFFFFFFFFFFFFFFFFF AND PUSH2 0x100 SWAP1 PUSH20 0xFFFFFFFFFFFFFFFFFFFFFFFFFFFFFFFFFFFFFFFF AND DUP2 MSTORE POP CALLVALUE DUP1 ISZERO PUSH2 0x44 JUMPI PUSH0 DUP1 REVERT JUMPDEST POP PUSH1 0x40 MLOAD PUSH2 0x5729 CODESIZE SUB DUP1 PUSH2 0x5729 DUP4 CODECOPY DUP2 DUP2 ADD PUSH1 0x40 MSTORE DUP2 ADD SWAP1 PUSH2 0x66 SWAP2 SWAP1 PUSH2 0x383 JUMP JUMPDEST DUP1 DUP4 DUP4 PUSH0 PUSH20 0xFFFFFFFFFFFFFFFFFFFFFFFFFFFFFFFFFFFFFFFF AND DUP2 PUSH20 0xFFFFFFFFFFFFFFFFFFFFFFFFFFFFFFFFFFFFFFFF AND SUB PUSH2 0xCE JUMPI PUSH1 0x40 MLOAD PUSH32 0x532538CF00000000000000000000000000000000000000000000000000000000 DUP2 MSTORE PUSH1 0x4 ADD PUSH1 0x40 MLOAD DUP1 SWAP2 SUB SWAP1 REVERT JUMPDEST PUSH0 PUSH20 0xFFFFFFFFFFFFFFFFFFFFFFFFFFFFFFFFFFFFFFFF AND DUP3 PUSH20 0xFFFFFFFFFFFFFFFFFFFFFFFFFFFFFFFFFFFFFFFF AND SUB PUSH2 0x133 JUMPI PUSH1 0x40 MLOAD PUSH32 0x2BDBE33B00000000000000000000000000000000000000000000000000000000 DUP2 MSTORE PUSH1 0x4 ADD PUSH1 0x40 MLOAD DUP1 SWAP2 SUB SWAP1 REVERT JUMPDEST DUP1 PUSH20 0xFFFFFFFFFFFFFFFFFFFFFFFFFFFFFFFFFFFFFFFF AND PUSH1 0x80 DUP2 PUSH20 0xFFFFFFFFFFFFFFFFFFFFFFFFFFFFFFFFFFFFFFFF AND DUP2 MSTORE POP POP PUSH0 DUP1 SHL PUSH1 0xA0 DUP2 DUP2 MSTORE POP POP DUP2 PUSH20 0xFFFFFFFFFFFFFFFFFFFFFFFFFFFFFFFFFFFFFFFF AND PUSH1 0xC0 DUP2 PUSH20 0xFFFFFFFFFFFFFFFFFFFFFFFFFFFFFFFFFFFFFFFF AND DUP2 MSTORE POP POP POP POP DUP1 PUSH20 0xFFFFFFFFFFFFFFFFFFFFFFFFFFFFFFFFFFFFFFFF AND PUSH1 0xE0 DUP2 PUSH20 0xFFFFFFFFFFFFFFFFFFFFFFFFFFFFFFFFFFFFFFFF AND DUP2 MSTORE POP POP PUSH2 0x1E9 PUSH2 0x200 PUSH1 0x20 SHL PUSH1 0x20 SHR JUMP JUMPDEST POP PUSH2 0x1F8 PUSH2 0x200 PUSH1 0x20 SHL PUSH1 0x20 SHR JUMP JUMPDEST POP POP POP PUSH2 0x40E JUMP JUMPDEST PUSH0 PUSH2 0x20F PUSH2 0x2FE PUSH1 0x20 SHL PUSH1 0x20 SHR JUMP JUMPDEST SWAP1 POP DUP1 PUSH0 ADD PUSH1 0x8 SWAP1 SLOAD SWAP1 PUSH2 0x100 EXP SWAP1 DIV PUSH1 0xFF AND ISZERO PUSH2 0x259 JUMPI PUSH1 0x40 MLOAD PUSH32 0xF92EE8A900000000000000000000000000000000000000000000000000000000 DUP2 MSTORE PUSH1 0x4 ADD PUSH1 0x40 MLOAD DUP1 SWAP2 SUB SWAP1 REVERT JUMPDEST PUSH8 0xFFFFFFFFFFFFFFFF DUP1 AND DUP2 PUSH0 ADD PUSH0 SWAP1 SLOAD SWAP1 PUSH2 0x100 EXP SWAP1 DIV PUSH8 0xFFFFFFFFFFFFFFFF AND PUSH8 0xFFFFFFFFFFFFFFFF AND EQ PUSH2 0x2FB JUMPI PUSH8 0xFFFFFFFFFFFFFFFF DUP2 PUSH0 ADD PUSH0 PUSH2 0x100 EXP DUP2 SLOAD DUP2 PUSH8 0xFFFFFFFFFFFFFFFF MUL NOT AND SWAP1 DUP4 PUSH8 0xFFFFFFFFFFFFFFFF AND MUL OR SWAP1 SSTORE POP PUSH32 0xC7F505B2F371AE2175EE4913F4499E1F2633A7B5936321EED1CDAEB6115181D2 PUSH8 0xFFFFFFFFFFFFFFFF PUSH1 0x40 MLOAD PUSH2 0x2F2 SWAP2 SWAP1 PUSH2 0x3F5 JUMP JUMPDEST PUSH1 0x40 MLOAD DUP1 SWAP2 SUB SWAP1 LOG1 JUMPDEST POP JUMP JUMPDEST PUSH0 PUSH32 0xF0C57E16840DF040F15088DC2F81FE391C3923BEC73E23A9662EFC9C229C6A00 SWAP1 POP SWAP1 JUMP JUMPDEST PUSH0 DUP1 REVERT JUMPDEST PUSH0 PUSH20 0xFFFFFFFFFFFFFFFFFFFFFFFFFFFFFFFFFFFFFFFF DUP3 AND SWAP1 POP SWAP2 SWAP1 POP JUMP JUMPDEST PUSH0 PUSH2 0x352 DUP3 PUSH2 0x329 JUMP JUMPDEST SWAP1 POP SWAP2 SWAP1 POP JUMP JUMPDEST PUSH2 0x362 DUP2 PUSH2 0x348 JUMP JUMPDEST DUP2 EQ PUSH2 0x36C JUMPI PUSH0 DUP1 REVERT JUMPDEST POP JUMP JUMPDEST PUSH0 DUP2 MLOAD SWAP1 POP PUSH2 0x37D DUP2 PUSH2 0x359 JUMP JUMPDEST SWAP3 SWAP2 POP POP JUMP JUMPDEST PUSH0 DUP1 PUSH0 PUSH1 0x60 DUP5 DUP7 SUB SLT ISZERO PUSH2 0x39A JUMPI PUSH2 0x399 PUSH2 0x325 JUMP JUMPDEST JUMPDEST PUSH0 PUSH2 0x3A7 DUP7 DUP3 DUP8 ADD PUSH2 0x36F JUMP JUMPDEST SWAP4 POP POP PUSH1 0x20 PUSH2 0x3B8 DUP7 DUP3 DUP8 ADD PUSH2 0x36F JUMP JUMPDEST SWAP3 POP POP PUSH1 0x40 PUSH2 0x3C9 DUP7 DUP3 DUP8 ADD PUSH2 0x36F JUMP JUMPDEST SWAP2 POP POP SWAP3 POP SWAP3 POP SWAP3 JUMP JUMPDEST PUSH0 PUSH8 0xFFFFFFFFFFFFFFFF DUP3 AND SWAP1 POP SWAP2 SWAP1 POP JUMP JUMPDEST PUSH2 0x3EF DUP2 PUSH2 0x3D3 JUMP JUMPDEST DUP3 MSTORE POP POP JUMP JUMPDEST PUSH0 PUSH1 0x20 DUP3 ADD SWAP1 POP PUSH2 0x408 PUSH0 DUP4 ADD DUP5 PUSH2 0x3E6 JUMP JUMPDEST SWAP3 SWAP2 POP POP JUMP JUMPDEST PUSH1 0x80 MLOAD PUSH1 0xA0 MLOAD PUSH1 0xC0 MLOAD PUSH1 0xE0 MLOAD PUSH2 0x100 MLOAD PUSH2 0x527C PUSH2 0x4AD PUSH0 CODECOPY PUSH0 DUP2 DUP2 PUSH2 0x20FB ADD MSTORE DUP2 DUP2 PUSH2 0x2150 ADD MSTORE PUSH2 0x23A0 ADD MSTORE PUSH0 DUP2 DUP2 PUSH2 0xA2B ADD MSTORE DUP2 DUP2 PUSH2 0xC55 ADD MSTORE DUP2 DUP2 PUSH2 0xF61 ADD MSTORE DUP2 DUP2 PUSH2 0xF86 ADD MSTORE PUSH2 0x12E0 ADD MSTORE PUSH0 DUP2 DUP2 PUSH2 0x849 ADD MSTORE DUP2 DUP2 PUSH2 0x293E ADD MSTORE PUSH2 0x2EE6 ADD MSTORE PUSH0 DUP2 DUP2 PUSH2 0xA07 ADD MSTORE DUP2 DUP2 PUSH2 0x299B ADD MSTORE PUSH2 0x2F43 ADD MSTORE PUSH0 DUP2 DUP2 PUSH2 0xF2F ADD MSTORE DUP2 DUP2 PUSH2 0x14DC ADD MSTORE DUP2 DUP2 PUSH2 0x297A ADD MSTORE DUP2 DUP2 PUSH2 0x2F22 ADD MSTORE PUSH2 0x2FCA ADD MSTORE PUSH2 0x527C PUSH0 RETURN INVALID PUSH1 0x80 PUSH1 0x40 MSTORE PUSH1 0x4 CALLDATASIZE LT PUSH2 0x203 JUMPI PUSH0 CALLDATALOAD PUSH1 0xE0 SHR DUP1 PUSH4 0x7D294B40 GT PUSH2 0x117 JUMPI DUP1 PUSH4 0xBE68D9D7 GT PUSH2 0x9F JUMPI DUP1 PUSH4 0xC4D66DE8 GT PUSH2 0x6E JUMPI DUP1 PUSH4 0xC4D66DE8 EQ PUSH2 0x741 JUMPI DUP1 PUSH4 0xCA709A25 EQ PUSH2 0x769 JUMPI DUP1 PUSH4 0xD26BB83F EQ PUSH2 0x793 JUMPI DUP1 PUSH4 0xFA2372F6 EQ PUSH2 0x7CF JUMPI DUP1 PUSH4 0xFCA247AC EQ PUSH2 0x80B JUMPI PUSH2 0x203 JUMP JUMPDEST DUP1 PUSH4 0xBE68D9D7 EQ PUSH2 0x675 JUMPI DUP1 PUSH4 0xBF5C9822 EQ PUSH2 0x6B1 JUMPI DUP1 PUSH4 0xBF7E214F EQ PUSH2 0x6DB JUMPI DUP1 PUSH4 0xC3C5A547 EQ PUSH2 0x705 JUMPI PUSH2 0x203 JUMP JUMPDEST DUP1 PUSH4 0x8FB36037 GT PUSH2 0xE6 JUMPI DUP1 PUSH4 0x8FB36037 EQ PUSH2 0x593 JUMPI DUP1 PUSH4 0x95A3DFB2 EQ PUSH2 0x5BD JUMPI DUP1 PUSH4 0xA32A054E EQ PUSH2 0x5E7 JUMPI DUP1 PUSH4 0xA72A6FA9 EQ PUSH2 0x623 JUMPI DUP1 PUSH4 0xAD3CB1CC EQ PUSH2 0x64B JUMPI PUSH2 0x203 JUMP JUMPDEST DUP1 PUSH4 0x7D294B40 EQ PUSH2 0x4DD JUMPI DUP1 PUSH4 0x81FDAFA0 EQ PUSH2 0x519 JUMPI DUP1 PUSH4 0x8456CB59 EQ PUSH2 0x541 JUMPI DUP1 PUSH4 0x87020F95 EQ PUSH2 0x557 JUMPI PUSH2 0x203 JUMP JUMPDEST DUP1 PUSH4 0x4094F4ED GT PUSH2 0x19A JUMPI DUP1 PUSH4 0x5796FFBC GT PUSH2 0x169 JUMPI DUP1 PUSH4 0x5796FFBC EQ PUSH2 0x3FB JUMPI DUP1 PUSH4 0x5C975ABB EQ PUSH2 0x425 JUMPI DUP1 PUSH4 0x5EE5E32A EQ PUSH2 0x44F JUMPI DUP1 PUSH4 0x63ACE9AD EQ PUSH2 0x479 JUMPI DUP1 PUSH4 0x7A9E5E4B EQ PUSH2 0x4B5 JUMPI PUSH2 0x203 JUMP JUMPDEST DUP1 PUSH4 0x4094F4ED EQ PUSH2 0x351 JUMPI DUP1 PUSH4 0x4F1EF286 EQ PUSH2 0x379 JUMPI DUP1 PUSH4 0x51EEE276 EQ PUSH2 0x395 JUMPI DUP1 PUSH4 0x52D1902D EQ PUSH2 0x3D1 JUMPI PUSH2 0x203 JUMP JUMPDEST DUP1 PUSH4 0x20EF8372 GT PUSH2 0x1D6 JUMPI DUP1 PUSH4 0x20EF8372 EQ PUSH2 0x2AD JUMPI DUP1 PUSH4 0x30D63280 EQ PUSH2 0x2D5 JUMPI DUP1 PUSH4 0x3B19E84A EQ PUSH2 0x311 JUMPI DUP1 PUSH4 0x3F4BA83A EQ PUSH2 0x33B JUMPI PUSH2 0x203 JUMP JUMPDEST DUP1 PUSH4 0xC3C7264 EQ PUSH2 0x207 JUMPI DUP1 PUSH4 0x18160DDD EQ PUSH2 0x231 JUMPI DUP1 PUSH4 0x198FDD98 EQ PUSH2 0x25B JUMPI DUP1 PUSH4 0x1A8BB07B EQ PUSH2 0x283 JUMPI JUMPDEST PUSH0 DUP1 REVERT JUMPDEST CALLVALUE DUP1 ISZERO PUSH2 0x212 JUMPI PUSH0 DUP1 REVERT JUMPDEST POP PUSH2 0x21B PUSH2 0x847 JUMP JUMPDEST PUSH1 0x40 MLOAD PUSH2 0x228 SWAP2 SWAP1 PUSH2 0x3FBA JUMP JUMPDEST PUSH1 0x40 MLOAD DUP1 SWAP2 SUB SWAP1 RETURN JUMPDEST CALLVALUE DUP1 ISZERO PUSH2 0x23C JUMPI PUSH0 DUP1 REVERT JUMPDEST POP PUSH2 0x245 PUSH2 0x86B JUMP JUMPDEST PUSH1 0x40 MLOAD PUSH2 0x252 SWAP2 SWAP1 PUSH2 0x3FEB JUMP JUMPDEST PUSH1 0x40 MLOAD DUP1 SWAP2 SUB SWAP1 RETURN JUMPDEST CALLVALUE DUP1 ISZERO PUSH2 0x266 JUMPI PUSH0 DUP1 REVERT JUMPDEST POP PUSH2 0x281 PUSH1 0x4 DUP1 CALLDATASIZE SUB DUP2 ADD SWAP1 PUSH2 0x27C SWAP2 SWAP1 PUSH2 0x403F JUMP JUMPDEST PUSH2 0x87C JUMP JUMPDEST STOP JUMPDEST CALLVALUE DUP1 ISZERO PUSH2 0x28E JUMPI PUSH0 DUP1 REVERT JUMPDEST POP PUSH2 0x297 PUSH2 0xA05 JUMP JUMPDEST PUSH1 0x40 MLOAD PUSH2 0x2A4 SWAP2 SWAP1 PUSH2 0x4082 JUMP JUMPDEST PUSH1 0x40 MLOAD DUP1 SWAP2 SUB SWAP1 RETURN JUMPDEST CALLVALUE DUP1 ISZERO PUSH2 0x2B8 JUMPI PUSH0 DUP1 REVERT JUMPDEST POP PUSH2 0x2D3 PUSH1 0x4 DUP1 CALLDATASIZE SUB DUP2 ADD SWAP1 PUSH2 0x2CE SWAP2 SWAP1 PUSH2 0x40D0 JUMP JUMPDEST PUSH2 0xA29 JUMP JUMPDEST STOP JUMPDEST CALLVALUE DUP1 ISZERO PUSH2 0x2E0 JUMPI PUSH0 DUP1 REVERT JUMPDEST POP PUSH2 0x2FB PUSH1 0x4 DUP1 CALLDATASIZE SUB DUP2 ADD SWAP1 PUSH2 0x2F6 SWAP2 SWAP1 PUSH2 0x403F JUMP JUMPDEST PUSH2 0xB92 JUMP JUMPDEST PUSH1 0x40 MLOAD PUSH2 0x308 SWAP2 SWAP1 PUSH2 0x3FBA JUMP JUMPDEST PUSH1 0x40 MLOAD DUP1 SWAP2 SUB SWAP1 RETURN JUMPDEST CALLVALUE DUP1 ISZERO PUSH2 0x31C JUMPI PUSH0 DUP1 REVERT JUMPDEST POP PUSH2 0x325 PUSH2 0xC00 JUMP JUMPDEST PUSH1 0x40 MLOAD PUSH2 0x332 SWAP2 SWAP1 PUSH2 0x3FBA JUMP JUMPDEST PUSH1 0x40 MLOAD DUP1 SWAP2 SUB SWAP1 RETURN JUMPDEST CALLVALUE DUP1 ISZERO PUSH2 0x346 JUMPI PUSH0 DUP1 REVERT JUMPDEST POP PUSH2 0x34F PUSH2 0xC31 JUMP JUMPDEST STOP JUMPDEST CALLVALUE DUP1 ISZERO PUSH2 0x35C JUMPI PUSH0 DUP1 REVERT JUMPDEST POP PUSH2 0x377 PUSH1 0x4 DUP1 CALLDATASIZE SUB DUP2 ADD SWAP1 PUSH2 0x372 SWAP2 SWAP1 PUSH2 0x416F JUMP JUMPDEST PUSH2 0xC53 JUMP JUMPDEST STOP JUMPDEST PUSH2 0x393 PUSH1 0x4 DUP1 CALLDATASIZE SUB DUP2 ADD SWAP1 PUSH2 0x38E SWAP2 SWAP1 PUSH2 0x4304 JUMP JUMPDEST PUSH2 0xE76 JUMP JUMPDEST STOP JUMPDEST CALLVALUE DUP1 ISZERO PUSH2 0x3A0 JUMPI PUSH0 DUP1 REVERT JUMPDEST POP PUSH2 0x3BB PUSH1 0x4 DUP1 CALLDATASIZE SUB DUP2 ADD SWAP1 PUSH2 0x3B6 SWAP2 SWAP1 PUSH2 0x403F JUMP JUMPDEST PUSH2 0xE95 JUMP JUMPDEST PUSH1 0x40 MLOAD PUSH2 0x3C8 SWAP2 SWAP1 PUSH2 0x436D JUMP JUMPDEST PUSH1 0x40 MLOAD DUP1 SWAP2 SUB SWAP1 RETURN JUMPDEST CALLVALUE DUP1 ISZERO PUSH2 0x3DC JUMPI PUSH0 DUP1 REVERT JUMPDEST POP PUSH2 0x3E5 PUSH2 0xEFC JUMP JUMPDEST PUSH1 0x40 MLOAD PUSH2 0x3F2 SWAP2 SWAP1 PUSH2 0x4082 JUMP JUMPDEST PUSH1 0x40 MLOAD DUP1 SWAP2 SUB SWAP1 RETURN JUMPDEST CALLVALUE DUP1 ISZERO PUSH2 0x406 JUMPI PUSH0 DUP1 REVERT JUMPDEST POP PUSH2 0x40F PUSH2 0xF2D JUMP JUMPDEST PUSH1 0x40 MLOAD PUSH2 0x41C SWAP2 SWAP1 PUSH2 0x3FBA JUMP JUMPDEST PUSH1 0x40 MLOAD DUP1 SWAP2 SUB SWAP1 RETURN JUMPDEST CALLVALUE DUP1 ISZERO PUSH2 0x430 JUMPI PUSH0 DUP1 REVERT JUMPDEST POP PUSH2 0x439 PUSH2 0xF51 JUMP JUMPDEST PUSH1 0x40 MLOAD PUSH2 0x446 SWAP2 SWAP1 PUSH2 0x436D JUMP JUMPDEST PUSH1 0x40 MLOAD DUP1 SWAP2 SUB SWAP1 RETURN JUMPDEST CALLVALUE DUP1 ISZERO PUSH2 0x45A JUMPI PUSH0 DUP1 REVERT JUMPDEST POP PUSH2 0x463 PUSH2 0xF5F JUMP JUMPDEST PUSH1 0x40 MLOAD PUSH2 0x470 SWAP2 SWAP1 PUSH2 0x43E1 JUMP JUMPDEST PUSH1 0x40 MLOAD DUP1 SWAP2 SUB SWAP1 RETURN JUMPDEST CALLVALUE DUP1 ISZERO PUSH2 0x484 JUMPI PUSH0 DUP1 REVERT JUMPDEST POP PUSH2 0x49F PUSH1 0x4 DUP1 CALLDATASIZE SUB DUP2 ADD SWAP1 PUSH2 0x49A SWAP2 SWAP1 PUSH2 0x4424 JUMP JUMPDEST PUSH2 0xF83 JUMP JUMPDEST PUSH1 0x40 MLOAD PUSH2 0x4AC SWAP2 SWAP1 PUSH2 0x3FBA JUMP JUMPDEST PUSH1 0x40 MLOAD DUP1 SWAP2 SUB SWAP1 RETURN JUMPDEST CALLVALUE DUP1 ISZERO PUSH2 0x4C0 JUMPI PUSH0 DUP1 REVERT JUMPDEST POP PUSH2 0x4DB PUSH1 0x4 DUP1 CALLDATASIZE SUB DUP2 ADD SWAP1 PUSH2 0x4D6 SWAP2 SWAP1 PUSH2 0x403F JUMP JUMPDEST PUSH2 0x1194 JUMP JUMPDEST STOP JUMPDEST CALLVALUE DUP1 ISZERO PUSH2 0x4E8 JUMPI PUSH0 DUP1 REVERT JUMPDEST POP PUSH2 0x503 PUSH1 0x4 DUP1 CALLDATASIZE SUB DUP2 ADD SWAP1 PUSH2 0x4FE SWAP2 SWAP1 PUSH2 0x4488 JUMP JUMPDEST PUSH2 0x127E JUMP JUMPDEST PUSH1 0x40 MLOAD PUSH2 0x510 SWAP2 SWAP1 PUSH2 0x436D JUMP JUMPDEST PUSH1 0x40 MLOAD DUP1 SWAP2 SUB SWAP1 RETURN JUMPDEST CALLVALUE DUP1 ISZERO PUSH2 0x524 JUMPI PUSH0 DUP1 REVERT JUMPDEST POP PUSH2 0x53F PUSH1 0x4 DUP1 CALLDATASIZE SUB DUP2 ADD SWAP1 PUSH2 0x53A SWAP2 SWAP1 PUSH2 0x416F JUMP JUMPDEST PUSH2 0x12DE JUMP JUMPDEST STOP JUMPDEST CALLVALUE DUP1 ISZERO PUSH2 0x54C JUMPI PUSH0 DUP1 REVERT JUMPDEST POP PUSH2 0x555 PUSH2 0x1469 JUMP JUMPDEST STOP JUMPDEST CALLVALUE DUP1 ISZERO PUSH2 0x562 JUMPI PUSH0 DUP1 REVERT JUMPDEST POP PUSH2 0x57D PUSH1 0x4 DUP1 CALLDATASIZE SUB DUP2 ADD SWAP1 PUSH2 0x578 SWAP2 SWAP1 PUSH2 0x44C6 JUMP JUMPDEST PUSH2 0x148B JUMP JUMPDEST PUSH1 0x40 MLOAD PUSH2 0x58A SWAP2 SWAP1 PUSH2 0x3FBA JUMP JUMPDEST PUSH1 0x40 MLOAD DUP1 SWAP2 SUB SWAP1 RETURN JUMPDEST CALLVALUE DUP1 ISZERO PUSH2 0x59E JUMPI PUSH0 DUP1 REVERT JUMPDEST POP PUSH2 0x5A7 PUSH2 0x14A0 JUMP JUMPDEST PUSH1 0x40 MLOAD PUSH2 0x5B4 SWAP2 SWAP1 PUSH2 0x4550 JUMP JUMPDEST PUSH1 0x40 MLOAD DUP1 SWAP2 SUB SWAP1 RETURN JUMPDEST CALLVALUE DUP1 ISZERO PUSH2 0x5C8 JUMPI PUSH0 DUP1 REVERT JUMPDEST POP PUSH2 0x5D1 PUSH2 0x14D9 JUMP JUMPDEST PUSH1 0x40 MLOAD PUSH2 0x5DE SWAP2 SWAP1 PUSH2 0x3FBA JUMP JUMPDEST PUSH1 0x40 MLOAD DUP1 SWAP2 SUB SWAP1 RETURN JUMPDEST CALLVALUE DUP1 ISZERO PUSH2 0x5F2 JUMPI PUSH0 DUP1 REVERT JUMPDEST POP PUSH2 0x60D PUSH1 0x4 DUP1 CALLDATASIZE SUB DUP2 ADD SWAP1 PUSH2 0x608 SWAP2 SWAP1 PUSH2 0x403F JUMP JUMPDEST PUSH2 0x1500 JUMP JUMPDEST PUSH1 0x40 MLOAD PUSH2 0x61A SWAP2 SWAP1 PUSH2 0x3FEB JUMP JUMPDEST PUSH1 0x40 MLOAD DUP1 SWAP2 SUB SWAP1 RETURN JUMPDEST CALLVALUE DUP1 ISZERO PUSH2 0x62E JUMPI PUSH0 DUP1 REVERT JUMPDEST POP PUSH2 0x649 PUSH1 0x4 DUP1 CALLDATASIZE SUB DUP2 ADD SWAP1 PUSH2 0x644 SWAP2 SWAP1 PUSH2 0x45AA JUMP JUMPDEST PUSH2 0x1555 JUMP JUMPDEST STOP JUMPDEST CALLVALUE DUP1 ISZERO PUSH2 0x656 JUMPI PUSH0 DUP1 REVERT JUMPDEST POP PUSH2 0x65F PUSH2 0x178D JUMP JUMPDEST PUSH1 0x40 MLOAD PUSH2 0x66C SWAP2 SWAP1 PUSH2 0x465A JUMP JUMPDEST PUSH1 0x40 MLOAD DUP1 SWAP2 SUB SWAP1 RETURN JUMPDEST CALLVALUE DUP1 ISZERO PUSH2 0x680 JUMPI PUSH0 DUP1 REVERT JUMPDEST POP PUSH2 0x69B PUSH1 0x4 DUP1 CALLDATASIZE SUB DUP2 ADD SWAP1 PUSH2 0x696 SWAP2 SWAP1 PUSH2 0x467A JUMP JUMPDEST PUSH2 0x17C6 JUMP JUMPDEST PUSH1 0x40 MLOAD PUSH2 0x6A8 SWAP2 SWAP1 PUSH2 0x4781 JUMP JUMPDEST PUSH1 0x40 MLOAD DUP1 SWAP2 SUB SWAP1 RETURN JUMPDEST CALLVALUE DUP1 ISZERO PUSH2 0x6BC JUMPI PUSH0 DUP1 REVERT JUMPDEST POP PUSH2 0x6C5 PUSH2 0x18F6 JUMP JUMPDEST PUSH1 0x40 MLOAD PUSH2 0x6D2 SWAP2 SWAP1 PUSH2 0x47B0 JUMP JUMPDEST PUSH1 0x40 MLOAD DUP1 SWAP2 SUB SWAP1 RETURN JUMPDEST CALLVALUE DUP1 ISZERO PUSH2 0x6E6 JUMPI PUSH0 DUP1 REVERT JUMPDEST POP PUSH2 0x6EF PUSH2 0x1920 JUMP JUMPDEST PUSH1 0x40 MLOAD PUSH2 0x6FC SWAP2 SWAP1 PUSH2 0x3FBA JUMP JUMPDEST PUSH1 0x40 MLOAD DUP1 SWAP2 SUB SWAP1 RETURN JUMPDEST CALLVALUE DUP1 ISZERO PUSH2 0x710 JUMPI PUSH0 DUP1 REVERT JUMPDEST POP PUSH2 0x72B PUSH1 0x4 DUP1 CALLDATASIZE SUB DUP2 ADD SWAP1 PUSH2 0x726 SWAP2 SWAP1 PUSH2 0x403F JUMP JUMPDEST PUSH2 0x1955 JUMP JUMPDEST PUSH1 0x40 MLOAD PUSH2 0x738 SWAP2 SWAP1 PUSH2 0x436D JUMP JUMPDEST PUSH1 0x40 MLOAD DUP1 SWAP2 SUB SWAP1 RETURN JUMPDEST CALLVALUE DUP1 ISZERO PUSH2 0x74C JUMPI PUSH0 DUP1 REVERT JUMPDEST POP PUSH2 0x767 PUSH1 0x4 DUP1 CALLDATASIZE SUB DUP2 ADD SWAP1 PUSH2 0x762 SWAP2 SWAP1 PUSH2 0x403F JUMP JUMPDEST PUSH2 0x1966 JUMP JUMPDEST STOP JUMPDEST CALLVALUE DUP1 ISZERO PUSH2 0x774 JUMPI PUSH0 DUP1 REVERT JUMPDEST POP PUSH2 0x77D PUSH2 0x1B54 JUMP JUMPDEST PUSH1 0x40 MLOAD PUSH2 0x78A SWAP2 SWAP1 PUSH2 0x3FBA JUMP JUMPDEST PUSH1 0x40 MLOAD DUP1 SWAP2 SUB SWAP1 RETURN JUMPDEST CALLVALUE DUP1 ISZERO PUSH2 0x79E JUMPI PUSH0 DUP1 REVERT JUMPDEST POP PUSH2 0x7B9 PUSH1 0x4 DUP1 CALLDATASIZE SUB DUP2 ADD SWAP1 PUSH2 0x7B4 SWAP2 SWAP1 PUSH2 0x44C6 JUMP JUMPDEST PUSH2 0x1B85 JUMP JUMPDEST PUSH1 0x40 MLOAD PUSH2 0x7C6 SWAP2 SWAP1 PUSH2 0x3FBA JUMP JUMPDEST PUSH1 0x40 MLOAD DUP1 SWAP2 SUB SWAP1 RETURN JUMPDEST CALLVALUE DUP1 ISZERO PUSH2 0x7DA JUMPI PUSH0 DUP1 REVERT JUMPDEST POP PUSH2 0x7F5 PUSH1 0x4 DUP1 CALLDATASIZE SUB DUP2 ADD SWAP1 PUSH2 0x7F0 SWAP2 SWAP1 PUSH2 0x403F JUMP JUMPDEST PUSH2 0x1B9A JUMP JUMPDEST PUSH1 0x40 MLOAD PUSH2 0x802 SWAP2 SWAP1 PUSH2 0x436D JUMP JUMPDEST PUSH1 0x40 MLOAD DUP1 SWAP2 SUB SWAP1 RETURN JUMPDEST CALLVALUE DUP1 ISZERO PUSH2 0x816 JUMPI PUSH0 DUP1 REVERT JUMPDEST POP PUSH2 0x831 PUSH1 0x4 DUP1 CALLDATASIZE SUB DUP2 ADD SWAP1 PUSH2 0x82C SWAP2 SWAP1 PUSH2 0x44C6 JUMP JUMPDEST PUSH2 0x1BF5 JUMP JUMPDEST PUSH1 0x40 MLOAD PUSH2 0x83E SWAP2 SWAP1 PUSH2 0x3FBA JUMP JUMPDEST PUSH1 0x40 MLOAD DUP1 SWAP2 SUB SWAP1 RETURN JUMPDEST PUSH32 0x0 DUP2 JUMP JUMPDEST PUSH0 PUSH2 0x874 PUSH2 0x1C13 JUMP JUMPDEST PUSH0 ADD SLOAD SWAP1 POP SWAP1 JUMP JUMPDEST PUSH0 PUSH2 0x885 PUSH2 0x1C3A JUMP JUMPDEST SWAP1 POP PUSH0 DUP2 PUSH0 ADD PUSH1 0x8 SWAP1 SLOAD SWAP1 PUSH2 0x100 EXP SWAP1 DIV PUSH1 0xFF AND ISZERO SWAP1 POP PUSH0 DUP3 PUSH0 ADD PUSH0 SWAP1 SLOAD SWAP1 PUSH2 0x100 EXP SWAP1 DIV PUSH8 0xFFFFFFFFFFFFFFFF AND SWAP1 POP PUSH0 DUP1 DUP3 PUSH8 0xFFFFFFFFFFFFFFFF AND EQ DUP1 ISZERO PUSH2 0x8CD JUMPI POP DUP3 JUMPDEST SWAP1 POP PUSH0 PUSH1 0x1 DUP4 PUSH8 0xFFFFFFFFFFFFFFFF AND EQ DUP1 ISZERO PUSH2 0x900 JUMPI POP PUSH0 ADDRESS PUSH20 0xFFFFFFFFFFFFFFFFFFFFFFFFFFFFFFFFFFFFFFFF AND EXTCODESIZE EQ JUMPDEST SWAP1 POP DUP2 ISZERO DUP1 ISZERO PUSH2 0x90E JUMPI POP DUP1 ISZERO JUMPDEST ISZERO PUSH2 0x945 JUMPI PUSH1 0x40 MLOAD PUSH32 0xF92EE8A900000000000000000000000000000000000000000000000000000000 DUP2 MSTORE PUSH1 0x4 ADD PUSH1 0x40 MLOAD DUP1 SWAP2 SUB SWAP1 REVERT JUMPDEST PUSH1 0x1 DUP6 PUSH0 ADD PUSH0 PUSH2 0x100 EXP DUP2 SLOAD DUP2 PUSH8 0xFFFFFFFFFFFFFFFF MUL NOT AND SWAP1 DUP4 PUSH8 0xFFFFFFFFFFFFFFFF AND MUL OR SWAP1 SSTORE POP DUP4 ISZERO PUSH2 0x992 JUMPI PUSH1 0x1 DUP6 PUSH0 ADD PUSH1 0x8 PUSH2 0x100 EXP DUP2 SLOAD DUP2 PUSH1 0xFF MUL NOT AND SWAP1 DUP4 ISZERO ISZERO MUL OR SWAP1 SSTORE POP JUMPDEST PUSH2 0x99B DUP7 PUSH2 0x1C61 JUMP JUMPDEST PUSH2 0x9A3 PUSH2 0x1C75 JUMP JUMPDEST DUP4 ISZERO PUSH2 0x9FD JUMPI PUSH0 DUP6 PUSH0 ADD PUSH1 0x8 PUSH2 0x100 EXP DUP2 SLOAD DUP2 PUSH1 0xFF MUL NOT AND SWAP1 DUP4 ISZERO ISZERO MUL OR SWAP1 SSTORE POP PUSH32 0xC7F505B2F371AE2175EE4913F4499E1F2633A7B5936321EED1CDAEB6115181D2 PUSH1 0x1 PUSH1 0x40 MLOAD PUSH2 0x9F4 SWAP2 SWAP1 PUSH2 0x4815 JUMP JUMPDEST PUSH1 0x40 MLOAD DUP1 SWAP2 SUB SWAP1 LOG1 JUMPDEST POP POP POP POP POP POP JUMP JUMPDEST PUSH32 0x0 DUP2 JUMP JUMPDEST PUSH32 0x0 PUSH20 0xFFFFFFFFFFFFFFFFFFFFFFFFFFFFFFFFFFFFFFFF AND CALLER PUSH20 0xFFFFFFFFFFFFFFFFFFFFFFFFFFFFFFFFFFFFFFFF AND EQ PUSH2 0xAB9 JUMPI CALLER PUSH1 0x40 MLOAD PUSH32 0x658938D500000000000000000000000000000000000000000000000000000000 DUP2 MSTORE PUSH1 0x4 ADD PUSH2 0xAB0 SWAP2 SWAP1 PUSH2 0x3FBA JUMP JUMPDEST PUSH1 0x40 MLOAD DUP1 SWAP2 SUB SWAP1 REVERT JUMPDEST PUSH2 0xAC1 PUSH2 0x1C87 JUMP JUMPDEST PUSH0 PUSH20 0xFFFFFFFFFFFFFFFFFFFFFFFFFFFFFFFFFFFFFFFF AND DUP3 PUSH20 0xFFFFFFFFFFFFFFFFFFFFFFFFFFFFFFFFFFFFFFFF AND SUB PUSH2 0xB31 JUMPI DUP2 PUSH1 0x40 MLOAD PUSH32 0x865C825B00000000000000000000000000000000000000000000000000000000 DUP2 MSTORE PUSH1 0x4 ADD PUSH2 0xB28 SWAP2 SWAP1 PUSH2 0x3FBA JUMP JUMPDEST PUSH1 0x40 MLOAD DUP1 SWAP2 SUB SWAP1 REVERT JUMPDEST DUP1 PUSH2 0xB3A PUSH2 0x1CC8 JUMP JUMPDEST PUSH1 0x2 ADD PUSH0 DUP5 PUSH20 0xFFFFFFFFFFFFFFFFFFFFFFFFFFFFFFFFFFFFFFFF AND PUSH20 0xFFFFFFFFFFFFFFFFFFFFFFFFFFFFFFFFFFFFFFFF AND DUP2 MSTORE PUSH1 0x20 ADD SWAP1 DUP2 MSTORE PUSH1 0x20 ADD PUSH0 KECCAK256 PUSH0 PUSH2 0x100 EXP DUP2 SLOAD DUP2 PUSH1 0xFF MUL NOT AND SWAP1 DUP4 ISZERO ISZERO MUL OR SWAP1 SSTORE POP POP POP JUMP JUMPDEST PUSH0 PUSH2 0xB9B PUSH2 0x1CC8 JUMP JUMPDEST PUSH1 0x1 ADD PUSH0 DUP4 PUSH20 0xFFFFFFFFFFFFFFFFFFFFFFFFFFFFFFFFFFFFFFFF AND PUSH20 0xFFFFFFFFFFFFFFFFFFFFFFFFFFFFFFFFFFFFFFFF AND DUP2 MSTORE PUSH1 0x20 ADD SWAP1 DUP2 MSTORE PUSH1 0x20 ADD PUSH0 KECCAK256 PUSH0 SWAP1 SLOAD SWAP1 PUSH2 0x100 EXP SWAP1 DIV PUSH20 0xFFFFFFFFFFFFFFFFFFFFFFFFFFFFFFFFFFFFFFFF AND SWAP1 POP SWAP2 SWAP1 POP JUMP JUMPDEST PUSH0 PUSH2 0xC09 PUSH2 0x1C13 JUMP JUMPDEST PUSH1 0x1 ADD PUSH0 SWAP1 SLOAD SWAP1 PUSH2 0x100 EXP SWAP1 DIV PUSH20 0xFFFFFFFFFFFFFFFFFFFFFFFFFFFFFFFFFFFFFFFF AND SWAP1 POP SWAP1 JUMP JUMPDEST PUSH2 0xC49 PUSH2 0xC3C PUSH2 0x1CEF JUMP JUMPDEST PUSH2 0xC44 PUSH2 0x1CF6 JUMP JUMPDEST PUSH2 0x1D02 JUMP JUMPDEST PUSH2 0xC51 PUSH2 0x1E49 JUMP JUMPDEST JUMP JUMPDEST PUSH32 0x0 PUSH20 0xFFFFFFFFFFFFFFFFFFFFFFFFFFFFFFFFFFFFFFFF AND CALLER PUSH20 0xFFFFFFFFFFFFFFFFFFFFFFFFFFFFFFFFFFFFFFFF AND EQ PUSH2 0xCE3 JUMPI CALLER PUSH1 0x40 MLOAD PUSH32 0x658938D500000000000000000000000000000000000000000000000000000000 DUP2 MSTORE PUSH1 0x4 ADD PUSH2 0xCDA SWAP2 SWAP1 PUSH2 0x3FBA JUMP JUMPDEST PUSH1 0x40 MLOAD DUP1 SWAP2 SUB SWAP1 REVERT JUMPDEST PUSH2 0xCEB PUSH2 0x1C87 JUMP JUMPDEST PUSH2 0xCF4 DUP4 PUSH2 0x1EB7 JUMP JUMPDEST PUSH2 0xD35 JUMPI DUP3 PUSH1 0x40 MLOAD PUSH32 0xA2A8CF1B00000000000000000000000000000000000000000000000000000000 DUP2 MSTORE PUSH1 0x4 ADD PUSH2 0xD2C SWAP2 SWAP1 PUSH2 0x3FBA JUMP JUMPDEST PUSH1 0x40 MLOAD DUP1 SWAP2 SUB SWAP1 REVERT JUMPDEST PUSH0 PUSH2 0xD3E PUSH2 0x1CC8 JUMP JUMPDEST SWAP1 POP PUSH0 DUP2 PUSH0 ADD PUSH0 DUP7 PUSH20 0xFFFFFFFFFFFFFFFFFFFFFFFFFFFFFFFFFFFFFFFF AND PUSH20 0xFFFFFFFFFFFFFFFFFFFFFFFFFFFFFFFFFFFFFFFF AND DUP2 MSTORE PUSH1 0x20 ADD SWAP1 DUP2 MSTORE PUSH1 0x20 ADD PUSH0 KECCAK256 SWAP1 POP PUSH0 JUMPDEST DUP5 DUP5 SWAP1 POP DUP2 LT ISZERO PUSH2 0xE6E JUMPI PUSH2 0xDBE DUP6 DUP6 DUP4 DUP2 DUP2 LT PUSH2 0xDA4 JUMPI PUSH2 0xDA3 PUSH2 0x482E JUMP JUMPDEST JUMPDEST SWAP1 POP PUSH1 0x20 MUL ADD PUSH1 0x20 DUP2 ADD SWAP1 PUSH2 0xDB9 SWAP2 SWAP1 PUSH2 0x403F JUMP JUMPDEST PUSH2 0x1F1E JUMP JUMPDEST PUSH2 0xE26 JUMPI DUP5 DUP5 DUP3 DUP2 DUP2 LT PUSH2 0xDD5 JUMPI PUSH2 0xDD4 PUSH2 0x482E JUMP JUMPDEST JUMPDEST SWAP1 POP PUSH1 0x20 MUL ADD PUSH1 0x20 DUP2 ADD SWAP1 PUSH2 0xDEA SWAP2 SWAP1 PUSH2 0x403F JUMP JUMPDEST PUSH1 0x40 MLOAD PUSH32 0x6951FB0000000000000000000000000000000000000000000000000000000000 DUP2 MSTORE PUSH1 0x4 ADD PUSH2 0xE1D SWAP2 SWAP1 PUSH2 0x3FBA JUMP JUMPDEST PUSH1 0x40 MLOAD DUP1 SWAP2 SUB SWAP1 REVERT JUMPDEST PUSH2 0xE60 DUP6 DUP6 DUP4 DUP2 DUP2 LT PUSH2 0xE3C JUMPI PUSH2 0xE3B PUSH2 0x482E JUMP JUMPDEST JUMPDEST SWAP1 POP PUSH1 0x20 MUL ADD PUSH1 0x20 DUP2 ADD SWAP1 PUSH2 0xE51 SWAP2 SWAP1 PUSH2 0x403F JUMP JUMPDEST DUP4 PUSH2 0x20CC SWAP1 SWAP2 SWAP1 PUSH4 0xFFFFFFFF AND JUMP JUMPDEST POP DUP1 DUP1 PUSH1 0x1 ADD SWAP2 POP POP PUSH2 0xD83 JUMP JUMPDEST POP POP POP POP POP POP JUMP JUMPDEST PUSH2 0xE7E PUSH2 0x20F9 JUMP JUMPDEST PUSH2 0xE87 DUP3 PUSH2 0x21DF JUMP JUMPDEST PUSH2 0xE91 DUP3 DUP3 PUSH2 0x21FA JUMP JUMPDEST POP POP JUMP JUMPDEST PUSH0 PUSH2 0xE9F DUP3 PUSH2 0x1F1E JUMP JUMPDEST PUSH2 0xEAB JUMPI PUSH0 SWAP1 POP PUSH2 0xEF7 JUMP JUMPDEST PUSH2 0xEF4 PUSH32 0x47524F55505F4950410000000000000000000000000000000000000000000000 DUP4 PUSH20 0xFFFFFFFFFFFFFFFFFFFFFFFFFFFFFFFFFFFFFFFF AND PUSH2 0x2318 SWAP1 SWAP2 SWAP1 PUSH4 0xFFFFFFFF AND JUMP JUMPDEST SWAP1 POP JUMPDEST SWAP2 SWAP1 POP JUMP JUMPDEST PUSH0 PUSH2 0xF05 PUSH2 0x239E JUMP JUMPDEST PUSH32 0x360894A13BA1A3210667C828492DB98DCA3E2076CC3735A920A3CA505D382BBC PUSH0 SHL SWAP1 POP SWAP1 JUMP JUMPDEST PUSH32 0x0 DUP2 JUMP JUMPDEST PUSH0 PUSH2 0xF5A PUSH2 0x2425 JUMP JUMPDEST SWAP1 POP SWAP1 JUMP JUMPDEST PUSH32 0x0 DUP2 JUMP JUMPDEST PUSH0 PUSH32 0x0 PUSH20 0xFFFFFFFFFFFFFFFFFFFFFFFFFFFFFFFFFFFFFFFF AND CALLER PUSH20 0xFFFFFFFFFFFFFFFFFFFFFFFFFFFFFFFFFFFFFFFF AND EQ PUSH2 0x1014 JUMPI CALLER PUSH1 0x40 MLOAD PUSH32 0x658938D500000000000000000000000000000000000000000000000000000000 DUP2 MSTORE PUSH1 0x4 ADD PUSH2 0x100B SWAP2 SWAP1 PUSH2 0x3FBA JUMP JUMPDEST PUSH1 0x40 MLOAD DUP1 SWAP2 SUB SWAP1 REVERT JUMPDEST PUSH2 0x101C PUSH2 0x1C87 JUMP JUMPDEST PUSH2 0x1028 CHAINID DUP7 DUP7 DUP6 PUSH2 0x2447 JUMP JUMPDEST SWAP1 POP PUSH2 0x1076 PUSH32 0x47524F55505F4950410000000000000000000000000000000000000000000000 PUSH1 0x1 DUP4 PUSH20 0xFFFFFFFFFFFFFFFFFFFFFFFFFFFFFFFFFFFFFFFF AND PUSH2 0x276D SWAP1 SWAP3 SWAP2 SWAP1 PUSH4 0xFFFFFFFF AND JUMP JUMPDEST PUSH0 PUSH2 0x107F PUSH2 0x1CC8 JUMP JUMPDEST SWAP1 POP DUP1 PUSH1 0x2 ADD PUSH0 DUP6 PUSH20 0xFFFFFFFFFFFFFFFFFFFFFFFFFFFFFFFFFFFFFFFF AND PUSH20 0xFFFFFFFFFFFFFFFFFFFFFFFFFFFFFFFFFFFFFFFF AND DUP2 MSTORE PUSH1 0x20 ADD SWAP1 DUP2 MSTORE PUSH1 0x20 ADD PUSH0 KECCAK256 PUSH0 SWAP1 SLOAD SWAP1 PUSH2 0x100 EXP SWAP1 DIV PUSH1 0xFF AND PUSH2 0x110E JUMPI DUP4 PUSH1 0x40 MLOAD PUSH32 0x1B53453300000000000000000000000000000000000000000000000000000000 DUP2 MSTORE PUSH1 0x4 ADD PUSH2 0x1105 SWAP2 SWAP1 PUSH2 0x3FBA JUMP JUMPDEST PUSH1 0x40 MLOAD DUP1 SWAP2 SUB SWAP1 REVERT JUMPDEST DUP4 DUP2 PUSH1 0x1 ADD PUSH0 DUP5 PUSH20 0xFFFFFFFFFFFFFFFFFFFFFFFFFFFFFFFFFFFFFFFF AND PUSH20 0xFFFFFFFFFFFFFFFFFFFFFFFFFFFFFFFFFFFFFFFF AND DUP2 MSTORE PUSH1 0x20 ADD SWAP1 DUP2 MSTORE PUSH1 0x20 ADD PUSH0 KECCAK256 PUSH0 PUSH2 0x100 EXP DUP2 SLOAD DUP2 PUSH20 0xFFFFFFFFFFFFFFFFFFFFFFFFFFFFFFFFFFFFFFFF MUL NOT AND SWAP1 DUP4 PUSH20 0xFFFFFFFFFFFFFFFFFFFFFFFFFFFFFFFFFFFFFFFF AND MUL OR SWAP1 SSTORE POP POP SWAP5 SWAP4 POP POP POP POP JUMP JUMPDEST PUSH0 PUSH2 0x119D PUSH2 0x1CEF JUMP JUMPDEST SWAP1 POP PUSH2 0x11A7 PUSH2 0x1920 JUMP JUMPDEST PUSH20 0xFFFFFFFFFFFFFFFFFFFFFFFFFFFFFFFFFFFFFFFF AND DUP2 PUSH20 0xFFFFFFFFFFFFFFFFFFFFFFFFFFFFFFFFFFFFFFFF AND EQ PUSH2 0x1216 JUMPI DUP1 PUSH1 0x40 MLOAD PUSH32 0x68CA9D800000000000000000000000000000000000000000000000000000000 DUP2 MSTORE PUSH1 0x4 ADD PUSH2 0x120D SWAP2 SWAP1 PUSH2 0x3FBA JUMP JUMPDEST PUSH1 0x40 MLOAD DUP1 SWAP2 SUB SWAP1 REVERT JUMPDEST PUSH0 DUP3 PUSH20 0xFFFFFFFFFFFFFFFFFFFFFFFFFFFFFFFFFFFFFFFF AND EXTCODESIZE SUB PUSH2 0x1271 JUMPI DUP2 PUSH1 0x40 MLOAD PUSH32 0xC2F31E5E00000000000000000000000000000000000000000000000000000000 DUP2 MSTORE PUSH1 0x4 ADD PUSH2 0x1268 SWAP2 SWAP1 PUSH2 0x3FBA JUMP JUMPDEST PUSH1 0x40 MLOAD DUP1 SWAP2 SUB SWAP1 REVERT JUMPDEST PUSH2 0x127A DUP3 PUSH2 0x27EB JUMP JUMPDEST POP POP JUMP JUMPDEST PUSH0 PUSH2 0x12D6 DUP3 PUSH2 0x128B PUSH2 0x1CC8 JUMP JUMPDEST PUSH0 ADD PUSH0 DUP7 PUSH20 0xFFFFFFFFFFFFFFFFFFFFFFFFFFFFFFFFFFFFFFFF AND PUSH20 0xFFFFFFFFFFFFFFFFFFFFFFFFFFFFFFFFFFFFFFFF AND DUP2 MSTORE PUSH1 0x20 ADD SWAP1 DUP2 MSTORE PUSH1 0x20 ADD PUSH0 KECCAK256 PUSH2 0x2872 SWAP1 SWAP2 SWAP1 PUSH4 0xFFFFFFFF AND JUMP JUMPDEST SWAP1 POP SWAP3 SWAP2 POP POP JUMP JUMPDEST PUSH32 0x0 PUSH20 0xFFFFFFFFFFFFFFFFFFFFFFFFFFFFFFFFFFFFFFFF AND CALLER PUSH20 0xFFFFFFFFFFFFFFFFFFFFFFFFFFFFFFFFFFFFFFFF AND EQ PUSH2 0x136E JUMPI CALLER PUSH1 0x40 MLOAD PUSH32 0x658938D500000000000000000000000000000000000000000000000000000000 DUP2 MSTORE PUSH1 0x4 ADD PUSH2 0x1365 SWAP2 SWAP1 PUSH2 0x3FBA JUMP JUMPDEST PUSH1 0x40 MLOAD DUP1 SWAP2 SUB SWAP1 REVERT JUMPDEST PUSH2 0x1376 PUSH2 0x1C87 JUMP JUMPDEST PUSH2 0x137F DUP4 PUSH2 0x1EB7 JUMP JUMPDEST PUSH2 0x13C0 JUMPI DUP3 PUSH1 0x40 MLOAD PUSH32 0xA2A8CF1B00000000000000000000000000000000000000000000000000000000 DUP2 MSTORE PUSH1 0x4 ADD PUSH2 0x13B7 SWAP2 SWAP1 PUSH2 0x3FBA JUMP JUMPDEST PUSH1 0x40 MLOAD DUP1 SWAP2 SUB SWAP1 REVERT JUMPDEST PUSH0 PUSH2 0x13C9 PUSH2 0x1CC8 JUMP JUMPDEST SWAP1 POP PUSH0 DUP2 PUSH0 ADD PUSH0 DUP7 PUSH20 0xFFFFFFFFFFFFFFFFFFFFFFFFFFFFFFFFFFFFFFFF AND PUSH20 0xFFFFFFFFFFFFFFFFFFFFFFFFFFFFFFFFFFFFFFFF AND DUP2 MSTORE PUSH1 0x20 ADD SWAP1 DUP2 MSTORE PUSH1 0x20 ADD PUSH0 KECCAK256 SWAP1 POP PUSH0 JUMPDEST DUP5 DUP5 SWAP1 POP DUP2 LT ISZERO PUSH2 0x1461 JUMPI PUSH2 0x1453 DUP6 DUP6 DUP4 DUP2 DUP2 LT PUSH2 0x142F JUMPI PUSH2 0x142E PUSH2 0x482E JUMP JUMPDEST JUMPDEST SWAP1 POP PUSH1 0x20 MUL ADD PUSH1 0x20 DUP2 ADD SWAP1 PUSH2 0x1444 SWAP2 SWAP1 PUSH2 0x403F JUMP JUMPDEST DUP4 PUSH2 0x289F SWAP1 SWAP2 SWAP1 PUSH4 0xFFFFFFFF AND JUMP JUMPDEST POP DUP1 DUP1 PUSH1 0x1 ADD SWAP2 POP POP PUSH2 0x140E JUMP JUMPDEST POP POP POP POP POP POP JUMP JUMPDEST PUSH2 0x1481 PUSH2 0x1474 PUSH2 0x1CEF JUMP JUMPDEST PUSH2 0x147C PUSH2 0x1CF6 JUMP JUMPDEST PUSH2 0x1D02 JUMP JUMPDEST PUSH2 0x1489 PUSH2 0x28CC JUMP JUMPDEST JUMP JUMPDEST PUSH0 PUSH2 0x1497 DUP5 DUP5 DUP5 PUSH2 0x293B JUMP JUMPDEST SWAP1 POP SWAP4 SWAP3 POP POP POP JUMP JUMPDEST PUSH0 DUP1 PUSH2 0x14AA PUSH2 0x2A25 JUMP JUMPDEST SWAP1 POP DUP1 PUSH0 ADD PUSH1 0x14 SWAP1 SLOAD SWAP1 PUSH2 0x100 EXP SWAP1 DIV PUSH1 0xFF AND PUSH2 0x14CA JUMPI PUSH0 PUSH1 0xE0 SHL PUSH2 0x14D3 JUMP JUMPDEST PUSH4 0x8FB36037 PUSH1 0xE0 SHL JUMPDEST SWAP2 POP POP SWAP1 JUMP JUMPDEST PUSH0 PUSH32 0x0 SWAP1 POP SWAP1 JUMP JUMPDEST PUSH0 PUSH2 0x154E PUSH2 0x150C PUSH2 0x1CC8 JUMP JUMPDEST PUSH0 ADD PUSH0 DUP5 PUSH20 0xFFFFFFFFFFFFFFFFFFFFFFFFFFFFFFFFFFFFFFFF AND PUSH20 0xFFFFFFFFFFFFFFFFFFFFFFFFFFFFFFFFFFFFFFFF AND DUP2 MSTORE PUSH1 0x20 ADD SWAP1 DUP2 MSTORE PUSH1 0x20 ADD PUSH0 KECCAK256 PUSH2 0x2A4C JUMP JUMPDEST SWAP1 POP SWAP2 SWAP1 POP JUMP JUMPDEST PUSH2 0x156D PUSH2 0x1560 PUSH2 0x1CEF JUMP JUMPDEST PUSH2 0x1568 PUSH2 0x1CF6 JUMP JUMPDEST PUSH2 0x1D02 JUMP JUMPDEST PUSH0 DUP2 PUSH12 0xFFFFFFFFFFFFFFFFFFFFFFFF AND GT ISZERO PUSH2 0x1660 JUMPI PUSH0 PUSH20 0xFFFFFFFFFFFFFFFFFFFFFFFFFFFFFFFFFFFFFFFF AND DUP4 PUSH20 0xFFFFFFFFFFFFFFFFFFFFFFFFFFFFFFFFFFFFFFFF AND SUB PUSH2 0x15F1 JUMPI PUSH1 0x40 MLOAD PUSH32 0x6CB3C17A00000000000000000000000000000000000000000000000000000000 DUP2 MSTORE PUSH1 0x4 ADD PUSH2 0x15E8 SWAP1 PUSH2 0x48A5 JUMP JUMPDEST PUSH1 0x40 MLOAD DUP1 SWAP2 SUB SWAP1 REVERT JUMPDEST PUSH0 PUSH20 0xFFFFFFFFFFFFFFFFFFFFFFFFFFFFFFFFFFFFFFFF AND DUP3 PUSH20 0xFFFFFFFFFFFFFFFFFFFFFFFFFFFFFFFFFFFFFFFF AND SUB PUSH2 0x165F JUMPI PUSH1 0x40 MLOAD PUSH32 0x6CB3C17A00000000000000000000000000000000000000000000000000000000 DUP2 MSTORE PUSH1 0x4 ADD PUSH2 0x1656 SWAP1 PUSH2 0x490D JUMP JUMPDEST PUSH1 0x40 MLOAD DUP1 SWAP2 SUB SWAP1 REVERT JUMPDEST JUMPDEST PUSH0 PUSH2 0x1669 PUSH2 0x1C13 JUMP JUMPDEST SWAP1 POP DUP3 DUP2 PUSH1 0x2 ADD PUSH0 PUSH2 0x100 EXP DUP2 SLOAD DUP2 PUSH20 0xFFFFFFFFFFFFFFFFFFFFFFFFFFFFFFFFFFFFFFFF MUL NOT AND SWAP1 DUP4 PUSH20 0xFFFFFFFFFFFFFFFFFFFFFFFFFFFFFFFFFFFFFFFF AND MUL OR SWAP1 SSTORE POP DUP2 DUP2 PUSH1 0x2 ADD PUSH1 0x14 PUSH2 0x100 EXP DUP2 SLOAD DUP2 PUSH12 0xFFFFFFFFFFFFFFFFFFFFFFFF MUL NOT AND SWAP1 DUP4 PUSH12 0xFFFFFFFFFFFFFFFFFFFFFFFF AND MUL OR SWAP1 SSTORE POP DUP4 DUP2 PUSH1 0x1 ADD PUSH0 PUSH2 0x100 EXP DUP2 SLOAD DUP2 PUSH20 0xFFFFFFFFFFFFFFFFFFFFFFFFFFFFFFFFFFFFFFFF MUL NOT AND SWAP1 DUP4 PUSH20 0xFFFFFFFFFFFFFFFFFFFFFFFFFFFFFFFFFFFFFFFF AND MUL OR SWAP1 SSTORE POP DUP3 PUSH20 0xFFFFFFFFFFFFFFFFFFFFFFFFFFFFFFFFFFFFFFFF AND DUP5 PUSH20 0xFFFFFFFFFFFFFFFFFFFFFFFFFFFFFFFFFFFFFFFF AND PUSH32 0x959C9A8D4D770A82475A59E1E7380CA97FF98D35574E5959F98E3EAFB28EE9B2 DUP5 PUSH1 0x40 MLOAD PUSH2 0x177F SWAP2 SWAP1 PUSH2 0x47B0 JUMP JUMPDEST PUSH1 0x40 MLOAD DUP1 SWAP2 SUB SWAP1 LOG3 POP POP POP POP JUMP JUMPDEST PUSH1 0x40 MLOAD DUP1 PUSH1 0x40 ADD PUSH1 0x40 MSTORE DUP1 PUSH1 0x5 DUP2 MSTORE PUSH1 0x20 ADD PUSH32 0x352E302E30000000000000000000000000000000000000000000000000000000 DUP2 MSTORE POP DUP2 JUMP JUMPDEST PUSH1 0x60 PUSH0 PUSH2 0x17D1 PUSH2 0x1CC8 JUMP JUMPDEST PUSH0 ADD PUSH0 DUP7 PUSH20 0xFFFFFFFFFFFFFFFFFFFFFFFFFFFFFFFFFFFFFFFF AND PUSH20 0xFFFFFFFFFFFFFFFFFFFFFFFFFFFFFFFFFFFFFFFF AND DUP2 MSTORE PUSH1 0x20 ADD SWAP1 DUP2 MSTORE PUSH1 0x20 ADD PUSH0 KECCAK256 SWAP1 POP PUSH0 PUSH2 0x181A DUP3 PUSH2 0x2A4C JUMP JUMPDEST SWAP1 POP DUP1 DUP6 LT PUSH2 0x182A JUMPI POP POP PUSH2 0x18EF JUMP JUMPDEST PUSH0 DUP2 DUP6 DUP8 PUSH2 0x1838 SWAP2 SWAP1 PUSH2 0x4958 JUMP JUMPDEST GT PUSH2 0x1843 JUMPI DUP5 PUSH2 0x1866 JUMP JUMPDEST DUP2 DUP6 DUP8 PUSH2 0x1850 SWAP2 SWAP1 PUSH2 0x4958 JUMP JUMPDEST PUSH2 0x185A SWAP2 SWAP1 PUSH2 0x498B JUMP JUMPDEST DUP6 PUSH2 0x1865 SWAP2 SWAP1 PUSH2 0x498B JUMP JUMPDEST JUMPDEST SWAP1 POP PUSH0 JUMPDEST DUP2 DUP2 LT ISZERO PUSH2 0x18EA JUMPI PUSH2 0x1890 DUP2 DUP9 PUSH2 0x1881 SWAP2 SWAP1 PUSH2 0x4958 JUMP JUMPDEST DUP6 PUSH2 0x2A5F SWAP1 SWAP2 SWAP1 PUSH4 0xFFFFFFFF AND JUMP JUMPDEST DUP6 DUP3 DUP2 MLOAD DUP2 LT PUSH2 0x18A3 JUMPI PUSH2 0x18A2 PUSH2 0x482E JUMP JUMPDEST JUMPDEST PUSH1 0x20 MUL PUSH1 0x20 ADD ADD SWAP1 PUSH20 0xFFFFFFFFFFFFFFFFFFFFFFFFFFFFFFFFFFFFFFFF AND SWAP1 DUP2 PUSH20 0xFFFFFFFFFFFFFFFFFFFFFFFFFFFFFFFFFFFFFFFF AND DUP2 MSTORE POP POP DUP1 DUP1 PUSH1 0x1 ADD SWAP2 POP POP PUSH2 0x186A JUMP JUMPDEST POP POP POP POP JUMPDEST SWAP4 SWAP3 POP POP POP JUMP JUMPDEST PUSH0 PUSH2 0x18FF PUSH2 0x1C13 JUMP JUMPDEST PUSH1 0x2 ADD PUSH1 0x14 SWAP1 SLOAD SWAP1 PUSH2 0x100 EXP SWAP1 DIV PUSH12 0xFFFFFFFFFFFFFFFFFFFFFFFF AND SWAP1 POP SWAP1 JUMP JUMPDEST PUSH0 DUP1 PUSH2 0x192A PUSH2 0x2A25 JUMP JUMPDEST SWAP1 POP DUP1 PUSH0 ADD PUSH0 SWAP1 SLOAD SWAP1 PUSH2 0x100 EXP SWAP1 DIV PUSH20 0xFFFFFFFFFFFFFFFFFFFFFFFFFFFFFFFFFFFFFFFF AND SWAP2 POP POP SWAP1 JUMP JUMPDEST PUSH0 PUSH2 0x195F DUP3 PUSH2 0x1F1E JUMP JUMPDEST SWAP1 POP SWAP2 SWAP1 POP JUMP JUMPDEST PUSH0 PUSH2 0x196F PUSH2 0x1C3A JUMP JUMPDEST SWAP1 POP PUSH0 DUP2 PUSH0 ADD PUSH1 0x8 SWAP1 SLOAD SWAP1 PUSH2 0x100 EXP SWAP1 DIV PUSH1 0xFF AND ISZERO SWAP1 POP PUSH0 DUP3 PUSH0 ADD PUSH0 SWAP1 SLOAD SWAP1 PUSH2 0x100 EXP SWAP1 DIV PUSH8 0xFFFFFFFFFFFFFFFF AND SWAP1 POP PUSH0 DUP1 DUP3 PUSH8 0xFFFFFFFFFFFFFFFF AND EQ DUP1 ISZERO PUSH2 0x19B7 JUMPI POP DUP3 JUMPDEST SWAP1 POP PUSH0 PUSH1 0x1 DUP4 PUSH8 0xFFFFFFFFFFFFFFFF AND EQ DUP1 ISZERO PUSH2 0x19EA JUMPI POP PUSH0 ADDRESS PUSH20 0xFFFFFFFFFFFFFFFFFFFFFFFFFFFFFFFFFFFFFFFF AND EXTCODESIZE EQ JUMPDEST SWAP1 POP DUP2 ISZERO DUP1 ISZERO PUSH2 0x19F8 JUMPI POP DUP1 ISZERO JUMPDEST ISZERO PUSH2 0x1A2F JUMPI PUSH1 0x40 MLOAD PUSH32 0xF92EE8A900000000000000000000000000000000000000000000000000000000 DUP2 MSTORE PUSH1 0x4 ADD PUSH1 0x40 MLOAD DUP1 SWAP2 SUB SWAP1 REVERT JUMPDEST PUSH1 0x1 DUP6 PUSH0 ADD PUSH0 PUSH2 0x100 EXP DUP2 SLOAD DUP2 PUSH8 0xFFFFFFFFFFFFFFFF MUL NOT AND SWAP1 DUP4 PUSH8 0xFFFFFFFFFFFFFFFF AND MUL OR SWAP1 SSTORE POP DUP4 ISZERO PUSH2 0x1A7C JUMPI PUSH1 0x1 DUP6 PUSH0 ADD PUSH1 0x8 PUSH2 0x100 EXP DUP2 SLOAD DUP2 PUSH1 0xFF MUL NOT AND SWAP1 DUP4 ISZERO ISZERO MUL OR SWAP1 SSTORE POP JUMPDEST PUSH0 PUSH20 0xFFFFFFFFFFFFFFFFFFFFFFFFFFFFFFFFFFFFFFFF AND DUP7 PUSH20 0xFFFFFFFFFFFFFFFFFFFFFFFFFFFFFFFFFFFFFFFF AND SUB PUSH2 0x1AE1 JUMPI PUSH1 0x40 MLOAD PUSH32 0xB40F363000000000000000000000000000000000000000000000000000000000 DUP2 MSTORE PUSH1 0x4 ADD PUSH1 0x40 MLOAD DUP1 SWAP2 SUB SWAP1 REVERT JUMPDEST PUSH2 0x1AEA DUP7 PUSH2 0x87C JUMP JUMPDEST PUSH2 0x1AF2 PUSH2 0x2A76 JUMP JUMPDEST DUP4 ISZERO PUSH2 0x1B4C JUMPI PUSH0 DUP6 PUSH0 ADD PUSH1 0x8 PUSH2 0x100 EXP DUP2 SLOAD DUP2 PUSH1 0xFF MUL NOT AND SWAP1 DUP4 ISZERO ISZERO MUL OR SWAP1 SSTORE POP PUSH32 0xC7F505B2F371AE2175EE4913F4499E1F2633A7B5936321EED1CDAEB6115181D2 PUSH1 0x1 PUSH1 0x40 MLOAD PUSH2 0x1B43 SWAP2 SWAP1 PUSH2 0x4815 JUMP JUMPDEST PUSH1 0x40 MLOAD DUP1 SWAP2 SUB SWAP1 LOG1 JUMPDEST POP POP POP POP POP POP JUMP JUMPDEST PUSH0 PUSH2 0x1B5D PUSH2 0x1C13 JUMP JUMPDEST PUSH1 0x2 ADD PUSH0 SWAP1 SLOAD SWAP1 PUSH2 0x100 EXP SWAP1 DIV PUSH20 0xFFFFFFFFFFFFFFFFFFFFFFFFFFFFFFFFFFFFFFFF AND SWAP1 POP SWAP1 JUMP JUMPDEST PUSH0 PUSH2 0x1B91 DUP5 DUP5 DUP5 PUSH2 0x148B JUMP JUMPDEST SWAP1 POP SWAP4 SWAP3 POP POP POP JUMP JUMPDEST PUSH0 PUSH2 0x1BA3 PUSH2 0x1CC8 JUMP JUMPDEST PUSH1 0x2 ADD PUSH0 DUP4 PUSH20 0xFFFFFFFFFFFFFFFFFFFFFFFFFFFFFFFFFFFFFFFF AND PUSH20 0xFFFFFFFFFFFFFFFFFFFFFFFFFFFFFFFFFFFFFFFF AND DUP2 MSTORE PUSH1 0x20 ADD SWAP1 DUP2 MSTORE PUSH1 0x20 ADD PUSH0 KECCAK256 PUSH0 SWAP1 SLOAD SWAP1 PUSH2 0x100 EXP SWAP1 DIV PUSH1 0xFF AND SWAP1 POP SWAP2 SWAP1 POP JUMP JUMPDEST PUSH0 PUSH2 0x1BFE PUSH2 0x1C87 JUMP JUMPDEST PUSH2 0x1C0A DUP5 DUP5 DUP5 CALLER PUSH2 0x2447 JUMP JUMPDEST SWAP1 POP SWAP4 SWAP3 POP POP POP JUMP JUMPDEST PUSH0 PUSH32 0x987C61809AF5A42943ABD137C7ACFF8426AAB6F7A1F5C967A03D1D718BA5CF00 SWAP1 POP SWAP1 JUMP JUMPDEST PUSH0 PUSH32 0xF0C57E16840DF040F15088DC2F81FE391C3923BEC73E23A9662EFC9C229C6A00 SWAP1 POP SWAP1 JUMP JUMPDEST PUSH2 0x1C69 PUSH2 0x2A80 JUMP JUMPDEST PUSH2 0x1C72 DUP2 PUSH2 0x2AC0 JUMP JUMPDEST POP JUMP JUMPDEST PUSH2 0x1C7D PUSH2 0x2A80 JUMP JUMPDEST PUSH2 0x1C85 PUSH2 0x2AD4 JUMP JUMPDEST JUMP JUMPDEST PUSH2 0x1C8F PUSH2 0xF51 JUMP JUMPDEST ISZERO PUSH2 0x1CC6 JUMPI PUSH1 0x40 MLOAD PUSH32 0xD93C066500000000000000000000000000000000000000000000000000000000 DUP2 MSTORE PUSH1 0x4 ADD PUSH1 0x40 MLOAD DUP1 SWAP2 SUB SWAP1 REVERT JUMPDEST JUMP JUMPDEST PUSH0 PUSH32 0x34C89140582AD641FA679F955C67D1A82028BEF0953ADE7C28B8194CF080D600 SWAP1 POP SWAP1 JUMP JUMPDEST PUSH0 CALLER SWAP1 POP SWAP1 JUMP JUMPDEST CALLDATASIZE PUSH0 DUP1 CALLDATASIZE SWAP2 POP SWAP2 POP SWAP1 SWAP2 JUMP JUMPDEST PUSH0 PUSH2 0x1D0B PUSH2 0x2A25 JUMP JUMPDEST SWAP1 POP PUSH0 DUP1 PUSH2 0x1D3F PUSH2 0x1D1A PUSH2 0x1920 JUMP JUMPDEST DUP8 ADDRESS DUP9 DUP9 PUSH0 SWAP1 PUSH1 0x4 SWAP3 PUSH2 0x1D2F SWAP4 SWAP3 SWAP2 SWAP1 PUSH2 0x49C6 JUMP JUMPDEST SWAP1 PUSH2 0x1D3A SWAP2 SWAP1 PUSH2 0x4A16 JUMP JUMPDEST PUSH2 0x2B04 JUMP JUMPDEST SWAP2 POP SWAP2 POP DUP2 PUSH2 0x1E41 JUMPI PUSH0 DUP2 PUSH4 0xFFFFFFFF AND GT ISZERO PUSH2 0x1E03 JUMPI PUSH1 0x1 DUP4 PUSH0 ADD PUSH1 0x14 PUSH2 0x100 EXP DUP2 SLOAD DUP2 PUSH1 0xFF MUL NOT AND SWAP1 DUP4 ISZERO ISZERO MUL OR SWAP1 SSTORE POP PUSH2 0x1D7A PUSH2 0x1920 JUMP JUMPDEST PUSH20 0xFFFFFFFFFFFFFFFFFFFFFFFFFFFFFFFFFFFFFFFF AND PUSH4 0x94C7D7EE DUP8 DUP8 DUP8 PUSH1 0x40 MLOAD DUP5 PUSH4 0xFFFFFFFF AND PUSH1 0xE0 SHL DUP2 MSTORE PUSH1 0x4 ADD PUSH2 0x1DB6 SWAP4 SWAP3 SWAP2 SWAP1 PUSH2 0x4AB0 JUMP JUMPDEST PUSH0 PUSH1 0x40 MLOAD DUP1 DUP4 SUB DUP2 PUSH0 DUP8 DUP1 EXTCODESIZE ISZERO DUP1 ISZERO PUSH2 0x1DCD JUMPI PUSH0 DUP1 REVERT JUMPDEST POP GAS CALL ISZERO DUP1 ISZERO PUSH2 0x1DDF JUMPI RETURNDATASIZE PUSH0 DUP1 RETURNDATACOPY RETURNDATASIZE PUSH0 REVERT JUMPDEST POP POP POP POP PUSH0 DUP4 PUSH0 ADD PUSH1 0x14 PUSH2 0x100 EXP DUP2 SLOAD DUP2 PUSH1 0xFF MUL NOT AND SWAP1 DUP4 ISZERO ISZERO MUL OR SWAP1 SSTORE POP PUSH2 0x1E40 JUMP JUMPDEST DUP6 PUSH1 0x40 MLOAD PUSH32 0x68CA9D800000000000000000000000000000000000000000000000000000000 DUP2 MSTORE PUSH1 0x4 ADD PUSH2 0x1E37 SWAP2 SWAP1 PUSH2 0x3FBA JUMP JUMPDEST PUSH1 0x40 MLOAD DUP1 SWAP2 SUB SWAP1 REVERT JUMPDEST JUMPDEST POP POP POP POP POP POP JUMP JUMPDEST PUSH2 0x1E51 PUSH2 0x2C25 JUMP JUMPDEST PUSH0 PUSH2 0x1E5A PUSH2 0x2C65 JUMP JUMPDEST SWAP1 POP PUSH0 DUP2 PUSH0 ADD PUSH0 PUSH2 0x100 EXP DUP2 SLOAD DUP2 PUSH1 0xFF MUL NOT AND SWAP1 DUP4 ISZERO ISZERO MUL OR SWAP1 SSTORE POP PUSH32 0x5DB9EE0A495BF2E6FF9C91A7834C1BA4FDD244A5E8AA4E537BD38AEAE4B073AA PUSH2 0x1E9F PUSH2 0x1CEF JUMP JUMPDEST PUSH1 0x40 MLOAD PUSH2 0x1EAC SWAP2 SWAP1 PUSH2 0x3FBA JUMP JUMPDEST PUSH1 0x40 MLOAD DUP1 SWAP2 SUB SWAP1 LOG1 POP JUMP JUMPDEST PUSH0 PUSH2 0x1EC1 DUP3 PUSH2 0x1F1E JUMP JUMPDEST PUSH2 0x1ECD JUMPI PUSH0 SWAP1 POP PUSH2 0x1F19 JUMP JUMPDEST PUSH2 0x1F16 PUSH32 0x47524F55505F4950410000000000000000000000000000000000000000000000 DUP4 PUSH20 0xFFFFFFFFFFFFFFFFFFFFFFFFFFFFFFFFFFFFFFFF AND PUSH2 0x2318 SWAP1 SWAP2 SWAP1 PUSH4 0xFFFFFFFF AND JUMP JUMPDEST SWAP1 POP JUMPDEST SWAP2 SWAP1 POP JUMP JUMPDEST PUSH0 DUP1 PUSH20 0xFFFFFFFFFFFFFFFFFFFFFFFFFFFFFFFFFFFFFFFF AND DUP3 PUSH20 0xFFFFFFFFFFFFFFFFFFFFFFFFFFFFFFFFFFFFFFFF AND SUB PUSH2 0x1F5A JUMPI PUSH0 SWAP1 POP PUSH2 0x20C7 JUMP JUMPDEST PUSH0 DUP3 PUSH20 0xFFFFFFFFFFFFFFFFFFFFFFFFFFFFFFFFFFFFFFFF AND EXTCODESIZE SUB PUSH2 0x1F80 JUMPI PUSH0 SWAP1 POP PUSH2 0x20C7 JUMP JUMPDEST PUSH2 0x1FAA DUP3 PUSH32 0xEBE268B300000000000000000000000000000000000000000000000000000000 PUSH2 0x2C8C JUMP JUMPDEST PUSH2 0x1FB6 JUMPI PUSH0 SWAP1 POP PUSH2 0x20C7 JUMP JUMPDEST PUSH0 DUP1 PUSH0 DUP5 PUSH20 0xFFFFFFFFFFFFFFFFFFFFFFFFFFFFFFFFFFFFFFFF AND PUSH4 0xFC0C546A PUSH1 0x40 MLOAD DUP2 PUSH4 0xFFFFFFFF AND PUSH1 0xE0 SHL DUP2 MSTORE PUSH1 0x4 ADD PUSH1 0x60 PUSH1 0x40 MLOAD DUP1 DUP4 SUB DUP2 DUP7 GAS STATICCALL ISZERO DUP1 ISZERO PUSH2 0x2002 JUMPI RETURNDATASIZE PUSH0 DUP1 RETURNDATACOPY RETURNDATASIZE PUSH0 REVERT JUMPDEST POP POP POP POP PUSH1 0x40 MLOAD RETURNDATASIZE PUSH1 0x1F NOT PUSH1 0x1F DUP3 ADD AND DUP3 ADD DUP1 PUSH1 0x40 MSTORE POP DUP2 ADD SWAP1 PUSH2 0x2026 SWAP2 SWAP1 PUSH2 0x4B08 JUMP JUMPDEST SWAP3 POP SWAP3 POP SWAP3 POP PUSH2 0x2037 DUP4 DUP4 DUP4 PUSH2 0x148B JUMP JUMPDEST PUSH20 0xFFFFFFFFFFFFFFFFFFFFFFFFFFFFFFFFFFFFFFFF AND DUP6 PUSH20 0xFFFFFFFFFFFFFFFFFFFFFFFFFFFFFFFFFFFFFFFF AND EQ PUSH2 0x2074 JUMPI PUSH0 SWAP4 POP POP POP POP PUSH2 0x20C7 JUMP JUMPDEST PUSH0 PUSH2 0x20BE PUSH32 0x4E414D4500000000000000000000000000000000000000000000000000000000 DUP8 PUSH20 0xFFFFFFFFFFFFFFFFFFFFFFFFFFFFFFFFFFFFFFFF AND PUSH2 0x2CB0 SWAP1 SWAP2 SWAP1 PUSH4 0xFFFFFFFF AND JUMP JUMPDEST MLOAD EQ ISZERO SWAP4 POP POP POP POP JUMPDEST SWAP2 SWAP1 POP JUMP JUMPDEST PUSH0 PUSH2 0x20F1 DUP4 PUSH0 ADD DUP4 PUSH20 0xFFFFFFFFFFFFFFFFFFFFFFFFFFFFFFFFFFFFFFFF AND PUSH0 SHL PUSH2 0x2D35 JUMP JUMPDEST SWAP1 POP SWAP3 SWAP2 POP POP JUMP JUMPDEST PUSH32 0x0 PUSH20 0xFFFFFFFFFFFFFFFFFFFFFFFFFFFFFFFFFFFFFFFF AND ADDRESS PUSH20 0xFFFFFFFFFFFFFFFFFFFFFFFFFFFFFFFFFFFFFFFF AND EQ DUP1 PUSH2 0x21A6 JUMPI POP PUSH32 0x0 PUSH20 0xFFFFFFFFFFFFFFFFFFFFFFFFFFFFFFFFFFFFFFFF AND PUSH2 0x218D PUSH2 0x2D9C JUMP JUMPDEST PUSH20 0xFFFFFFFFFFFFFFFFFFFFFFFFFFFFFFFFFFFFFFFF AND EQ ISZERO JUMPDEST ISZERO PUSH2 0x21DD JUMPI PUSH1 0x40 MLOAD PUSH32 0xE07C8DBA00000000000000000000000000000000000000000000000000000000 DUP2 MSTORE PUSH1 0x4 ADD PUSH1 0x40 MLOAD DUP1 SWAP2 SUB SWAP1 REVERT JUMPDEST JUMP JUMPDEST PUSH2 0x21F7 PUSH2 0x21EA PUSH2 0x1CEF JUMP JUMPDEST PUSH2 0x21F2 PUSH2 0x1CF6 JUMP JUMPDEST PUSH2 0x1D02 JUMP JUMPDEST POP JUMP JUMPDEST DUP2 PUSH20 0xFFFFFFFFFFFFFFFFFFFFFFFFFFFFFFFFFFFFFFFF AND PUSH4 0x52D1902D PUSH1 0x40 MLOAD DUP2 PUSH4 0xFFFFFFFF AND PUSH1 0xE0 SHL DUP2 MSTORE PUSH1 0x4 ADD PUSH1 0x20 PUSH1 0x40 MLOAD DUP1 DUP4 SUB DUP2 DUP7 GAS STATICCALL SWAP3 POP POP POP DUP1 ISZERO PUSH2 0x2262 JUMPI POP PUSH1 0x40 MLOAD RETURNDATASIZE PUSH1 0x1F NOT PUSH1 0x1F DUP3 ADD AND DUP3 ADD DUP1 PUSH1 0x40 MSTORE POP DUP2 ADD SWAP1 PUSH2 0x225F SWAP2 SWAP1 PUSH2 0x4B82 JUMP JUMPDEST PUSH1 0x1 JUMPDEST PUSH2 0x22A3 JUMPI DUP2 PUSH1 0x40 MLOAD PUSH32 0x4C9C8CE300000000000000000000000000000000000000000000000000000000 DUP2 MSTORE PUSH1 0x4 ADD PUSH2 0x229A SWAP2 SWAP1 PUSH2 0x3FBA JUMP JUMPDEST PUSH1 0x40 MLOAD DUP1 SWAP2 SUB SWAP1 REVERT JUMPDEST PUSH32 0x360894A13BA1A3210667C828492DB98DCA3E2076CC3735A920A3CA505D382BBC PUSH0 SHL DUP2 EQ PUSH2 0x2309 JUMPI DUP1 PUSH1 0x40 MLOAD PUSH32 0xAA1D49A400000000000000000000000000000000000000000000000000000000 DUP2 MSTORE PUSH1 0x4 ADD PUSH2 0x2300 SWAP2 SWAP1 PUSH2 0x4082 JUMP JUMPDEST PUSH1 0x40 MLOAD DUP1 SWAP2 SUB SWAP1 REVERT JUMPDEST PUSH2 0x2313 DUP4 DUP4 PUSH2 0x2DEF JUMP JUMPDEST POP POP POP JUMP JUMPDEST PUSH0 DUP1 PUSH0 SHL DUP4 PUSH20 0xFFFFFFFFFFFFFFFFFFFFFFFFFFFFFFFFFFFFFFFF AND PUSH4 0xA6ED563E DUP5 PUSH1 0x40 MLOAD DUP3 PUSH4 0xFFFFFFFF AND PUSH1 0xE0 SHL DUP2 MSTORE PUSH1 0x4 ADD PUSH2 0x2355 SWAP2 SWAP1 PUSH2 0x4082 JUMP JUMPDEST PUSH1 0x20 PUSH1 0x40 MLOAD DUP1 DUP4 SUB DUP2 DUP7 GAS STATICCALL ISZERO DUP1 ISZERO PUSH2 0x2370 JUMPI RETURNDATASIZE PUSH0 DUP1 RETURNDATACOPY RETURNDATASIZE PUSH0 REVERT JUMPDEST POP POP POP POP PUSH1 0x40 MLOAD RETURNDATASIZE PUSH1 0x1F NOT PUSH1 0x1F DUP3 ADD AND DUP3 ADD DUP1 PUSH1 0x40 MSTORE POP DUP2 ADD SWAP1 PUSH2 0x2394 SWAP2 SWAP1 PUSH2 0x4B82 JUMP JUMPDEST EQ ISZERO SWAP1 POP SWAP3 SWAP2 POP POP JUMP JUMPDEST PUSH32 0x0 PUSH20 0xFFFFFFFFFFFFFFFFFFFFFFFFFFFFFFFFFFFFFFFF AND ADDRESS PUSH20 0xFFFFFFFFFFFFFFFFFFFFFFFFFFFFFFFFFFFFFFFF AND EQ PUSH2 0x2423 JUMPI PUSH1 0x40 MLOAD PUSH32 0xE07C8DBA00000000000000000000000000000000000000000000000000000000 DUP2 MSTORE PUSH1 0x4 ADD PUSH1 0x40 MLOAD DUP1 SWAP2 SUB SWAP1 REVERT JUMPDEST JUMP JUMPDEST PUSH0 DUP1 PUSH2 0x242F PUSH2 0x2C65 JUMP JUMPDEST SWAP1 POP DUP1 PUSH0 ADD PUSH0 SWAP1 SLOAD SWAP1 PUSH2 0x100 EXP SWAP1 DIV PUSH1 0xFF AND SWAP2 POP POP SWAP1 JUMP JUMPDEST PUSH0 DUP1 PUSH2 0x2451 PUSH2 0x1C13 JUMP JUMPDEST SWAP1 POP PUSH0 DUP2 PUSH1 0x2 ADD PUSH1 0x14 SWAP1 SLOAD SWAP1 PUSH2 0x100 EXP SWAP1 DIV PUSH12 0xFFFFFFFFFFFFFFFFFFFFFFFF AND SWAP1 POP PUSH0 DUP2 PUSH12 0xFFFFFFFFFFFFFFFFFFFFFFFF AND GT ISZERO PUSH2 0x2591 JUMPI PUSH0 DUP3 PUSH1 0x2 ADD PUSH0 SWAP1 SLOAD SWAP1 PUSH2 0x100 EXP SWAP1 DIV PUSH20 0xFFFFFFFFFFFFFFFFFFFFFFFFFFFFFFFFFFFFFFFF AND SWAP1 POP PUSH0 DUP4 PUSH1 0x1 ADD PUSH0 SWAP1 SLOAD SWAP1 PUSH2 0x100 EXP SWAP1 DIV PUSH20 0xFFFFFFFFFFFFFFFFFFFFFFFFFFFFFFFFFFFFFFFF AND SWAP1 POP PUSH2 0x2512 DUP7 DUP3 DUP6 PUSH12 0xFFFFFFFFFFFFFFFFFFFFFFFF AND DUP6 PUSH20 0xFFFFFFFFFFFFFFFFFFFFFFFFFFFFFFFFFFFFFFFF AND PUSH2 0x2E61 SWAP1 SWAP4 SWAP3 SWAP2 SWAP1 PUSH4 0xFFFFFFFF AND JUMP JUMPDEST DUP2 PUSH20 0xFFFFFFFFFFFFFFFFFFFFFFFFFFFFFFFFFFFFFFFF AND DUP2 PUSH20 0xFFFFFFFFFFFFFFFFFFFFFFFFFFFFFFFFFFFFFFFF AND DUP8 PUSH20 0xFFFFFFFFFFFFFFFFFFFFFFFFFFFFFFFFFFFFFFFF AND PUSH32 0x27855217C202A0A7FE50B01FB6826CB2F4B667828A8951941D4934E7146E08D0 DUP7 PUSH1 0x40 MLOAD PUSH2 0x2586 SWAP2 SWAP1 PUSH2 0x47B0 JUMP JUMPDEST PUSH1 0x40 MLOAD DUP1 SWAP2 SUB SWAP1 LOG4 POP POP JUMPDEST PUSH2 0x259C DUP8 DUP8 DUP8 PUSH2 0x2EE3 JUMP JUMPDEST SWAP3 POP PUSH0 DUP4 SWAP1 POP PUSH0 PUSH2 0x25EC PUSH32 0x4E414D4500000000000000000000000000000000000000000000000000000000 DUP4 PUSH20 0xFFFFFFFFFFFFFFFFFFFFFFFFFFFFFFFFFFFFFFFF AND PUSH2 0x2CB0 SWAP1 SWAP2 SWAP1 PUSH4 0xFFFFFFFF AND JUMP JUMPDEST MLOAD EQ PUSH2 0x25FA JUMPI POP POP POP PUSH2 0x2765 JUMP JUMPDEST PUSH0 DUP1 PUSH2 0x2607 DUP11 DUP11 DUP11 PUSH2 0x3056 JUMP JUMPDEST SWAP2 POP SWAP2 POP PUSH0 TIMESTAMP SWAP1 POP PUSH2 0x265A PUSH32 0x4E414D4500000000000000000000000000000000000000000000000000000000 DUP5 DUP7 PUSH20 0xFFFFFFFFFFFFFFFFFFFFFFFFFFFFFFFFFFFFFFFF AND PUSH2 0x33F2 SWAP1 SWAP3 SWAP2 SWAP1 PUSH4 0xFFFFFFFF AND JUMP JUMPDEST PUSH2 0x26A5 PUSH32 0x5552490000000000000000000000000000000000000000000000000000000000 DUP4 DUP7 PUSH20 0xFFFFFFFFFFFFFFFFFFFFFFFFFFFFFFFFFFFFFFFF AND PUSH2 0x33F2 SWAP1 SWAP3 SWAP2 SWAP1 PUSH4 0xFFFFFFFF AND JUMP JUMPDEST PUSH2 0x26F0 PUSH32 0x524547495354524154494F4E5F44415445000000000000000000000000000000 DUP3 DUP7 PUSH20 0xFFFFFFFFFFFFFFFFFFFFFFFFFFFFFFFFFFFFFFFF AND PUSH2 0x345F SWAP1 SWAP3 SWAP2 SWAP1 PUSH4 0xFFFFFFFF AND JUMP JUMPDEST DUP6 PUSH0 ADD PUSH0 DUP2 SLOAD DUP1 SWAP3 SWAP2 SWAP1 PUSH2 0x2703 SWAP1 PUSH2 0x4BAD JUMP JUMPDEST SWAP2 SWAP1 POP SSTORE POP DUP9 DUP11 PUSH20 0xFFFFFFFFFFFFFFFFFFFFFFFFFFFFFFFFFFFFFFFF AND DUP13 PUSH32 0x2AD3A2E0356B65FDFE4A73C825B78071AE469DB35162978518B8C258ABB3767 DUP11 DUP8 DUP8 DUP8 PUSH1 0x40 MLOAD PUSH2 0x2756 SWAP5 SWAP4 SWAP3 SWAP2 SWAP1 PUSH2 0x4BF4 JUMP JUMPDEST PUSH1 0x40 MLOAD DUP1 SWAP2 SUB SWAP1 LOG4 POP POP POP POP POP POP JUMPDEST SWAP5 SWAP4 POP POP POP POP JUMP JUMPDEST DUP3 PUSH20 0xFFFFFFFFFFFFFFFFFFFFFFFFFFFFFFFFFFFFFFFF AND PUSH4 0x4E91DB08 DUP4 DUP4 PUSH2 0x2797 JUMPI PUSH0 DUP1 SHL PUSH2 0x279C JUMP JUMPDEST PUSH1 0x1 PUSH0 SHL JUMPDEST PUSH1 0x40 MLOAD DUP4 PUSH4 0xFFFFFFFF AND PUSH1 0xE0 SHL DUP2 MSTORE PUSH1 0x4 ADD PUSH2 0x27B9 SWAP3 SWAP2 SWAP1 PUSH2 0x4C45 JUMP JUMPDEST PUSH0 PUSH1 0x40 MLOAD DUP1 DUP4 SUB DUP2 PUSH0 DUP8 DUP1 EXTCODESIZE ISZERO DUP1 ISZERO PUSH2 0x27D0 JUMPI PUSH0 DUP1 REVERT JUMPDEST POP GAS CALL ISZERO DUP1 ISZERO PUSH2 0x27E2 JUMPI RETURNDATASIZE PUSH0 DUP1 RETURNDATACOPY RETURNDATASIZE PUSH0 REVERT JUMPDEST POP POP POP POP POP POP POP JUMP JUMPDEST PUSH0 PUSH2 0x27F4 PUSH2 0x2A25 JUMP JUMPDEST SWAP1 POP DUP2 DUP2 PUSH0 ADD PUSH0 PUSH2 0x100 EXP DUP2 SLOAD DUP2 PUSH20 0xFFFFFFFFFFFFFFFFFFFFFFFFFFFFFFFFFFFFFFFF MUL NOT AND SWAP1 DUP4 PUSH20 0xFFFFFFFFFFFFFFFFFFFFFFFFFFFFFFFFFFFFFFFF AND MUL OR SWAP1 SSTORE POP PUSH32 0x2F658B440C35314F52658EA8A740E05B284CDC84DC9AE01E891F21B8933E7CAD DUP3 PUSH1 0x40 MLOAD PUSH2 0x2866 SWAP2 SWAP1 PUSH2 0x3FBA JUMP JUMPDEST PUSH1 0x40 MLOAD DUP1 SWAP2 SUB SWAP1 LOG1 POP POP JUMP JUMPDEST PUSH0 PUSH2 0x2897 DUP4 PUSH0 ADD DUP4 PUSH20 0xFFFFFFFFFFFFFFFFFFFFFFFFFFFFFFFFFFFFFFFF AND PUSH0 SHL PUSH2 0x34CE JUMP JUMPDEST SWAP1 POP SWAP3 SWAP2 POP POP JUMP JUMPDEST PUSH0 PUSH2 0x28C4 DUP4 PUSH0 ADD DUP4 PUSH20 0xFFFFFFFFFFFFFFFFFFFFFFFFFFFFFFFFFFFFFFFF AND PUSH0 SHL PUSH2 0x34EE JUMP JUMPDEST SWAP1 POP SWAP3 SWAP2 POP POP JUMP JUMPDEST PUSH2 0x28D4 PUSH2 0x1C87 JUMP JUMPDEST PUSH0 PUSH2 0x28DD PUSH2 0x2C65 JUMP JUMPDEST SWAP1 POP PUSH1 0x1 DUP2 PUSH0 ADD PUSH0 PUSH2 0x100 EXP DUP2 SLOAD DUP2 PUSH1 0xFF MUL NOT AND SWAP1 DUP4 ISZERO ISZERO MUL OR SWAP1 SSTORE POP PUSH32 0x62E78CEA01BEE320CD4E420270B5EA74000D11B0C9F74754EBDBFC544B05A258 PUSH2 0x2923 PUSH2 0x1CEF JUMP JUMPDEST PUSH1 0x40 MLOAD PUSH2 0x2930 SWAP2 SWAP1 PUSH2 0x3FBA JUMP JUMPDEST PUSH1 0x40 MLOAD DUP1 SWAP2 SUB SWAP1 LOG1 POP JUMP JUMPDEST PUSH0 PUSH32 0x0 PUSH20 0xFFFFFFFFFFFFFFFFFFFFFFFFFFFFFFFFFFFFFFFF AND PUSH4 0x246A0021 PUSH32 0x0 PUSH32 0x0 DUP8 DUP8 DUP8 PUSH1 0x40 MLOAD DUP7 PUSH4 0xFFFFFFFF AND PUSH1 0xE0 SHL DUP2 MSTORE PUSH1 0x4 ADD PUSH2 0x29DD SWAP6 SWAP5 SWAP4 SWAP3 SWAP2 SWAP1 PUSH2 0x4C6C JUMP JUMPDEST PUSH1 0x20 PUSH1 0x40 MLOAD DUP1 DUP4 SUB DUP2 DUP7 GAS STATICCALL ISZERO DUP1 ISZERO PUSH2 0x29F8 JUMPI RETURNDATASIZE PUSH0 DUP1 RETURNDATACOPY RETURNDATASIZE PUSH0 REVERT JUMPDEST POP POP POP POP PUSH1 0x40 MLOAD RETURNDATASIZE PUSH1 0x1F NOT PUSH1 0x1F DUP3 ADD AND DUP3 ADD DUP1 PUSH1 0x40 MSTORE POP DUP2 ADD SWAP1 PUSH2 0x2A1C SWAP2 SWAP1 PUSH2 0x4CBD JUMP JUMPDEST SWAP1 POP SWAP4 SWAP3 POP POP POP JUMP JUMPDEST PUSH0 PUSH32 0xF3177357AB46D8AF007AB3FDB9AF81DA189E1068FEFDC0073DCA88A2CAB40A00 SWAP1 POP SWAP1 JUMP JUMPDEST PUSH0 PUSH2 0x2A58 DUP3 PUSH0 ADD PUSH2 0x35EA JUMP JUMPDEST SWAP1 POP SWAP2 SWAP1 POP JUMP JUMPDEST PUSH0 PUSH2 0x2A6C DUP4 PUSH0 ADD DUP4 PUSH2 0x35F9 JUMP JUMPDEST PUSH0 SHR SWAP1 POP SWAP3 SWAP2 POP POP JUMP JUMPDEST PUSH2 0x2A7E PUSH2 0x2A80 JUMP JUMPDEST JUMP JUMPDEST PUSH2 0x2A88 PUSH2 0x3620 JUMP JUMPDEST PUSH2 0x2ABE JUMPI PUSH1 0x40 MLOAD PUSH32 0xD7E6BCF800000000000000000000000000000000000000000000000000000000 DUP2 MSTORE PUSH1 0x4 ADD PUSH1 0x40 MLOAD DUP1 SWAP2 SUB SWAP1 REVERT JUMPDEST JUMP JUMPDEST PUSH2 0x2AC8 PUSH2 0x2A80 JUMP JUMPDEST PUSH2 0x2AD1 DUP2 PUSH2 0x27EB JUMP JUMPDEST POP JUMP JUMPDEST PUSH2 0x2ADC PUSH2 0x2A80 JUMP JUMPDEST PUSH0 PUSH2 0x2AE5 PUSH2 0x2C65 JUMP JUMPDEST SWAP1 POP PUSH0 DUP2 PUSH0 ADD PUSH0 PUSH2 0x100 EXP DUP2 SLOAD DUP2 PUSH1 0xFF MUL NOT AND SWAP1 DUP4 ISZERO ISZERO MUL OR SWAP1 SSTORE POP POP JUMP JUMPDEST PUSH0 DUP1 PUSH0 DUP1 DUP8 PUSH20 0xFFFFFFFFFFFFFFFFFFFFFFFFFFFFFFFFFFFFFFFF AND DUP8 DUP8 DUP8 PUSH1 0x40 MLOAD PUSH1 0x24 ADD PUSH2 0x2B34 SWAP4 SWAP3 SWAP2 SWAP1 PUSH2 0x4CE8 JUMP JUMPDEST PUSH1 0x40 MLOAD PUSH1 0x20 DUP2 DUP4 SUB SUB DUP2 MSTORE SWAP1 PUSH1 0x40 MSTORE PUSH4 0xB7009613 PUSH1 0xE0 SHL PUSH1 0x20 DUP3 ADD DUP1 MLOAD PUSH28 0xFFFFFFFFFFFFFFFFFFFFFFFFFFFFFFFFFFFFFFFFFFFFFFFFFFFFFFFF DUP4 DUP2 DUP4 AND OR DUP4 MSTORE POP POP POP POP PUSH1 0x40 MLOAD PUSH2 0x2B86 SWAP2 SWAP1 PUSH2 0x4D61 JUMP JUMPDEST PUSH0 PUSH1 0x40 MLOAD DUP1 DUP4 SUB DUP2 DUP6 GAS STATICCALL SWAP2 POP POP RETURNDATASIZE DUP1 PUSH0 DUP2 EQ PUSH2 0x2BBE JUMPI PUSH1 0x40 MLOAD SWAP2 POP PUSH1 0x1F NOT PUSH1 0x3F RETURNDATASIZE ADD AND DUP3 ADD PUSH1 0x40 MSTORE RETURNDATASIZE DUP3 MSTORE RETURNDATASIZE PUSH0 PUSH1 0x20 DUP5 ADD RETURNDATACOPY PUSH2 0x2BC3 JUMP JUMPDEST PUSH1 0x60 SWAP2 POP JUMPDEST POP SWAP2 POP SWAP2 POP DUP2 ISZERO PUSH2 0x2C1A JUMPI PUSH1 0x40 DUP2 MLOAD LT PUSH2 0x2BF8 JUMPI DUP1 DUP1 PUSH1 0x20 ADD SWAP1 MLOAD DUP2 ADD SWAP1 PUSH2 0x2BEB SWAP2 SWAP1 PUSH2 0x4DC4 JUMP JUMPDEST DUP1 SWAP5 POP DUP2 SWAP6 POP POP POP PUSH2 0x2C19 JUMP JUMPDEST PUSH1 0x20 DUP2 MLOAD LT PUSH2 0x2C18 JUMPI DUP1 DUP1 PUSH1 0x20 ADD SWAP1 MLOAD DUP2 ADD SWAP1 PUSH2 0x2C15 SWAP2 SWAP1 PUSH2 0x4E02 JUMP JUMPDEST SWAP4 POP JUMPDEST JUMPDEST JUMPDEST POP POP SWAP5 POP SWAP5 SWAP3 POP POP POP JUMP JUMPDEST PUSH2 0x2C2D PUSH2 0xF51 JUMP JUMPDEST PUSH2 0x2C63 JUMPI PUSH1 0x40 MLOAD PUSH32 0x8DFC202B00000000000000000000000000000000000000000000000000000000 DUP2 MSTORE PUSH1 0x4 ADD PUSH1 0x40 MLOAD DUP1 SWAP2 SUB SWAP1 REVERT JUMPDEST JUMP JUMPDEST PUSH0 PUSH32 0xCD5ED15C6E187E77E9AEE88184C21F4F2182AB5827CB3B7E07FBEDCD63F03300 SWAP1 POP SWAP1 JUMP JUMPDEST PUSH0 PUSH2 0x2C96 DUP4 PUSH2 0x363E JUMP JUMPDEST DUP1 ISZERO PUSH2 0x2CA8 JUMPI POP PUSH2 0x2CA7 DUP4 DUP4 PUSH2 0x368A JUMP JUMPDEST JUMPDEST SWAP1 POP SWAP3 SWAP2 POP POP JUMP JUMPDEST PUSH1 0x60 DUP3 PUSH20 0xFFFFFFFFFFFFFFFFFFFFFFFFFFFFFFFFFFFFFFFF AND PUSH4 0xC031A180 DUP4 PUSH1 0x40 MLOAD DUP3 PUSH4 0xFFFFFFFF AND PUSH1 0xE0 SHL DUP2 MSTORE PUSH1 0x4 ADD PUSH2 0x2CEB SWAP2 SWAP1 PUSH2 0x4082 JUMP JUMPDEST PUSH0 PUSH1 0x40 MLOAD DUP1 DUP4 SUB DUP2 DUP7 GAS STATICCALL ISZERO DUP1 ISZERO PUSH2 0x2D05 JUMPI RETURNDATASIZE PUSH0 DUP1 RETURNDATACOPY RETURNDATASIZE PUSH0 REVERT JUMPDEST POP POP POP POP PUSH1 0x40 MLOAD RETURNDATASIZE PUSH0 DUP3 RETURNDATACOPY RETURNDATASIZE PUSH1 0x1F NOT PUSH1 0x1F DUP3 ADD AND DUP3 ADD DUP1 PUSH1 0x40 MSTORE POP DUP2 ADD SWAP1 PUSH2 0x2D2D SWAP2 SWAP1 PUSH2 0x4E9B JUMP JUMPDEST SWAP1 POP SWAP3 SWAP2 POP POP JUMP JUMPDEST PUSH0 PUSH2 0x2D40 DUP4 DUP4 PUSH2 0x34CE JUMP JUMPDEST PUSH2 0x2D92 JUMPI DUP3 PUSH0 ADD DUP3 SWAP1 DUP1 PUSH1 0x1 DUP2 SLOAD ADD DUP1 DUP3 SSTORE DUP1 SWAP2 POP POP PUSH1 0x1 SWAP1 SUB SWAP1 PUSH0 MSTORE PUSH1 0x20 PUSH0 KECCAK256 ADD PUSH0 SWAP1 SWAP2 SWAP1 SWAP2 SWAP1 SWAP2 POP SSTORE DUP3 PUSH0 ADD DUP1 SLOAD SWAP1 POP DUP4 PUSH1 0x1 ADD PUSH0 DUP5 DUP2 MSTORE PUSH1 0x20 ADD SWAP1 DUP2 MSTORE PUSH1 0x20 ADD PUSH0 KECCAK256 DUP2 SWAP1 SSTORE POP PUSH1 0x1 SWAP1 POP PUSH2 0x2D96 JUMP JUMPDEST PUSH0 SWAP1 POP JUMPDEST SWAP3 SWAP2 POP POP JUMP JUMPDEST PUSH0 PUSH2 0x2DC8 PUSH32 0x360894A13BA1A3210667C828492DB98DCA3E2076CC3735A920A3CA505D382BBC PUSH0 SHL PUSH2 0x3723 JUMP JUMPDEST PUSH0 ADD PUSH0 SWAP1 SLOAD SWAP1 PUSH2 0x100 EXP SWAP1 DIV PUSH20 0xFFFFFFFFFFFFFFFFFFFFFFFFFFFFFFFFFFFFFFFF AND SWAP1 POP SWAP1 JUMP JUMPDEST PUSH2 0x2DF8 DUP3 PUSH2 0x372C JUMP JUMPDEST DUP2 PUSH20 0xFFFFFFFFFFFFFFFFFFFFFFFFFFFFFFFFFFFFFFFF AND PUSH32 0xBC7CD75A20EE27FD9ADEBAB32041F755214DBC6BFFA90CC0225B39DA2E5C2D3B PUSH1 0x40 MLOAD PUSH1 0x40 MLOAD DUP1 SWAP2 SUB SWAP1 LOG2 PUSH0 DUP2 MLOAD GT ISZERO PUSH2 0x2E54 JUMPI PUSH2 0x2E4E DUP3 DUP3 PUSH2 0x37F5 JUMP JUMPDEST POP PUSH2 0x2E5D JUMP JUMPDEST PUSH2 0x2E5C PUSH2 0x3875 JUMP JUMPDEST JUMPDEST POP POP JUMP JUMPDEST PUSH2 0x2EDD DUP5 DUP6 PUSH20 0xFFFFFFFFFFFFFFFFFFFFFFFFFFFFFFFFFFFFFFFF AND PUSH4 0x23B872DD DUP7 DUP7 DUP7 PUSH1 0x40 MLOAD PUSH1 0x24 ADD PUSH2 0x2E96 SWAP4 SWAP3 SWAP2 SWAP1 PUSH2 0x4EE2 JUMP JUMPDEST PUSH1 0x40 MLOAD PUSH1 0x20 DUP2 DUP4 SUB SUB DUP2 MSTORE SWAP1 PUSH1 0x40 MSTORE SWAP2 POP PUSH1 0xE0 SHL PUSH1 0x20 DUP3 ADD DUP1 MLOAD PUSH28 0xFFFFFFFFFFFFFFFFFFFFFFFFFFFFFFFFFFFFFFFFFFFFFFFFFFFFFFFF DUP4 DUP2 DUP4 AND OR DUP4 MSTORE POP POP POP POP PUSH2 0x38B1 JUMP JUMPDEST POP POP POP POP JUMP JUMPDEST PUSH0 PUSH32 0x0 PUSH20 0xFFFFFFFFFFFFFFFFFFFFFFFFFFFFFFFFFFFFFFFF AND PUSH4 0x8A54C52F PUSH32 0x0 PUSH32 0x0 DUP8 DUP8 DUP8 PUSH1 0x40 MLOAD DUP7 PUSH4 0xFFFFFFFF AND PUSH1 0xE0 SHL DUP2 MSTORE PUSH1 0x4 ADD PUSH2 0x2F85 SWAP6 SWAP5 SWAP4 SWAP3 SWAP2 SWAP1 PUSH2 0x4C6C JUMP JUMPDEST PUSH1 0x20 PUSH1 0x40 MLOAD DUP1 DUP4 SUB DUP2 PUSH0 DUP8 GAS CALL ISZERO DUP1 ISZERO PUSH2 0x2FA1 JUMPI RETURNDATASIZE PUSH0 DUP1 RETURNDATACOPY RETURNDATASIZE PUSH0 REVERT JUMPDEST POP POP POP POP PUSH1 0x40 MLOAD RETURNDATASIZE PUSH1 0x1F NOT PUSH1 0x1F DUP3 ADD AND DUP3 ADD DUP1 PUSH1 0x40 MSTORE POP DUP2 ADD SWAP1 PUSH2 0x2FC5 SWAP2 SWAP1 PUSH2 0x4CBD JUMP JUMPDEST SWAP1 POP DUP4 PUSH32 0x0 PUSH20 0xFFFFFFFFFFFFFFFFFFFFFFFFFFFFFFFFFFFFFFFF AND DUP3 PUSH20 0xFFFFFFFFFFFFFFFFFFFFFFFFFFFFFFFFFFFFFFFF AND PUSH32 0x5BE70B68C8361762980EC7D425D79FD33F6D49CAC8A498E6DDF514F995B987F7 DUP7 DUP7 PUSH1 0x40 MLOAD PUSH2 0x3047 SWAP3 SWAP2 SWAP1 PUSH2 0x4F17 JUMP JUMPDEST PUSH1 0x40 MLOAD DUP1 SWAP2 SUB SWAP1 LOG4 SWAP4 SWAP3 POP POP POP JUMP JUMPDEST PUSH1 0x60 DUP1 CHAINID DUP6 EQ PUSH2 0x30CA JUMPI PUSH2 0x3069 DUP6 PUSH2 0x3946 JUMP JUMPDEST PUSH2 0x3088 DUP6 PUSH20 0xFFFFFFFFFFFFFFFFFFFFFFFFFFFFFFFFFFFFFFFF AND PUSH2 0x3A10 JUMP JUMPDEST PUSH2 0x3091 DUP6 PUSH2 0x3946 JUMP JUMPDEST PUSH1 0x40 MLOAD PUSH1 0x20 ADD PUSH2 0x30A3 SWAP4 SWAP3 SWAP2 SWAP1 PUSH2 0x4FC4 JUMP JUMPDEST PUSH1 0x40 MLOAD PUSH1 0x20 DUP2 DUP4 SUB SUB DUP2 MSTORE SWAP1 PUSH1 0x40 MSTORE SWAP2 POP PUSH1 0x40 MLOAD DUP1 PUSH1 0x20 ADD PUSH1 0x40 MSTORE DUP1 PUSH0 DUP2 MSTORE POP SWAP1 POP PUSH2 0x33EA JUMP JUMPDEST PUSH2 0x3113 PUSH32 0x80AC58CD00000000000000000000000000000000000000000000000000000000 DUP6 PUSH20 0xFFFFFFFFFFFFFFFFFFFFFFFFFFFFFFFFFFFFFFFF AND PUSH2 0x2C8C SWAP1 SWAP2 SWAP1 PUSH4 0xFFFFFFFF AND JUMP JUMPDEST PUSH2 0x3154 JUMPI DUP4 PUSH1 0x40 MLOAD PUSH32 0x1033CD8800000000000000000000000000000000000000000000000000000000 DUP2 MSTORE PUSH1 0x4 ADD PUSH2 0x314B SWAP2 SWAP1 PUSH2 0x3FBA JUMP JUMPDEST PUSH1 0x40 MLOAD DUP1 SWAP2 SUB SWAP1 REVERT JUMPDEST PUSH0 PUSH20 0xFFFFFFFFFFFFFFFFFFFFFFFFFFFFFFFFFFFFFFFF AND DUP5 PUSH20 0xFFFFFFFFFFFFFFFFFFFFFFFFFFFFFFFFFFFFFFFF AND PUSH4 0x6352211E DUP6 PUSH1 0x40 MLOAD DUP3 PUSH4 0xFFFFFFFF AND PUSH1 0xE0 SHL DUP2 MSTORE PUSH1 0x4 ADD PUSH2 0x31A4 SWAP2 SWAP1 PUSH2 0x3FEB JUMP JUMPDEST PUSH1 0x20 PUSH1 0x40 MLOAD DUP1 DUP4 SUB DUP2 DUP7 GAS STATICCALL ISZERO DUP1 ISZERO PUSH2 0x31BF JUMPI RETURNDATASIZE PUSH0 DUP1 RETURNDATACOPY RETURNDATASIZE PUSH0 REVERT JUMPDEST POP POP POP POP PUSH1 0x40 MLOAD RETURNDATASIZE PUSH1 0x1F NOT PUSH1 0x1F DUP3 ADD AND DUP3 ADD DUP1 PUSH1 0x40 MSTORE POP DUP2 ADD SWAP1 PUSH2 0x31E3 SWAP2 SWAP1 PUSH2 0x4CBD JUMP JUMPDEST PUSH20 0xFFFFFFFFFFFFFFFFFFFFFFFFFFFFFFFFFFFFFFFF AND SUB PUSH2 0x323D JUMPI DUP4 DUP4 PUSH1 0x40 MLOAD PUSH32 0x4BC7306E00000000000000000000000000000000000000000000000000000000 DUP2 MSTORE PUSH1 0x4 ADD PUSH2 0x3234 SWAP3 SWAP2 SWAP1 PUSH2 0x4F17 JUMP JUMPDEST PUSH1 0x40 MLOAD DUP1 SWAP2 SUB SWAP1 REVERT JUMPDEST PUSH2 0x3286 PUSH32 0x5B5E139F00000000000000000000000000000000000000000000000000000000 DUP6 PUSH20 0xFFFFFFFFFFFFFFFFFFFFFFFFFFFFFFFFFFFFFFFF AND PUSH2 0x2C8C SWAP1 SWAP2 SWAP1 PUSH4 0xFFFFFFFF AND JUMP JUMPDEST PUSH2 0x32C7 JUMPI DUP4 PUSH1 0x40 MLOAD PUSH32 0x3AAD847200000000000000000000000000000000000000000000000000000000 DUP2 MSTORE PUSH1 0x4 ADD PUSH2 0x32BE SWAP2 SWAP1 PUSH2 0x3FBA JUMP JUMPDEST PUSH1 0x40 MLOAD DUP1 SWAP2 SUB SWAP1 REVERT JUMPDEST PUSH2 0x32D0 CHAINID PUSH2 0x3946 JUMP JUMPDEST DUP5 PUSH20 0xFFFFFFFFFFFFFFFFFFFFFFFFFFFFFFFFFFFFFFFF AND PUSH4 0x6FDDE03 PUSH1 0x40 MLOAD DUP2 PUSH4 0xFFFFFFFF AND PUSH1 0xE0 SHL DUP2 MSTORE PUSH1 0x4 ADD PUSH0 PUSH1 0x40 MLOAD DUP1 DUP4 SUB DUP2 DUP7 GAS STATICCALL ISZERO DUP1 ISZERO PUSH2 0x3318 JUMPI RETURNDATASIZE PUSH0 DUP1 RETURNDATACOPY RETURNDATASIZE PUSH0 REVERT JUMPDEST POP POP POP POP PUSH1 0x40 MLOAD RETURNDATASIZE PUSH0 DUP3 RETURNDATACOPY RETURNDATASIZE PUSH1 0x1F NOT PUSH1 0x1F DUP3 ADD AND DUP3 ADD DUP1 PUSH1 0x40 MSTORE POP DUP2 ADD SWAP1 PUSH2 0x3340 SWAP2 SWAP1 PUSH2 0x50B0 JUMP JUMPDEST PUSH2 0x3349 DUP6 PUSH2 0x3946 JUMP JUMPDEST PUSH1 0x40 MLOAD PUSH1 0x20 ADD PUSH2 0x335B SWAP4 SWAP3 SWAP2 SWAP1 PUSH2 0x4FC4 JUMP JUMPDEST PUSH1 0x40 MLOAD PUSH1 0x20 DUP2 DUP4 SUB SUB DUP2 MSTORE SWAP1 PUSH1 0x40 MSTORE SWAP2 POP DUP4 PUSH20 0xFFFFFFFFFFFFFFFFFFFFFFFFFFFFFFFFFFFFFFFF AND PUSH4 0xC87B56DD DUP5 PUSH1 0x40 MLOAD DUP3 PUSH4 0xFFFFFFFF AND PUSH1 0xE0 SHL DUP2 MSTORE PUSH1 0x4 ADD PUSH2 0x33A5 SWAP2 SWAP1 PUSH2 0x3FEB JUMP JUMPDEST PUSH0 PUSH1 0x40 MLOAD DUP1 DUP4 SUB DUP2 DUP7 GAS STATICCALL ISZERO DUP1 ISZERO PUSH2 0x33BF JUMPI RETURNDATASIZE PUSH0 DUP1 RETURNDATACOPY RETURNDATASIZE PUSH0 REVERT JUMPDEST POP POP POP POP PUSH1 0x40 MLOAD RETURNDATASIZE PUSH0 DUP3 RETURNDATACOPY RETURNDATASIZE PUSH1 0x1F NOT PUSH1 0x1F DUP3 ADD AND DUP3 ADD DUP1 PUSH1 0x40 MSTORE POP DUP2 ADD SWAP1 PUSH2 0x33E7 SWAP2 SWAP1 PUSH2 0x50B0 JUMP JUMPDEST SWAP1 POP JUMPDEST SWAP4 POP SWAP4 SWAP2 POP POP JUMP JUMPDEST DUP3 PUSH20 0xFFFFFFFFFFFFFFFFFFFFFFFFFFFFFFFFFFFFFFFF AND PUSH4 0x2E28D084 DUP4 DUP4 PUSH1 0x40 MLOAD DUP4 PUSH4 0xFFFFFFFF AND PUSH1 0xE0 SHL DUP2 MSTORE PUSH1 0x4 ADD PUSH2 0x342D SWAP3 SWAP2 SWAP1 PUSH2 0x512F JUMP JUMPDEST PUSH0 PUSH1 0x40 MLOAD DUP1 DUP4 SUB DUP2 PUSH0 DUP8 DUP1 EXTCODESIZE ISZERO DUP1 ISZERO PUSH2 0x3444 JUMPI PUSH0 DUP1 REVERT JUMPDEST POP GAS CALL ISZERO DUP1 ISZERO PUSH2 0x3456 JUMPI RETURNDATASIZE PUSH0 DUP1 RETURNDATACOPY RETURNDATASIZE PUSH0 REVERT JUMPDEST POP POP POP POP POP POP POP JUMP JUMPDEST DUP3 PUSH20 0xFFFFFFFFFFFFFFFFFFFFFFFFFFFFFFFFFFFFFFFF AND PUSH4 0x4E91DB08 DUP4 DUP4 PUSH0 SHL PUSH1 0x40 MLOAD DUP4 PUSH4 0xFFFFFFFF AND PUSH1 0xE0 SHL DUP2 MSTORE PUSH1 0x4 ADD PUSH2 0x349C SWAP3 SWAP2 SWAP1 PUSH2 0x4C45 JUMP JUMPDEST PUSH0 PUSH1 0x40 MLOAD DUP1 DUP4 SUB DUP2 PUSH0 DUP8 DUP1 EXTCODESIZE ISZERO DUP1 ISZERO PUSH2 0x34B3 JUMPI PUSH0 DUP1 REVERT JUMPDEST POP GAS CALL ISZERO DUP1 ISZERO PUSH2 0x34C5 JUMPI RETURNDATASIZE PUSH0 DUP1 RETURNDATACOPY RETURNDATASIZE PUSH0 REVERT JUMPDEST POP POP POP POP POP POP POP JUMP JUMPDEST PUSH0 DUP1 DUP4 PUSH1 0x1 ADD PUSH0 DUP5 DUP2 MSTORE PUSH1 0x20 ADD SWAP1 DUP2 MSTORE PUSH1 0x20 ADD PUSH0 KECCAK256 SLOAD EQ ISZERO SWAP1 POP SWAP3 SWAP2 POP POP JUMP JUMPDEST PUSH0 DUP1 DUP4 PUSH1 0x1 ADD PUSH0 DUP5 DUP2 MSTORE PUSH1 0x20 ADD SWAP1 DUP2 MSTORE PUSH1 0x20 ADD PUSH0 KECCAK256 SLOAD SWAP1 POP PUSH0 DUP2 EQ PUSH2 0x35DF JUMPI PUSH0 PUSH1 0x1 DUP3 PUSH2 0x351B SWAP2 SWAP1 PUSH2 0x498B JUMP JUMPDEST SWAP1 POP PUSH0 PUSH1 0x1 DUP7 PUSH0 ADD DUP1 SLOAD SWAP1 POP PUSH2 0x3531 SWAP2 SWAP1 PUSH2 0x498B JUMP JUMPDEST SWAP1 POP DUP1 DUP3 EQ PUSH2 0x3597 JUMPI PUSH0 DUP7 PUSH0 ADD DUP3 DUP2 SLOAD DUP2 LT PUSH2 0x3550 JUMPI PUSH2 0x354F PUSH2 0x482E JUMP JUMPDEST JUMPDEST SWAP1 PUSH0 MSTORE PUSH1 0x20 PUSH0 KECCAK256 ADD SLOAD SWAP1 POP DUP1 DUP8 PUSH0 ADD DUP5 DUP2 SLOAD DUP2 LT PUSH2 0x3571 JUMPI PUSH2 0x3570 PUSH2 0x482E JUMP JUMPDEST JUMPDEST SWAP1 PUSH0 MSTORE PUSH1 0x20 PUSH0 KECCAK256 ADD DUP2 SWAP1 SSTORE POP DUP4 DUP8 PUSH1 0x1 ADD PUSH0 DUP4 DUP2 MSTORE PUSH1 0x20 ADD SWAP1 DUP2 MSTORE PUSH1 0x20 ADD PUSH0 KECCAK256 DUP2 SWAP1 SSTORE POP POP JUMPDEST DUP6 PUSH0 ADD DUP1 SLOAD DUP1 PUSH2 0x35AA JUMPI PUSH2 0x35A9 PUSH2 0x515D JUMP JUMPDEST JUMPDEST PUSH1 0x1 SWAP1 SUB DUP2 DUP2 SWAP1 PUSH0 MSTORE PUSH1 0x20 PUSH0 KECCAK256 ADD PUSH0 SWAP1 SSTORE SWAP1 SSTORE DUP6 PUSH1 0x1 ADD PUSH0 DUP7 DUP2 MSTORE PUSH1 0x20 ADD SWAP1 DUP2 MSTORE PUSH1 0x20 ADD PUSH0 KECCAK256 PUSH0 SWAP1 SSTORE PUSH1 0x1 SWAP4 POP POP POP POP PUSH2 0x35E4 JUMP JUMPDEST PUSH0 SWAP2 POP POP JUMPDEST SWAP3 SWAP2 POP POP JUMP JUMPDEST PUSH0 DUP2 PUSH0 ADD DUP1 SLOAD SWAP1 POP SWAP1 POP SWAP2 SWAP1 POP JUMP JUMPDEST PUSH0 DUP3 PUSH0 ADD DUP3 DUP2 SLOAD DUP2 LT PUSH2 0x360F JUMPI PUSH2 0x360E PUSH2 0x482E JUMP JUMPDEST JUMPDEST SWAP1 PUSH0 MSTORE PUSH1 0x20 PUSH0 KECCAK256 ADD SLOAD SWAP1 POP SWAP3 SWAP2 POP POP JUMP JUMPDEST PUSH0 PUSH2 0x3629 PUSH2 0x1C3A JUMP JUMPDEST PUSH0 ADD PUSH1 0x8 SWAP1 SLOAD SWAP1 PUSH2 0x100 EXP SWAP1 DIV PUSH1 0xFF AND SWAP1 POP SWAP1 JUMP JUMPDEST PUSH0 PUSH2 0x3669 DUP3 PUSH32 0x1FFC9A700000000000000000000000000000000000000000000000000000000 PUSH2 0x368A JUMP JUMPDEST DUP1 ISZERO PUSH2 0x3683 JUMPI POP PUSH2 0x3681 DUP3 PUSH4 0xFFFFFFFF PUSH1 0xE0 SHL PUSH2 0x368A JUMP JUMPDEST ISZERO JUMPDEST SWAP1 POP SWAP2 SWAP1 POP JUMP JUMPDEST PUSH0 DUP1 DUP3 PUSH1 0x40 MLOAD PUSH1 0x24 ADD PUSH2 0x369D SWAP2 SWAP1 PUSH2 0x4550 JUMP JUMPDEST PUSH1 0x40 MLOAD PUSH1 0x20 DUP2 DUP4 SUB SUB DUP2 MSTORE SWAP1 PUSH1 0x40 MSTORE PUSH4 0x1FFC9A7 PUSH1 0xE0 SHL PUSH1 0x20 DUP3 ADD DUP1 MLOAD PUSH28 0xFFFFFFFFFFFFFFFFFFFFFFFFFFFFFFFFFFFFFFFFFFFFFFFFFFFFFFFF DUP4 DUP2 DUP4 AND OR DUP4 MSTORE POP POP POP POP SWAP1 POP PUSH0 DUP1 PUSH0 PUSH1 0x20 PUSH0 DUP6 MLOAD PUSH1 0x20 DUP8 ADD DUP11 PUSH2 0x7530 STATICCALL SWAP3 POP RETURNDATASIZE SWAP2 POP PUSH0 MLOAD SWAP1 POP DUP3 DUP1 ISZERO PUSH2 0x370C JUMPI POP PUSH1 0x20 DUP3 LT ISZERO JUMPDEST DUP1 ISZERO PUSH2 0x3717 JUMPI POP PUSH0 DUP2 GT JUMPDEST SWAP5 POP POP POP POP POP SWAP3 SWAP2 POP POP JUMP JUMPDEST PUSH0 DUP2 SWAP1 POP SWAP2 SWAP1 POP JUMP JUMPDEST PUSH0 DUP2 PUSH20 0xFFFFFFFFFFFFFFFFFFFFFFFFFFFFFFFFFFFFFFFF AND EXTCODESIZE SUB PUSH2 0x3787 JUMPI DUP1 PUSH1 0x40 MLOAD PUSH32 0x4C9C8CE300000000000000000000000000000000000000000000000000000000 DUP2 MSTORE PUSH1 0x4 ADD PUSH2 0x377E SWAP2 SWAP1 PUSH2 0x3FBA JUMP JUMPDEST PUSH1 0x40 MLOAD DUP1 SWAP2 SUB SWAP1 REVERT JUMPDEST DUP1 PUSH2 0x37B3 PUSH32 0x360894A13BA1A3210667C828492DB98DCA3E2076CC3735A920A3CA505D382BBC PUSH0 SHL PUSH2 0x3723 JUMP JUMPDEST PUSH0 ADD PUSH0 PUSH2 0x100 EXP DUP2 SLOAD DUP2 PUSH20 0xFFFFFFFFFFFFFFFFFFFFFFFFFFFFFFFFFFFFFFFF MUL NOT AND SWAP1 DUP4 PUSH20 0xFFFFFFFFFFFFFFFFFFFFFFFFFFFFFFFFFFFFFFFF AND MUL OR SWAP1 SSTORE POP POP JUMP JUMPDEST PUSH1 0x60 PUSH0 DUP1 DUP5 PUSH20 0xFFFFFFFFFFFFFFFFFFFFFFFFFFFFFFFFFFFFFFFF AND DUP5 PUSH1 0x40 MLOAD PUSH2 0x381E SWAP2 SWAP1 PUSH2 0x4D61 JUMP JUMPDEST PUSH0 PUSH1 0x40 MLOAD DUP1 DUP4 SUB DUP2 DUP6 GAS DELEGATECALL SWAP2 POP POP RETURNDATASIZE DUP1 PUSH0 DUP2 EQ PUSH2 0x3856 JUMPI PUSH1 0x40 MLOAD SWAP2 POP PUSH1 0x1F NOT PUSH1 0x3F RETURNDATASIZE ADD AND DUP3 ADD PUSH1 0x40 MSTORE RETURNDATASIZE DUP3 MSTORE RETURNDATASIZE PUSH0 PUSH1 0x20 DUP5 ADD RETURNDATACOPY PUSH2 0x385B JUMP JUMPDEST PUSH1 0x60 SWAP2 POP JUMPDEST POP SWAP2 POP SWAP2 POP PUSH2 0x386B DUP6 DUP4 DUP4 PUSH2 0x3A3D JUMP JUMPDEST SWAP3 POP POP POP SWAP3 SWAP2 POP POP JUMP JUMPDEST PUSH0 CALLVALUE GT ISZERO PUSH2 0x38AF JUMPI PUSH1 0x40 MLOAD PUSH32 0xB398979F00000000000000000000000000000000000000000000000000000000 DUP2 MSTORE PUSH1 0x4 ADD PUSH1 0x40 MLOAD DUP1 SWAP2 SUB SWAP1 REVERT JUMPDEST JUMP JUMPDEST PUSH0 PUSH2 0x38DB DUP3 DUP5 PUSH20 0xFFFFFFFFFFFFFFFFFFFFFFFFFFFFFFFFFFFFFFFF AND PUSH2 0x3ACA SWAP1 SWAP2 SWAP1 PUSH4 0xFFFFFFFF AND JUMP JUMPDEST SWAP1 POP PUSH0 DUP2 MLOAD EQ ISZERO DUP1 ISZERO PUSH2 0x38FF JUMPI POP DUP1 DUP1 PUSH1 0x20 ADD SWAP1 MLOAD DUP2 ADD SWAP1 PUSH2 0x38FD SWAP2 SWAP1 PUSH2 0x4E02 JUMP JUMPDEST ISZERO JUMPDEST ISZERO PUSH2 0x3941 JUMPI DUP3 PUSH1 0x40 MLOAD PUSH32 0x5274AFE700000000000000000000000000000000000000000000000000000000 DUP2 MSTORE PUSH1 0x4 ADD PUSH2 0x3938 SWAP2 SWAP1 PUSH2 0x3FBA JUMP JUMPDEST PUSH1 0x40 MLOAD DUP1 SWAP2 SUB SWAP1 REVERT JUMPDEST POP POP POP JUMP JUMPDEST PUSH1 0x60 PUSH0 PUSH1 0x1 PUSH2 0x3954 DUP5 PUSH2 0x3ADF JUMP JUMPDEST ADD SWAP1 POP PUSH0 DUP2 PUSH8 0xFFFFFFFFFFFFFFFF DUP2 GT ISZERO PUSH2 0x3972 JUMPI PUSH2 0x3971 PUSH2 0x41E0 JUMP JUMPDEST JUMPDEST PUSH1 0x40 MLOAD SWAP1 DUP1 DUP3 MSTORE DUP1 PUSH1 0x1F ADD PUSH1 0x1F NOT AND PUSH1 0x20 ADD DUP3 ADD PUSH1 0x40 MSTORE DUP1 ISZERO PUSH2 0x39A4 JUMPI DUP2 PUSH1 0x20 ADD PUSH1 0x1 DUP3 MUL DUP1 CALLDATASIZE DUP4 CALLDATACOPY DUP1 DUP3 ADD SWAP2 POP POP SWAP1 POP JUMPDEST POP SWAP1 POP PUSH0 DUP3 PUSH1 0x20 ADD DUP3 ADD SWAP1 POP JUMPDEST PUSH1 0x1 ISZERO PUSH2 0x3A05 JUMPI DUP1 DUP1 PUSH1 0x1 SWAP1 SUB SWAP2 POP POP PUSH32 0x3031323334353637383961626364656600000000000000000000000000000000 PUSH1 0xA DUP7 MOD BYTE DUP2 MSTORE8 PUSH1 0xA DUP6 DUP2 PUSH2 0x39FA JUMPI PUSH2 0x39F9 PUSH2 0x518A JUMP JUMPDEST JUMPDEST DIV SWAP5 POP PUSH0 DUP6 SUB PUSH2 0x39B1 JUMPI JUMPDEST DUP2 SWAP4 POP POP POP POP SWAP2 SWAP1 POP JUMP JUMPDEST PUSH1 0x60 PUSH2 0x3A36 DUP3 PUSH20 0xFFFFFFFFFFFFFFFFFFFFFFFFFFFFFFFFFFFFFFFF AND PUSH1 0x14 PUSH1 0xFF AND PUSH2 0x3C30 JUMP JUMPDEST SWAP1 POP SWAP2 SWAP1 POP JUMP JUMPDEST PUSH1 0x60 DUP3 PUSH2 0x3A52 JUMPI PUSH2 0x3A4D DUP3 PUSH2 0x3E6E JUMP JUMPDEST PUSH2 0x3AC2 JUMP JUMPDEST PUSH0 DUP3 MLOAD EQ DUP1 ISZERO PUSH2 0x3A78 JUMPI POP PUSH0 DUP5 PUSH20 0xFFFFFFFFFFFFFFFFFFFFFFFFFFFFFFFFFFFFFFFF AND EXTCODESIZE EQ JUMPDEST ISZERO PUSH2 0x3ABA JUMPI DUP4 PUSH1 0x40 MLOAD PUSH32 0x9996B31500000000000000000000000000000000000000000000000000000000 DUP2 MSTORE PUSH1 0x4 ADD PUSH2 0x3AB1 SWAP2 SWAP1 PUSH2 0x3FBA JUMP JUMPDEST PUSH1 0x40 MLOAD DUP1 SWAP2 SUB SWAP1 REVERT JUMPDEST DUP2 SWAP1 POP PUSH2 0x3AC3 JUMP JUMPDEST JUMPDEST SWAP4 SWAP3 POP POP POP JUMP JUMPDEST PUSH1 0x60 PUSH2 0x3AD7 DUP4 DUP4 PUSH0 PUSH2 0x3EB2 JUMP JUMPDEST SWAP1 POP SWAP3 SWAP2 POP POP JUMP JUMPDEST PUSH0 DUP1 PUSH0 SWAP1 POP PUSH27 0x184F03E93FF9F4DAA797ED6E38ED64BF6A1F010000000000000000 DUP4 LT PUSH2 0x3B3B JUMPI PUSH27 0x184F03E93FF9F4DAA797ED6E38ED64BF6A1F010000000000000000 DUP4 DUP2 PUSH2 0x3B31 JUMPI PUSH2 0x3B30 PUSH2 0x518A JUMP JUMPDEST JUMPDEST DIV SWAP3 POP PUSH1 0x40 DUP2 ADD SWAP1 POP JUMPDEST PUSH14 0x4EE2D6D415B85ACEF8100000000 DUP4 LT PUSH2 0x3B78 JUMPI PUSH14 0x4EE2D6D415B85ACEF8100000000 DUP4 DUP2 PUSH2 0x3B6E JUMPI PUSH2 0x3B6D PUSH2 0x518A JUMP JUMPDEST JUMPDEST DIV SWAP3 POP PUSH1 0x20 DUP2 ADD SWAP1 POP JUMPDEST PUSH7 0x2386F26FC10000 DUP4 LT PUSH2 0x3BA7 JUMPI PUSH7 0x2386F26FC10000 DUP4 DUP2 PUSH2 0x3B9D JUMPI PUSH2 0x3B9C PUSH2 0x518A JUMP JUMPDEST JUMPDEST DIV SWAP3 POP PUSH1 0x10 DUP2 ADD SWAP1 POP JUMPDEST PUSH4 0x5F5E100 DUP4 LT PUSH2 0x3BD0 JUMPI PUSH4 0x5F5E100 DUP4 DUP2 PUSH2 0x3BC6 JUMPI PUSH2 0x3BC5 PUSH2 0x518A JUMP JUMPDEST JUMPDEST DIV SWAP3 POP PUSH1 0x8 DUP2 ADD SWAP1 POP JUMPDEST PUSH2 0x2710 DUP4 LT PUSH2 0x3BF5 JUMPI PUSH2 0x2710 DUP4 DUP2 PUSH2 0x3BEB JUMPI PUSH2 0x3BEA PUSH2 0x518A JUMP JUMPDEST JUMPDEST DIV SWAP3 POP PUSH1 0x4 DUP2 ADD SWAP1 POP JUMPDEST PUSH1 0x64 DUP4 LT PUSH2 0x3C18 JUMPI PUSH1 0x64 DUP4 DUP2 PUSH2 0x3C0E JUMPI PUSH2 0x3C0D PUSH2 0x518A JUMP JUMPDEST JUMPDEST DIV SWAP3 POP PUSH1 0x2 DUP2 ADD SWAP1 POP JUMPDEST PUSH1 0xA DUP4 LT PUSH2 0x3C27 JUMPI PUSH1 0x1 DUP2 ADD SWAP1 POP JUMPDEST DUP1 SWAP2 POP POP SWAP2 SWAP1 POP JUMP JUMPDEST PUSH1 0x60 PUSH0 DUP4 SWAP1 POP PUSH0 PUSH1 0x2 DUP5 PUSH1 0x2 PUSH2 0x3C46 SWAP2 SWAP1 PUSH2 0x51B7 JUMP JUMPDEST PUSH2 0x3C50 SWAP2 SWAP1 PUSH2 0x4958 JUMP JUMPDEST PUSH8 0xFFFFFFFFFFFFFFFF DUP2 GT ISZERO PUSH2 0x3C69 JUMPI PUSH2 0x3C68 PUSH2 0x41E0 JUMP JUMPDEST JUMPDEST PUSH1 0x40 MLOAD SWAP1 DUP1 DUP3 MSTORE DUP1 PUSH1 0x1F ADD PUSH1 0x1F NOT AND PUSH1 0x20 ADD DUP3 ADD PUSH1 0x40 MSTORE DUP1 ISZERO PUSH2 0x3C9B JUMPI DUP2 PUSH1 0x20 ADD PUSH1 0x1 DUP3 MUL DUP1 CALLDATASIZE DUP4 CALLDATACOPY DUP1 DUP3 ADD SWAP2 POP POP SWAP1 POP JUMPDEST POP SWAP1 POP PUSH32 0x3000000000000000000000000000000000000000000000000000000000000000 DUP2 PUSH0 DUP2 MLOAD DUP2 LT PUSH2 0x3CD2 JUMPI PUSH2 0x3CD1 PUSH2 0x482E JUMP JUMPDEST JUMPDEST PUSH1 0x20 ADD ADD SWAP1 PUSH31 0xFFFFFFFFFFFFFFFFFFFFFFFFFFFFFFFFFFFFFFFFFFFFFFFFFFFFFFFFFFFFFF NOT AND SWAP1 DUP2 PUSH0 BYTE SWAP1 MSTORE8 POP PUSH32 0x7800000000000000000000000000000000000000000000000000000000000000 DUP2 PUSH1 0x1 DUP2 MLOAD DUP2 LT PUSH2 0x3D35 JUMPI PUSH2 0x3D34 PUSH2 0x482E JUMP JUMPDEST JUMPDEST PUSH1 0x20 ADD ADD SWAP1 PUSH31 0xFFFFFFFFFFFFFFFFFFFFFFFFFFFFFFFFFFFFFFFFFFFFFFFFFFFFFFFFFFFFFF NOT AND SWAP1 DUP2 PUSH0 BYTE SWAP1 MSTORE8 POP PUSH0 PUSH1 0x1 DUP6 PUSH1 0x2 PUSH2 0x3D73 SWAP2 SWAP1 PUSH2 0x51B7 JUMP JUMPDEST PUSH2 0x3D7D SWAP2 SWAP1 PUSH2 0x4958 JUMP JUMPDEST SWAP1 POP JUMPDEST PUSH1 0x1 DUP2 GT ISZERO PUSH2 0x3E1C JUMPI PUSH32 0x3031323334353637383961626364656600000000000000000000000000000000 PUSH1 0xF DUP5 AND PUSH1 0x10 DUP2 LT PUSH2 0x3DBF JUMPI PUSH2 0x3DBE PUSH2 0x482E JUMP JUMPDEST JUMPDEST BYTE PUSH1 0xF8 SHL DUP3 DUP3 DUP2 MLOAD DUP2 LT PUSH2 0x3DD6 JUMPI PUSH2 0x3DD5 PUSH2 0x482E JUMP JUMPDEST JUMPDEST PUSH1 0x20 ADD ADD SWAP1 PUSH31 0xFFFFFFFFFFFFFFFFFFFFFFFFFFFFFFFFFFFFFFFFFFFFFFFFFFFFFFFFFFFFFF NOT AND SWAP1 DUP2 PUSH0 BYTE SWAP1 MSTORE8 POP PUSH1 0x4 DUP4 SWAP1 SHR SWAP3 POP DUP1 PUSH2 0x3E15 SWAP1 PUSH2 0x51F8 JUMP JUMPDEST SWAP1 POP PUSH2 0x3D80 JUMP JUMPDEST POP PUSH0 DUP3 EQ PUSH2 0x3E63 JUMPI DUP5 DUP5 PUSH1 0x40 MLOAD PUSH32 0xE22E27EB00000000000000000000000000000000000000000000000000000000 DUP2 MSTORE PUSH1 0x4 ADD PUSH2 0x3E5A SWAP3 SWAP2 SWAP1 PUSH2 0x521F JUMP JUMPDEST PUSH1 0x40 MLOAD DUP1 SWAP2 SUB SWAP1 REVERT JUMPDEST DUP1 SWAP3 POP POP POP SWAP3 SWAP2 POP POP JUMP JUMPDEST PUSH0 DUP2 MLOAD GT ISZERO PUSH2 0x3E80 JUMPI DUP1 MLOAD DUP1 DUP3 PUSH1 0x20 ADD REVERT JUMPDEST PUSH1 0x40 MLOAD PUSH32 0x1425EA4200000000000000000000000000000000000000000000000000000000 DUP2 MSTORE PUSH1 0x4 ADD PUSH1 0x40 MLOAD DUP1 SWAP2 SUB SWAP1 REVERT JUMPDEST PUSH1 0x60 DUP2 SELFBALANCE LT ISZERO PUSH2 0x3EF9 JUMPI ADDRESS PUSH1 0x40 MLOAD PUSH32 0xCD78605900000000000000000000000000000000000000000000000000000000 DUP2 MSTORE PUSH1 0x4 ADD PUSH2 0x3EF0 SWAP2 SWAP1 PUSH2 0x3FBA JUMP JUMPDEST PUSH1 0x40 MLOAD DUP1 SWAP2 SUB SWAP1 REVERT JUMPDEST PUSH0 DUP1 DUP6 PUSH20 0xFFFFFFFFFFFFFFFFFFFFFFFFFFFFFFFFFFFFFFFF AND DUP5 DUP7 PUSH1 0x40 MLOAD PUSH2 0x3F21 SWAP2 SWAP1 PUSH2 0x4D61 JUMP JUMPDEST PUSH0 PUSH1 0x40 MLOAD DUP1 DUP4 SUB DUP2 DUP6 DUP8 GAS CALL SWAP3 POP POP POP RETURNDATASIZE DUP1 PUSH0 DUP2 EQ PUSH2 0x3F5B JUMPI PUSH1 0x40 MLOAD SWAP2 POP PUSH1 0x1F NOT PUSH1 0x3F RETURNDATASIZE ADD AND DUP3 ADD PUSH1 0x40 MSTORE RETURNDATASIZE DUP3 MSTORE RETURNDATASIZE PUSH0 PUSH1 0x20 DUP5 ADD RETURNDATACOPY PUSH2 0x3F60 JUMP JUMPDEST PUSH1 0x60 SWAP2 POP JUMPDEST POP SWAP2 POP SWAP2 POP PUSH2 0x3F70 DUP7 DUP4 DUP4 PUSH2 0x3A3D JUMP JUMPDEST SWAP3 POP POP POP SWAP4 SWAP3 POP POP POP JUMP JUMPDEST PUSH0 PUSH20 0xFFFFFFFFFFFFFFFFFFFFFFFFFFFFFFFFFFFFFFFF DUP3 AND SWAP1 POP SWAP2 SWAP1 POP JUMP JUMPDEST PUSH0 PUSH2 0x3FA4 DUP3 PUSH2 0x3F7B JUMP JUMPDEST SWAP1 POP SWAP2 SWAP1 POP JUMP JUMPDEST PUSH2 0x3FB4 DUP2 PUSH2 0x3F9A JUMP JUMPDEST DUP3 MSTORE POP POP JUMP JUMPDEST PUSH0 PUSH1 0x20 DUP3 ADD SWAP1 POP PUSH2 0x3FCD PUSH0 DUP4 ADD DUP5 PUSH2 0x3FAB JUMP JUMPDEST SWAP3 SWAP2 POP POP JUMP JUMPDEST PUSH0 DUP2 SWAP1 POP SWAP2 SWAP1 POP JUMP JUMPDEST PUSH2 0x3FE5 DUP2 PUSH2 0x3FD3 JUMP JUMPDEST DUP3 MSTORE POP POP JUMP JUMPDEST PUSH0 PUSH1 0x20 DUP3 ADD SWAP1 POP PUSH2 0x3FFE PUSH0 DUP4 ADD DUP5 PUSH2 0x3FDC JUMP JUMPDEST SWAP3 SWAP2 POP POP JUMP JUMPDEST PUSH0 PUSH1 0x40 MLOAD SWAP1 POP SWAP1 JUMP JUMPDEST PUSH0 DUP1 REVERT JUMPDEST PUSH0 DUP1 REVERT JUMPDEST PUSH2 0x401E DUP2 PUSH2 0x3F9A JUMP JUMPDEST DUP2 EQ PUSH2 0x4028 JUMPI PUSH0 DUP1 REVERT JUMPDEST POP JUMP JUMPDEST PUSH0 DUP2 CALLDATALOAD SWAP1 POP PUSH2 0x4039 DUP2 PUSH2 0x4015 JUMP JUMPDEST SWAP3 SWAP2 POP POP JUMP JUMPDEST PUSH0 PUSH1 0x20 DUP3 DUP5 SUB SLT ISZERO PUSH2 0x4054 JUMPI PUSH2 0x4053 PUSH2 0x400D JUMP JUMPDEST JUMPDEST PUSH0 PUSH2 0x4061 DUP5 DUP3 DUP6 ADD PUSH2 0x402B JUMP JUMPDEST SWAP2 POP POP SWAP3 SWAP2 POP POP JUMP JUMPDEST PUSH0 DUP2 SWAP1 POP SWAP2 SWAP1 POP JUMP JUMPDEST PUSH2 0x407C DUP2 PUSH2 0x406A JUMP JUMPDEST DUP3 MSTORE POP POP JUMP JUMPDEST PUSH0 PUSH1 0x20 DUP3 ADD SWAP1 POP PUSH2 0x4095 PUSH0 DUP4 ADD DUP5 PUSH2 0x4073 JUMP JUMPDEST SWAP3 SWAP2 POP POP JUMP JUMPDEST PUSH0 DUP2 ISZERO ISZERO SWAP1 POP SWAP2 SWAP1 POP JUMP JUMPDEST PUSH2 0x40AF DUP2 PUSH2 0x409B JUMP JUMPDEST DUP2 EQ PUSH2 0x40B9 JUMPI PUSH0 DUP1 REVERT JUMPDEST POP JUMP JUMPDEST PUSH0 DUP2 CALLDATALOAD SWAP1 POP PUSH2 0x40CA DUP2 PUSH2 0x40A6 JUMP JUMPDEST SWAP3 SWAP2 POP POP JUMP JUMPDEST PUSH0 DUP1 PUSH1 0x40 DUP4 DUP6 SUB SLT ISZERO PUSH2 0x40E6 JUMPI PUSH2 0x40E5 PUSH2 0x400D JUMP JUMPDEST JUMPDEST PUSH0 PUSH2 0x40F3 DUP6 DUP3 DUP7 ADD PUSH2 0x402B JUMP JUMPDEST SWAP3 POP POP PUSH1 0x20 PUSH2 0x4104 DUP6 DUP3 DUP7 ADD PUSH2 0x40BC JUMP JUMPDEST SWAP2 POP POP SWAP3 POP SWAP3 SWAP1 POP JUMP JUMPDEST PUSH0 DUP1 REVERT JUMPDEST PUSH0 DUP1 REVERT JUMPDEST PUSH0 DUP1 REVERT JUMPDEST PUSH0 DUP1 DUP4 PUSH1 0x1F DUP5 ADD SLT PUSH2 0x412F JUMPI PUSH2 0x412E PUSH2 0x410E JUMP JUMPDEST JUMPDEST DUP3 CALLDATALOAD SWAP1 POP PUSH8 0xFFFFFFFFFFFFFFFF DUP2 GT ISZERO PUSH2 0x414C JUMPI PUSH2 0x414B PUSH2 0x4112 JUMP JUMPDEST JUMPDEST PUSH1 0x20 DUP4 ADD SWAP2 POP DUP4 PUSH1 0x20 DUP3 MUL DUP4 ADD GT ISZERO PUSH2 0x4168 JUMPI PUSH2 0x4167 PUSH2 0x4116 JUMP JUMPDEST JUMPDEST SWAP3 POP SWAP3 SWAP1 POP JUMP JUMPDEST PUSH0 DUP1 PUSH0 PUSH1 0x40 DUP5 DUP7 SUB SLT ISZERO PUSH2 0x4186 JUMPI PUSH2 0x4185 PUSH2 0x400D JUMP JUMPDEST JUMPDEST PUSH0 PUSH2 0x4193 DUP7 DUP3 DUP8 ADD PUSH2 0x402B JUMP JUMPDEST SWAP4 POP POP PUSH1 0x20 DUP5 ADD CALLDATALOAD PUSH8 0xFFFFFFFFFFFFFFFF DUP2 GT ISZERO PUSH2 0x41B4 JUMPI PUSH2 0x41B3 PUSH2 0x4011 JUMP JUMPDEST JUMPDEST PUSH2 0x41C0 DUP7 DUP3 DUP8 ADD PUSH2 0x411A JUMP JUMPDEST SWAP3 POP SWAP3 POP POP SWAP3 POP SWAP3 POP SWAP3 JUMP JUMPDEST PUSH0 DUP1 REVERT JUMPDEST PUSH0 PUSH1 0x1F NOT PUSH1 0x1F DUP4 ADD AND SWAP1 POP SWAP2 SWAP1 POP JUMP JUMPDEST PUSH32 0x4E487B7100000000000000000000000000000000000000000000000000000000 PUSH0 MSTORE PUSH1 0x41 PUSH1 0x4 MSTORE PUSH1 0x24 PUSH0 REVERT JUMPDEST PUSH2 0x4216 DUP3 PUSH2 0x41D0 JUMP JUMPDEST DUP2 ADD DUP2 DUP2 LT PUSH8 0xFFFFFFFFFFFFFFFF DUP3 GT OR ISZERO PUSH2 0x4235 JUMPI PUSH2 0x4234 PUSH2 0x41E0 JUMP JUMPDEST JUMPDEST DUP1 PUSH1 0x40 MSTORE POP POP POP JUMP JUMPDEST PUSH0 PUSH2 0x4247 PUSH2 0x4004 JUMP JUMPDEST SWAP1 POP PUSH2 0x4253 DUP3 DUP3 PUSH2 0x420D JUMP JUMPDEST SWAP2 SWAP1 POP JUMP JUMPDEST PUSH0 PUSH8 0xFFFFFFFFFFFFFFFF DUP3 GT ISZERO PUSH2 0x4272 JUMPI PUSH2 0x4271 PUSH2 0x41E0 JUMP JUMPDEST JUMPDEST PUSH2 0x427B DUP3 PUSH2 0x41D0 JUMP JUMPDEST SWAP1 POP PUSH1 0x20 DUP2 ADD SWAP1 POP SWAP2 SWAP1 POP JUMP JUMPDEST DUP3 DUP2 DUP4 CALLDATACOPY PUSH0 DUP4 DUP4 ADD MSTORE POP POP POP JUMP JUMPDEST PUSH0 PUSH2 0x42A8 PUSH2 0x42A3 DUP5 PUSH2 0x4258 JUMP JUMPDEST PUSH2 0x423E JUMP JUMPDEST SWAP1 POP DUP3 DUP2 MSTORE PUSH1 0x20 DUP2 ADD DUP5 DUP5 DUP5 ADD GT ISZERO PUSH2 0x42C4 JUMPI PUSH2 0x42C3 PUSH2 0x41CC JUMP JUMPDEST JUMPDEST PUSH2 0x42CF DUP5 DUP3 DUP6 PUSH2 0x4288 JUMP JUMPDEST POP SWAP4 SWAP3 POP POP POP JUMP JUMPDEST PUSH0 DUP3 PUSH1 0x1F DUP4 ADD SLT PUSH2 0x42EB JUMPI PUSH2 0x42EA PUSH2 0x410E JUMP JUMPDEST JUMPDEST DUP2 CALLDATALOAD PUSH2 0x42FB DUP5 DUP3 PUSH1 0x20 DUP7 ADD PUSH2 0x4296 JUMP JUMPDEST SWAP2 POP POP SWAP3 SWAP2 POP POP JUMP JUMPDEST PUSH0 DUP1 PUSH1 0x40 DUP4 DUP6 SUB SLT ISZERO PUSH2 0x431A JUMPI PUSH2 0x4319 PUSH2 0x400D JUMP JUMPDEST JUMPDEST PUSH0 PUSH2 0x4327 DUP6 DUP3 DUP7 ADD PUSH2 0x402B JUMP JUMPDEST SWAP3 POP POP PUSH1 0x20 DUP4 ADD CALLDATALOAD PUSH8 0xFFFFFFFFFFFFFFFF DUP2 GT ISZERO PUSH2 0x4348 JUMPI PUSH2 0x4347 PUSH2 0x4011 JUMP JUMPDEST JUMPDEST PUSH2 0x4354 DUP6 DUP3 DUP7 ADD PUSH2 0x42D7 JUMP JUMPDEST SWAP2 POP POP SWAP3 POP SWAP3 SWAP1 POP JUMP JUMPDEST PUSH2 0x4367 DUP2 PUSH2 0x409B JUMP JUMPDEST DUP3 MSTORE POP POP JUMP JUMPDEST PUSH0 PUSH1 0x20 DUP3 ADD SWAP1 POP PUSH2 0x4380 PUSH0 DUP4 ADD DUP5 PUSH2 0x435E JUMP JUMPDEST SWAP3 SWAP2 POP POP JUMP JUMPDEST PUSH0 DUP2 SWAP1 POP SWAP2 SWAP1 POP JUMP JUMPDEST PUSH0 PUSH2 0x43A9 PUSH2 0x43A4 PUSH2 0x439F DUP5 PUSH2 0x3F7B JUMP JUMPDEST PUSH2 0x4386 JUMP JUMPDEST PUSH2 0x3F7B JUMP JUMPDEST SWAP1 POP SWAP2 SWAP1 POP JUMP JUMPDEST PUSH0 PUSH2 0x43BA DUP3 PUSH2 0x438F JUMP JUMPDEST SWAP1 POP SWAP2 SWAP1 POP JUMP JUMPDEST PUSH0 PUSH2 0x43CB DUP3 PUSH2 0x43B0 JUMP JUMPDEST SWAP1 POP SWAP2 SWAP1 POP JUMP JUMPDEST PUSH2 0x43DB DUP2 PUSH2 0x43C1 JUMP JUMPDEST DUP3 MSTORE POP POP JUMP JUMPDEST PUSH0 PUSH1 0x20 DUP3 ADD SWAP1 POP PUSH2 0x43F4 PUSH0 DUP4 ADD DUP5 PUSH2 0x43D2 JUMP JUMPDEST SWAP3 SWAP2 POP POP JUMP JUMPDEST PUSH2 0x4403 DUP2 PUSH2 0x3FD3 JUMP JUMPDEST DUP2 EQ PUSH2 0x440D JUMPI PUSH0 DUP1 REVERT JUMPDEST POP JUMP JUMPDEST PUSH0 DUP2 CALLDATALOAD SWAP1 POP PUSH2 0x441E DUP2 PUSH2 0x43FA JUMP JUMPDEST SWAP3 SWAP2 POP POP JUMP JUMPDEST PUSH0 DUP1 PUSH0 DUP1 PUSH1 0x80 DUP6 DUP8 SUB SLT ISZERO PUSH2 0x443C JUMPI PUSH2 0x443B PUSH2 0x400D JUMP JUMPDEST JUMPDEST PUSH0 PUSH2 0x4449 DUP8 DUP3 DUP9 ADD PUSH2 0x402B JUMP JUMPDEST SWAP5 POP POP PUSH1 0x20 PUSH2 0x445A DUP8 DUP3 DUP9 ADD PUSH2 0x4410 JUMP JUMPDEST SWAP4 POP POP PUSH1 0x40 PUSH2 0x446B DUP8 DUP3 DUP9 ADD PUSH2 0x402B JUMP JUMPDEST SWAP3 POP POP PUSH1 0x60 PUSH2 0x447C DUP8 DUP3 DUP9 ADD PUSH2 0x402B JUMP JUMPDEST SWAP2 POP POP SWAP3 SWAP6 SWAP2 SWAP5 POP SWAP3 POP JUMP JUMPDEST PUSH0 DUP1 PUSH1 0x40 DUP4 DUP6 SUB SLT ISZERO PUSH2 0x449E JUMPI PUSH2 0x449D PUSH2 0x400D JUMP JUMPDEST JUMPDEST PUSH0 PUSH2 0x44AB DUP6 DUP3 DUP7 ADD PUSH2 0x402B JUMP JUMPDEST SWAP3 POP POP PUSH1 0x20 PUSH2 0x44BC DUP6 DUP3 DUP7 ADD PUSH2 0x402B JUMP JUMPDEST SWAP2 POP POP SWAP3 POP SWAP3 SWAP1 POP JUMP JUMPDEST PUSH0 DUP1 PUSH0 PUSH1 0x60 DUP5 DUP7 SUB SLT ISZERO PUSH2 0x44DD JUMPI PUSH2 0x44DC PUSH2 0x400D JUMP JUMPDEST JUMPDEST PUSH0 PUSH2 0x44EA DUP7 DUP3 DUP8 ADD PUSH2 0x4410 JUMP JUMPDEST SWAP4 POP POP PUSH1 0x20 PUSH2 0x44FB DUP7 DUP3 DUP8 ADD PUSH2 0x402B JUMP JUMPDEST SWAP3 POP POP PUSH1 0x40 PUSH2 0x450C DUP7 DUP3 DUP8 ADD PUSH2 0x4410 JUMP JUMPDEST SWAP2 POP POP SWAP3 POP SWAP3 POP SWAP3 JUMP JUMPDEST PUSH0 PUSH32 0xFFFFFFFF00000000000000000000000000000000000000000000000000000000 DUP3 AND SWAP1 POP SWAP2 SWAP1 POP JUMP JUMPDEST PUSH2 0x454A DUP2 PUSH2 0x4516 JUMP JUMPDEST DUP3 MSTORE POP POP JUMP JUMPDEST PUSH0 PUSH1 0x20 DUP3 ADD SWAP1 POP PUSH2 0x4563 PUSH0 DUP4 ADD DUP5 PUSH2 0x4541 JUMP JUMPDEST SWAP3 SWAP2 POP POP JUMP JUMPDEST PUSH0 PUSH12 0xFFFFFFFFFFFFFFFFFFFFFFFF DUP3 AND SWAP1 POP SWAP2 SWAP1 POP JUMP JUMPDEST PUSH2 0x4589 DUP2 PUSH2 0x4569 JUMP JUMPDEST DUP2 EQ PUSH2 0x4593 JUMPI PUSH0 DUP1 REVERT JUMPDEST POP JUMP JUMPDEST PUSH0 DUP2 CALLDATALOAD SWAP1 POP PUSH2 0x45A4 DUP2 PUSH2 0x4580 JUMP JUMPDEST SWAP3 SWAP2 POP POP JUMP JUMPDEST PUSH0 DUP1 PUSH0 PUSH1 0x60 DUP5 DUP7 SUB SLT ISZERO PUSH2 0x45C1 JUMPI PUSH2 0x45C0 PUSH2 0x400D JUMP JUMPDEST JUMPDEST PUSH0 PUSH2 0x45CE DUP7 DUP3 DUP8 ADD PUSH2 0x402B JUMP JUMPDEST SWAP4 POP POP PUSH1 0x20 PUSH2 0x45DF DUP7 DUP3 DUP8 ADD PUSH2 0x402B JUMP JUMPDEST SWAP3 POP POP PUSH1 0x40 PUSH2 0x45F0 DUP7 DUP3 DUP8 ADD PUSH2 0x4596 JUMP JUMPDEST SWAP2 POP POP SWAP3 POP SWAP3 POP SWAP3 JUMP JUMPDEST PUSH0 DUP2 MLOAD SWAP1 POP SWAP2 SWAP1 POP JUMP JUMPDEST PUSH0 DUP3 DUP3 MSTORE PUSH1 0x20 DUP3 ADD SWAP1 POP SWAP3 SWAP2 POP POP JUMP JUMPDEST DUP3 DUP2 DUP4 MCOPY PUSH0 DUP4 DUP4 ADD MSTORE POP POP POP JUMP JUMPDEST PUSH0 PUSH2 0x462C DUP3 PUSH2 0x45FA JUMP JUMPDEST PUSH2 0x4636 DUP2 DUP6 PUSH2 0x4604 JUMP JUMPDEST SWAP4 POP PUSH2 0x4646 DUP2 DUP6 PUSH1 0x20 DUP7 ADD PUSH2 0x4614 JUMP JUMPDEST PUSH2 0x464F DUP2 PUSH2 0x41D0 JUMP JUMPDEST DUP5 ADD SWAP2 POP POP SWAP3 SWAP2 POP POP JUMP JUMPDEST PUSH0 PUSH1 0x20 DUP3 ADD SWAP1 POP DUP2 DUP2 SUB PUSH0 DUP4 ADD MSTORE PUSH2 0x4672 DUP2 DUP5 PUSH2 0x4622 JUMP JUMPDEST SWAP1 POP SWAP3 SWAP2 POP POP JUMP JUMPDEST PUSH0 DUP1 PUSH0 PUSH1 0x60 DUP5 DUP7 SUB SLT ISZERO PUSH2 0x4691 JUMPI PUSH2 0x4690 PUSH2 0x400D JUMP JUMPDEST JUMPDEST PUSH0 PUSH2 0x469E DUP7 DUP3 DUP8 ADD PUSH2 0x402B JUMP JUMPDEST SWAP4 POP POP PUSH1 0x20 PUSH2 0x46AF DUP7 DUP3 DUP8 ADD PUSH2 0x4410 JUMP JUMPDEST SWAP3 POP POP PUSH1 0x40 PUSH2 0x46C0 DUP7 DUP3 DUP8 ADD PUSH2 0x4410 JUMP JUMPDEST SWAP2 POP POP SWAP3 POP SWAP3 POP SWAP3 JUMP JUMPDEST PUSH0 DUP2 MLOAD SWAP1 POP SWAP2 SWAP1 POP JUMP JUMPDEST PUSH0 DUP3 DUP3 MSTORE PUSH1 0x20 DUP3 ADD SWAP1 POP SWAP3 SWAP2 POP POP JUMP JUMPDEST PUSH0 DUP2 SWAP1 POP PUSH1 0x20 DUP3 ADD SWAP1 POP SWAP2 SWAP1 POP JUMP JUMPDEST PUSH2 0x46FC DUP2 PUSH2 0x3F9A JUMP JUMPDEST DUP3 MSTORE POP POP JUMP JUMPDEST PUSH0 PUSH2 0x470D DUP4 DUP4 PUSH2 0x46F3 JUMP JUMPDEST PUSH1 0x20 DUP4 ADD SWAP1 POP SWAP3 SWAP2 POP POP JUMP JUMPDEST PUSH0 PUSH1 0x20 DUP3 ADD SWAP1 POP SWAP2 SWAP1 POP JUMP JUMPDEST PUSH0 PUSH2 0x472F DUP3 PUSH2 0x46CA JUMP JUMPDEST PUSH2 0x4739 DUP2 DUP6 PUSH2 0x46D4 JUMP JUMPDEST SWAP4 POP PUSH2 0x4744 DUP4 PUSH2 0x46E4 JUMP JUMPDEST DUP1 PUSH0 JUMPDEST DUP4 DUP2 LT ISZERO PUSH2 0x4774 JUMPI DUP2 MLOAD PUSH2 0x475B DUP9 DUP3 PUSH2 0x4702 JUMP JUMPDEST SWAP8 POP PUSH2 0x4766 DUP4 PUSH2 0x4719 JUMP JUMPDEST SWAP3 POP POP PUSH1 0x1 DUP2 ADD SWAP1 POP PUSH2 0x4747 JUMP JUMPDEST POP DUP6 SWAP4 POP POP POP POP SWAP3 SWAP2 POP POP JUMP JUMPDEST PUSH0 PUSH1 0x20 DUP3 ADD SWAP1 POP DUP2 DUP2 SUB PUSH0 DUP4 ADD MSTORE PUSH2 0x4799 DUP2 DUP5 PUSH2 0x4725 JUMP JUMPDEST SWAP1 POP SWAP3 SWAP2 POP POP JUMP JUMPDEST PUSH2 0x47AA DUP2 PUSH2 0x4569 JUMP JUMPDEST DUP3 MSTORE POP POP JUMP JUMPDEST PUSH0 PUSH1 0x20 DUP3 ADD SWAP1 POP PUSH2 0x47C3 PUSH0 DUP4 ADD DUP5 PUSH2 0x47A1 JUMP JUMPDEST SWAP3 SWAP2 POP POP JUMP JUMPDEST PUSH0 DUP2 SWAP1 POP SWAP2 SWAP1 POP JUMP JUMPDEST PUSH0 PUSH8 0xFFFFFFFFFFFFFFFF DUP3 AND SWAP1 POP SWAP2 SWAP1 POP JUMP JUMPDEST PUSH0 PUSH2 0x47FF PUSH2 0x47FA PUSH2 0x47F5 DUP5 PUSH2 0x47C9 JUMP JUMPDEST PUSH2 0x4386 JUMP JUMPDEST PUSH2 0x47D2 JUMP JUMPDEST SWAP1 POP SWAP2 SWAP1 POP JUMP JUMPDEST PUSH2 0x480F DUP2 PUSH2 0x47E5 JUMP JUMPDEST DUP3 MSTORE POP POP JUMP JUMPDEST PUSH0 PUSH1 0x20 DUP3 ADD SWAP1 POP PUSH2 0x4828 PUSH0 DUP4 ADD DUP5 PUSH2 0x4806 JUMP JUMPDEST SWAP3 SWAP2 POP POP JUMP JUMPDEST PUSH32 0x4E487B7100000000000000000000000000000000000000000000000000000000 PUSH0 MSTORE PUSH1 0x32 PUSH1 0x4 MSTORE PUSH1 0x24 PUSH0 REVERT JUMPDEST PUSH32 0x7472656173757279000000000000000000000000000000000000000000000000 PUSH0 DUP3 ADD MSTORE POP JUMP JUMPDEST PUSH0 PUSH2 0x488F PUSH1 0x8 DUP4 PUSH2 0x4604 JUMP JUMPDEST SWAP2 POP PUSH2 0x489A DUP3 PUSH2 0x485B JUMP JUMPDEST PUSH1 0x20 DUP3 ADD SWAP1 POP SWAP2 SWAP1 POP JUMP JUMPDEST PUSH0 PUSH1 0x20 DUP3 ADD SWAP1 POP DUP2 DUP2 SUB PUSH0 DUP4 ADD MSTORE PUSH2 0x48BC DUP2 PUSH2 0x4883 JUMP JUMPDEST SWAP1 POP SWAP2 SWAP1 POP JUMP JUMPDEST PUSH32 0x666565546F6B656E000000000000000000000000000000000000000000000000 PUSH0 DUP3 ADD MSTORE POP JUMP JUMPDEST PUSH0 PUSH2 0x48F7 PUSH1 0x8 DUP4 PUSH2 0x4604 JUMP JUMPDEST SWAP2 POP PUSH2 0x4902 DUP3 PUSH2 0x48C3 JUMP JUMPDEST PUSH1 0x20 DUP3 ADD SWAP1 POP SWAP2 SWAP1 POP JUMP JUMPDEST PUSH0 PUSH1 0x20 DUP3 ADD SWAP1 POP DUP2 DUP2 SUB PUSH0 DUP4 ADD MSTORE PUSH2 0x4924 DUP2 PUSH2 0x48EB JUMP JUMPDEST SWAP1 POP SWAP2 SWAP1 POP JUMP JUMPDEST PUSH32 0x4E487B7100000000000000000000000000000000000000000000000000000000 PUSH0 MSTORE PUSH1 0x11 PUSH1 0x4 MSTORE PUSH1 0x24 PUSH0 REVERT JUMPDEST PUSH0 PUSH2 0x4962 DUP3 PUSH2 0x3FD3 JUMP JUMPDEST SWAP2 POP PUSH2 0x496D DUP4 PUSH2 0x3FD3 JUMP JUMPDEST SWAP3 POP DUP3 DUP3 ADD SWAP1 POP DUP1 DUP3 GT ISZERO PUSH2 0x4985 JUMPI PUSH2 0x4984 PUSH2 0x492B JUMP JUMPDEST JUMPDEST SWAP3 SWAP2 POP POP JUMP JUMPDEST PUSH0 PUSH2 0x4995 DUP3 PUSH2 0x3FD3 JUMP JUMPDEST SWAP2 POP PUSH2 0x49A0 DUP4 PUSH2 0x3FD3 JUMP JUMPDEST SWAP3 POP DUP3 DUP3 SUB SWAP1 POP DUP2 DUP2 GT ISZERO PUSH2 0x49B8 JUMPI PUSH2 0x49B7 PUSH2 0x492B JUMP JUMPDEST JUMPDEST SWAP3 SWAP2 POP POP JUMP JUMPDEST PUSH0 DUP1 REVERT JUMPDEST PUSH0 DUP1 REVERT JUMPDEST PUSH0 DUP1 DUP6 DUP6 GT ISZERO PUSH2 0x49D9 JUMPI PUSH2 0x49D8 PUSH2 0x49BE JUMP JUMPDEST JUMPDEST DUP4 DUP7 GT ISZERO PUSH2 0x49EA JUMPI PUSH2 0x49E9 PUSH2 0x49C2 JUMP JUMPDEST JUMPDEST PUSH1 0x1 DUP6 MUL DUP4 ADD SWAP2 POP DUP5 DUP7 SUB SWAP1 POP SWAP5 POP SWAP5 SWAP3 POP POP POP JUMP JUMPDEST PUSH0 DUP3 SWAP1 POP SWAP3 SWAP2 POP POP JUMP JUMPDEST PUSH0 DUP3 DUP3 SHL SWAP1 POP SWAP3 SWAP2 POP POP JUMP JUMPDEST PUSH0 PUSH2 0x4A21 DUP4 DUP4 PUSH2 0x4A00 JUMP JUMPDEST DUP3 PUSH2 0x4A2C DUP2 CALLDATALOAD PUSH2 0x4516 JUMP JUMPDEST SWAP3 POP PUSH1 0x4 DUP3 LT ISZERO PUSH2 0x4A6C JUMPI PUSH2 0x4A67 PUSH32 0xFFFFFFFF00000000000000000000000000000000000000000000000000000000 DUP4 PUSH1 0x4 SUB PUSH1 0x8 MUL PUSH2 0x4A0A JUMP JUMPDEST DUP4 AND SWAP3 POP JUMPDEST POP POP SWAP3 SWAP2 POP POP JUMP JUMPDEST PUSH0 DUP3 DUP3 MSTORE PUSH1 0x20 DUP3 ADD SWAP1 POP SWAP3 SWAP2 POP POP JUMP JUMPDEST PUSH0 PUSH2 0x4A8F DUP4 DUP6 PUSH2 0x4A74 JUMP JUMPDEST SWAP4 POP PUSH2 0x4A9C DUP4 DUP6 DUP5 PUSH2 0x4288 JUMP JUMPDEST PUSH2 0x4AA5 DUP4 PUSH2 0x41D0 JUMP JUMPDEST DUP5 ADD SWAP1 POP SWAP4 SWAP3 POP POP POP JUMP JUMPDEST PUSH0 PUSH1 0x40 DUP3 ADD SWAP1 POP PUSH2 0x4AC3 PUSH0 DUP4 ADD DUP7 PUSH2 0x3FAB JUMP JUMPDEST DUP2 DUP2 SUB PUSH1 0x20 DUP4 ADD MSTORE PUSH2 0x4AD6 DUP2 DUP5 DUP7 PUSH2 0x4A84 JUMP JUMPDEST SWAP1 POP SWAP5 SWAP4 POP POP POP POP JUMP JUMPDEST PUSH0 DUP2 MLOAD SWAP1 POP PUSH2 0x4AEE DUP2 PUSH2 0x43FA JUMP JUMPDEST SWAP3 SWAP2 POP POP JUMP JUMPDEST PUSH0 DUP2 MLOAD SWAP1 POP PUSH2 0x4B02 DUP2 PUSH2 0x4015 JUMP JUMPDEST SWAP3 SWAP2 POP POP JUMP JUMPDEST PUSH0 DUP1 PUSH0 PUSH1 0x60 DUP5 DUP7 SUB SLT ISZERO PUSH2 0x4B1F JUMPI PUSH2 0x4B1E PUSH2 0x400D JUMP JUMPDEST JUMPDEST PUSH0 PUSH2 0x4B2C DUP7 DUP3 DUP8 ADD PUSH2 0x4AE0 JUMP JUMPDEST SWAP4 POP POP PUSH1 0x20 PUSH2 0x4B3D DUP7 DUP3 DUP8 ADD PUSH2 0x4AF4 JUMP JUMPDEST SWAP3 POP POP PUSH1 0x40 PUSH2 0x4B4E DUP7 DUP3 DUP8 ADD PUSH2 0x4AE0 JUMP JUMPDEST SWAP2 POP POP SWAP3 POP SWAP3 POP SWAP3 JUMP JUMPDEST PUSH2 0x4B61 DUP2 PUSH2 0x406A JUMP JUMPDEST DUP2 EQ PUSH2 0x4B6B JUMPI PUSH0 DUP1 REVERT JUMPDEST POP JUMP JUMPDEST PUSH0 DUP2 MLOAD SWAP1 POP PUSH2 0x4B7C DUP2 PUSH2 0x4B58 JUMP JUMPDEST SWAP3 SWAP2 POP POP JUMP JUMPDEST PUSH0 PUSH1 0x20 DUP3 DUP5 SUB SLT ISZERO PUSH2 0x4B97 JUMPI PUSH2 0x4B96 PUSH2 0x400D JUMP JUMPDEST JUMPDEST PUSH0 PUSH2 0x4BA4 DUP5 DUP3 DUP6 ADD PUSH2 0x4B6E JUMP JUMPDEST SWAP2 POP POP SWAP3 SWAP2 POP POP JUMP JUMPDEST PUSH0 PUSH2 0x4BB7 DUP3 PUSH2 0x3FD3 JUMP JUMPDEST SWAP2 POP PUSH32 0xFFFFFFFFFFFFFFFFFFFFFFFFFFFFFFFFFFFFFFFFFFFFFFFFFFFFFFFFFFFFFFFF DUP3 SUB PUSH2 0x4BE9 JUMPI PUSH2 0x4BE8 PUSH2 0x492B JUMP JUMPDEST JUMPDEST PUSH1 0x1 DUP3 ADD SWAP1 POP SWAP2 SWAP1 POP JUMP JUMPDEST PUSH0 PUSH1 0x80 DUP3 ADD SWAP1 POP PUSH2 0x4C07 PUSH0 DUP4 ADD DUP8 PUSH2 0x3FAB JUMP JUMPDEST DUP2 DUP2 SUB PUSH1 0x20 DUP4 ADD MSTORE PUSH2 0x4C19 DUP2 DUP7 PUSH2 0x4622 JUMP JUMPDEST SWAP1 POP DUP2 DUP2 SUB PUSH1 0x40 DUP4 ADD MSTORE PUSH2 0x4C2D DUP2 DUP6 PUSH2 0x4622 JUMP JUMPDEST SWAP1 POP PUSH2 0x4C3C PUSH1 0x60 DUP4 ADD DUP5 PUSH2 0x3FDC JUMP JUMPDEST SWAP6 SWAP5 POP POP POP POP POP JUMP JUMPDEST PUSH0 PUSH1 0x40 DUP3 ADD SWAP1 POP PUSH2 0x4C58 PUSH0 DUP4 ADD DUP6 PUSH2 0x4073 JUMP JUMPDEST PUSH2 0x4C65 PUSH1 0x20 DUP4 ADD DUP5 PUSH2 0x4073 JUMP JUMPDEST SWAP4 SWAP3 POP POP POP JUMP JUMPDEST PUSH0 PUSH1 0xA0 DUP3 ADD SWAP1 POP PUSH2 0x4C7F PUSH0 DUP4 ADD DUP9 PUSH2 0x3FAB JUMP JUMPDEST PUSH2 0x4C8C PUSH1 0x20 DUP4 ADD DUP8 PUSH2 0x4073 JUMP JUMPDEST PUSH2 0x4C99 PUSH1 0x40 DUP4 ADD DUP7 PUSH2 0x3FDC JUMP JUMPDEST PUSH2 0x4CA6 PUSH1 0x60 DUP4 ADD DUP6 PUSH2 0x3FAB JUMP JUMPDEST PUSH2 0x4CB3 PUSH1 0x80 DUP4 ADD DUP5 PUSH2 0x3FDC JUMP JUMPDEST SWAP7 SWAP6 POP POP POP POP POP POP JUMP JUMPDEST PUSH0 PUSH1 0x20 DUP3 DUP5 SUB SLT ISZERO PUSH2 0x4CD2 JUMPI PUSH2 0x4CD1 PUSH2 0x400D JUMP JUMPDEST JUMPDEST PUSH0 PUSH2 0x4CDF DUP5 DUP3 DUP6 ADD PUSH2 0x4AF4 JUMP JUMPDEST SWAP2 POP POP SWAP3 SWAP2 POP POP JUMP JUMPDEST PUSH0 PUSH1 0x60 DUP3 ADD SWAP1 POP PUSH2 0x4CFB PUSH0 DUP4 ADD DUP7 PUSH2 0x3FAB JUMP JUMPDEST PUSH2 0x4D08 PUSH1 0x20 DUP4 ADD DUP6 PUSH2 0x3FAB JUMP JUMPDEST PUSH2 0x4D15 PUSH1 0x40 DUP4 ADD DUP5 PUSH2 0x4541 JUMP JUMPDEST SWAP5 SWAP4 POP POP POP POP JUMP JUMPDEST PUSH0 DUP2 MLOAD SWAP1 POP SWAP2 SWAP1 POP JUMP JUMPDEST PUSH0 DUP2 SWAP1 POP SWAP3 SWAP2 POP POP JUMP JUMPDEST PUSH0 PUSH2 0x4D3B DUP3 PUSH2 0x4D1D JUMP JUMPDEST PUSH2 0x4D45 DUP2 DUP6 PUSH2 0x4D27 JUMP JUMPDEST SWAP4 POP PUSH2 0x4D55 DUP2 DUP6 PUSH1 0x20 DUP7 ADD PUSH2 0x4614 JUMP JUMPDEST DUP1 DUP5 ADD SWAP2 POP POP SWAP3 SWAP2 POP POP JUMP JUMPDEST PUSH0 PUSH2 0x4D6C DUP3 DUP5 PUSH2 0x4D31 JUMP JUMPDEST SWAP2 POP DUP2 SWAP1 POP SWAP3 SWAP2 POP POP JUMP JUMPDEST PUSH0 DUP2 MLOAD SWAP1 POP PUSH2 0x4D85 DUP2 PUSH2 0x40A6 JUMP JUMPDEST SWAP3 SWAP2 POP POP JUMP JUMPDEST PUSH0 PUSH4 0xFFFFFFFF DUP3 AND SWAP1 POP SWAP2 SWAP1 POP JUMP JUMPDEST PUSH2 0x4DA3 DUP2 PUSH2 0x4D8B JUMP JUMPDEST DUP2 EQ PUSH2 0x4DAD JUMPI PUSH0 DUP1 REVERT JUMPDEST POP JUMP JUMPDEST PUSH0 DUP2 MLOAD SWAP1 POP PUSH2 0x4DBE DUP2 PUSH2 0x4D9A JUMP JUMPDEST SWAP3 SWAP2 POP POP JUMP JUMPDEST PUSH0 DUP1 PUSH1 0x40 DUP4 DUP6 SUB SLT ISZERO PUSH2 0x4DDA JUMPI PUSH2 0x4DD9 PUSH2 0x400D JUMP JUMPDEST JUMPDEST PUSH0 PUSH2 0x4DE7 DUP6 DUP3 DUP7 ADD PUSH2 0x4D77 JUMP JUMPDEST SWAP3 POP POP PUSH1 0x20 PUSH2 0x4DF8 DUP6 DUP3 DUP7 ADD PUSH2 0x4DB0 JUMP JUMPDEST SWAP2 POP POP SWAP3 POP SWAP3 SWAP1 POP JUMP JUMPDEST PUSH0 PUSH1 0x20 DUP3 DUP5 SUB SLT ISZERO PUSH2 0x4E17 JUMPI PUSH2 0x4E16 PUSH2 0x400D JUMP JUMPDEST JUMPDEST PUSH0 PUSH2 0x4E24 DUP5 DUP3 DUP6 ADD PUSH2 0x4D77 JUMP JUMPDEST SWAP2 POP POP SWAP3 SWAP2 POP POP JUMP JUMPDEST PUSH0 PUSH2 0x4E3F PUSH2 0x4E3A DUP5 PUSH2 0x4258 JUMP JUMPDEST PUSH2 0x423E JUMP JUMPDEST SWAP1 POP DUP3 DUP2 MSTORE PUSH1 0x20 DUP2 ADD DUP5 DUP5 DUP5 ADD GT ISZERO PUSH2 0x4E5B JUMPI PUSH2 0x4E5A PUSH2 0x41CC JUMP JUMPDEST JUMPDEST PUSH2 0x4E66 DUP5 DUP3 DUP6 PUSH2 0x4614 JUMP JUMPDEST POP SWAP4 SWAP3 POP POP POP JUMP JUMPDEST PUSH0 DUP3 PUSH1 0x1F DUP4 ADD SLT PUSH2 0x4E82 JUMPI PUSH2 0x4E81 PUSH2 0x410E JUMP JUMPDEST JUMPDEST DUP2 MLOAD PUSH2 0x4E92 DUP5 DUP3 PUSH1 0x20 DUP7 ADD PUSH2 0x4E2D JUMP JUMPDEST SWAP2 POP POP SWAP3 SWAP2 POP POP JUMP JUMPDEST PUSH0 PUSH1 0x20 DUP3 DUP5 SUB SLT ISZERO PUSH2 0x4EB0 JUMPI PUSH2 0x4EAF PUSH2 0x400D JUMP JUMPDEST JUMPDEST PUSH0 DUP3 ADD MLOAD PUSH8 0xFFFFFFFFFFFFFFFF DUP2 GT ISZERO PUSH2 0x4ECD JUMPI PUSH2 0x4ECC PUSH2 0x4011 JUMP JUMPDEST JUMPDEST PUSH2 0x4ED9 DUP5 DUP3 DUP6 ADD PUSH2 0x4E6E JUMP JUMPDEST SWAP2 POP POP SWAP3 SWAP2 POP POP JUMP JUMPDEST PUSH0 PUSH1 0x60 DUP3 ADD SWAP1 POP PUSH2 0x4EF5 PUSH0 DUP4 ADD DUP7 PUSH2 0x3FAB JUMP JUMPDEST PUSH2 0x4F02 PUSH1 0x20 DUP4 ADD DUP6 PUSH2 0x3FAB JUMP JUMPDEST PUSH2 0x4F0F PUSH1 0x40 DUP4 ADD DUP5 PUSH2 0x3FDC JUMP JUMPDEST SWAP5 SWAP4 POP POP POP POP JUMP JUMPDEST PUSH0 PUSH1 0x40 DUP3 ADD SWAP1 POP PUSH2 0x4F2A PUSH0 DUP4 ADD DUP6 PUSH2 0x3FAB JUMP JUMPDEST PUSH2 0x4F37 PUSH1 0x20 DUP4 ADD DUP5 PUSH2 0x3FDC JUMP JUMPDEST SWAP4 SWAP3 POP POP POP JUMP JUMPDEST PUSH0 DUP2 SWAP1 POP SWAP3 SWAP2 POP POP JUMP JUMPDEST PUSH0 PUSH2 0x4F52 DUP3 PUSH2 0x45FA JUMP JUMPDEST PUSH2 0x4F5C DUP2 DUP6 PUSH2 0x4F3E JUMP JUMPDEST SWAP4 POP PUSH2 0x4F6C DUP2 DUP6 PUSH1 0x20 DUP7 ADD PUSH2 0x4614 JUMP JUMPDEST DUP1 DUP5 ADD SWAP2 POP POP SWAP3 SWAP2 POP POP JUMP JUMPDEST PUSH32 0x3A20000000000000000000000000000000000000000000000000000000000000 DUP2 MSTORE POP JUMP JUMPDEST PUSH32 0x2023000000000000000000000000000000000000000000000000000000000000 DUP2 MSTORE POP JUMP JUMPDEST PUSH0 PUSH2 0x4FCF DUP3 DUP7 PUSH2 0x4F48 JUMP JUMPDEST SWAP2 POP PUSH2 0x4FDA DUP3 PUSH2 0x4F78 JUMP JUMPDEST PUSH1 0x2 DUP3 ADD SWAP2 POP PUSH2 0x4FEA DUP3 DUP6 PUSH2 0x4F48 JUMP JUMPDEST SWAP2 POP PUSH2 0x4FF5 DUP3 PUSH2 0x4F9E JUMP JUMPDEST PUSH1 0x2 DUP3 ADD SWAP2 POP PUSH2 0x5005 DUP3 DUP5 PUSH2 0x4F48 JUMP JUMPDEST SWAP2 POP DUP2 SWAP1 POP SWAP5 SWAP4 POP POP POP POP JUMP JUMPDEST PUSH0 PUSH8 0xFFFFFFFFFFFFFFFF DUP3 GT ISZERO PUSH2 0x502C JUMPI PUSH2 0x502B PUSH2 0x41E0 JUMP JUMPDEST JUMPDEST PUSH2 0x5035 DUP3 PUSH2 0x41D0 JUMP JUMPDEST SWAP1 POP PUSH1 0x20 DUP2 ADD SWAP1 POP SWAP2 SWAP1 POP JUMP JUMPDEST PUSH0 PUSH2 0x5054 PUSH2 0x504F DUP5 PUSH2 0x5012 JUMP JUMPDEST PUSH2 0x423E JUMP JUMPDEST SWAP1 POP DUP3 DUP2 MSTORE PUSH1 0x20 DUP2 ADD DUP5 DUP5 DUP5 ADD GT ISZERO PUSH2 0x5070 JUMPI PUSH2 0x506F PUSH2 0x41CC JUMP JUMPDEST JUMPDEST PUSH2 0x507B DUP5 DUP3 DUP6 PUSH2 0x4614 JUMP JUMPDEST POP SWAP4 SWAP3 POP POP POP JUMP JUMPDEST PUSH0 DUP3 PUSH1 0x1F DUP4 ADD SLT PUSH2 0x5097 JUMPI PUSH2 0x5096 PUSH2 0x410E JUMP JUMPDEST JUMPDEST DUP2 MLOAD PUSH2 0x50A7 DUP5 DUP3 PUSH1 0x20 DUP7 ADD PUSH2 0x5042 JUMP JUMPDEST SWAP2 POP POP SWAP3 SWAP2 POP POP JUMP JUMPDEST PUSH0 PUSH1 0x20 DUP3 DUP5 SUB SLT ISZERO PUSH2 0x50C5 JUMPI PUSH2 0x50C4 PUSH2 0x400D JUMP JUMPDEST JUMPDEST PUSH0 DUP3 ADD MLOAD PUSH8 0xFFFFFFFFFFFFFFFF DUP2 GT ISZERO PUSH2 0x50E2 JUMPI PUSH2 0x50E1 PUSH2 0x4011 JUMP JUMPDEST JUMPDEST PUSH2 0x50EE DUP5 DUP3 DUP6 ADD PUSH2 0x5083 JUMP JUMPDEST SWAP2 POP POP SWAP3 SWAP2 POP POP JUMP JUMPDEST PUSH0 PUSH2 0x5101 DUP3 PUSH2 0x4D1D JUMP JUMPDEST PUSH2 0x510B DUP2 DUP6 PUSH2 0x4A74 JUMP JUMPDEST SWAP4 POP PUSH2 0x511B DUP2 DUP6 PUSH1 0x20 DUP7 ADD PUSH2 0x4614 JUMP JUMPDEST PUSH2 0x5124 DUP2 PUSH2 0x41D0 JUMP JUMPDEST DUP5 ADD SWAP2 POP POP SWAP3 SWAP2 POP POP JUMP JUMPDEST PUSH0 PUSH1 0x40 DUP3 ADD SWAP1 POP PUSH2 0x5142 PUSH0 DUP4 ADD DUP6 PUSH2 0x4073 JUMP JUMPDEST DUP2 DUP2 SUB PUSH1 0x20 DUP4 ADD MSTORE PUSH2 0x5154 DUP2 DUP5 PUSH2 0x50F7 JUMP JUMPDEST SWAP1 POP SWAP4 SWAP3 POP POP POP JUMP JUMPDEST PUSH32 0x4E487B7100000000000000000000000000000000000000000000000000000000 PUSH0 MSTORE PUSH1 0x31 PUSH1 0x4 MSTORE PUSH1 0x24 PUSH0 REVERT JUMPDEST PUSH32 0x4E487B7100000000000000000000000000000000000000000000000000000000 PUSH0 MSTORE PUSH1 0x12 PUSH1 0x4 MSTORE PUSH1 0x24 PUSH0 REVERT JUMPDEST PUSH0 PUSH2 0x51C1 DUP3 PUSH2 0x3FD3 JUMP JUMPDEST SWAP2 POP PUSH2 0x51CC DUP4 PUSH2 0x3FD3 JUMP JUMPDEST SWAP3 POP DUP3 DUP3 MUL PUSH2 0x51DA DUP2 PUSH2 0x3FD3 JUMP JUMPDEST SWAP2 POP DUP3 DUP3 DIV DUP5 EQ DUP4 ISZERO OR PUSH2 0x51F1 JUMPI PUSH2 0x51F0 PUSH2 0x492B JUMP JUMPDEST JUMPDEST POP SWAP3 SWAP2 POP POP JUMP JUMPDEST PUSH0 PUSH2 0x5202 DUP3 PUSH2 0x3FD3 JUMP JUMPDEST SWAP2 POP PUSH0 DUP3 SUB PUSH2 0x5214 JUMPI PUSH2 0x5213 PUSH2 0x492B JUMP JUMPDEST JUMPDEST PUSH1 0x1 DUP3 SUB SWAP1 POP SWAP2 SWAP1 POP JUMP JUMPDEST PUSH0 PUSH1 0x40 DUP3 ADD SWAP1 POP PUSH2 0x5232 PUSH0 DUP4 ADD DUP6 PUSH2 0x3FDC JUMP JUMPDEST PUSH2 0x523F PUSH1 0x20 DUP4 ADD DUP5 PUSH2 0x3FDC JUMP JUMPDEST SWAP4 SWAP3 POP POP POP JUMP INVALID LOG2 PUSH5 0x6970667358 0x22 SLT KECCAK256 CALLDATACOPY MSTORE DUP13 PC CALL 0x4E SHL TLOAD 0xC7 PUSH28 0xD7907437B0A9F5C41CF473B1804BD7D708CDE5E5568964736F6C6343 STOP ADDMOD BYTE STOP CALLER "
		},
		"gasEstimates": {
			"creation": {
				"codeDepositCost": "4223200",
				"executionCost": "infinite",
				"totalCost": "infinite"
			},
			"external": {
				"ERC6551_PUBLIC_REGISTRY()": "infinite",
				"GROUPING_MODULE()": "infinite",
				"IP_ACCOUNT_IMPL()": "infinite",
				"IP_ACCOUNT_SALT()": "infinite",
				"UPGRADE_INTERFACE_VERSION()": "infinite",
				"__ProtocolPausable_init(address)": "infinite",
				"addGroupMember(address,address[])": "infinite",
				"authority()": "2656",
				"containsIp(address,address)": "infinite",
				"getFeeAmount()": "2631",
				"getFeeToken()": "2621",
				"getGroupMembers(address,uint256,uint256)": "infinite",
				"getGroupRewardPool(address)": "infinite",
				"getIPAccountImpl()": "infinite",
				"getTreasury()": "2645",
				"initialize(address)": "infinite",
				"ipAccount(uint256,address,uint256)": "infinite",
				"ipId(uint256,address,uint256)": "infinite",
				"isConsumingScheduledOp()": "2654",
				"isRegistered(address)": "infinite",
				"isRegisteredGroup(address)": "infinite",
				"isWhitelistedGroupRewardPool(address)": "3020",
				"pause()": "infinite",
				"paused()": "2626",
				"proxiableUUID()": "infinite",
				"register(uint256,address,uint256)": "infinite",
				"registerGroup(address,uint256,address,address)": "infinite",
				"removeGroupMember(address,address[])": "infinite",
				"setAuthority(address)": "infinite",
				"setRegistrationFee(address,address,uint96)": "infinite",
				"totalMembers(address)": "3059",
				"totalSupply()": "2540",
				"unpause()": "infinite",
				"upgradeToAndCall(address,bytes)": "infinite",
				"whitelistGroupRewardPool(address,bool)": "infinite"
			},
			"internal": {
				"_authorizeUpgrade(address)": "infinite",
				"_getIPAssetRegistryStorage()": "22",
				"_getNameAndUri(uint256,address,uint256)": "infinite",
				"_isRegistered(address)": "infinite",
				"_register(uint256,address,uint256,address)": "infinite"
			}
		},
		"methodIdentifiers": {
			"ERC6551_PUBLIC_REGISTRY()": "0c3c7264",
			"GROUPING_MODULE()": "5ee5e32a",
			"IP_ACCOUNT_IMPL()": "5796ffbc",
			"IP_ACCOUNT_SALT()": "1a8bb07b",
			"UPGRADE_INTERFACE_VERSION()": "ad3cb1cc",
			"__ProtocolPausable_init(address)": "198fdd98",
			"addGroupMember(address,address[])": "4094f4ed",
			"authority()": "bf7e214f",
			"containsIp(address,address)": "7d294b40",
			"getFeeAmount()": "bf5c9822",
			"getFeeToken()": "ca709a25",
			"getGroupMembers(address,uint256,uint256)": "be68d9d7",
			"getGroupRewardPool(address)": "30d63280",
			"getIPAccountImpl()": "95a3dfb2",
			"getTreasury()": "3b19e84a",
			"initialize(address)": "c4d66de8",
			"ipAccount(uint256,address,uint256)": "87020f95",
			"ipId(uint256,address,uint256)": "d26bb83f",
			"isConsumingScheduledOp()": "8fb36037",
			"isRegistered(address)": "c3c5a547",
			"isRegisteredGroup(address)": "51eee276",
			"isWhitelistedGroupRewardPool(address)": "fa2372f6",
			"pause()": "8456cb59",
			"paused()": "5c975abb",
			"proxiableUUID()": "52d1902d",
			"register(uint256,address,uint256)": "fca247ac",
			"registerGroup(address,uint256,address,address)": "63ace9ad",
			"removeGroupMember(address,address[])": "81fdafa0",
			"setAuthority(address)": "7a9e5e4b",
			"setRegistrationFee(address,address,uint96)": "a72a6fa9",
			"totalMembers(address)": "a32a054e",
			"totalSupply()": "18160ddd",
			"unpause()": "3f4ba83a",
			"upgradeToAndCall(address,bytes)": "4f1ef286",
			"whitelistGroupRewardPool(address,bool)": "20ef8372"
		}
	},
	"abi": [
		{
			"inputs": [
				{
					"internalType": "address",
					"name": "erc6551Registry",
					"type": "address"
				},
				{
					"internalType": "address",
					"name": "ipAccountImpl",
					"type": "address"
				},
				{
					"internalType": "address",
					"name": "groupingModule",
					"type": "address"
				}
			],
			"stateMutability": "nonpayable",
			"type": "constructor"
		},
		{
			"inputs": [
				{
					"internalType": "address",
					"name": "authority",
					"type": "address"
				}
			],
			"name": "AccessManagedInvalidAuthority",
			"type": "error"
		},
		{
			"inputs": [
				{
					"internalType": "address",
					"name": "caller",
					"type": "address"
				},
				{
					"internalType": "uint32",
					"name": "delay",
					"type": "uint32"
				}
			],
			"name": "AccessManagedRequiredDelay",
			"type": "error"
		},
		{
			"inputs": [
				{
					"internalType": "address",
					"name": "caller",
					"type": "address"
				}
			],
			"name": "AccessManagedUnauthorized",
			"type": "error"
		},
		{
			"inputs": [
				{
					"internalType": "address",
					"name": "target",
					"type": "address"
				}
			],
			"name": "AddressEmptyCode",
			"type": "error"
		},
		{
			"inputs": [
				{
					"internalType": "address",
					"name": "account",
					"type": "address"
				}
			],
			"name": "AddressInsufficientBalance",
			"type": "error"
		},
		{
			"inputs": [
				{
					"internalType": "address",
					"name": "implementation",
					"type": "address"
				}
			],
			"name": "ERC1967InvalidImplementation",
			"type": "error"
		},
		{
			"inputs": [],
			"name": "ERC1967NonPayable",
			"type": "error"
		},
		{
			"inputs": [],
			"name": "EnforcedPause",
			"type": "error"
		},
		{
			"inputs": [],
			"name": "ExpectedPause",
			"type": "error"
		},
		{
			"inputs": [],
			"name": "FailedInnerCall",
			"type": "error"
		},
		{
			"inputs": [
				{
					"internalType": "address",
					"name": "caller",
					"type": "address"
				}
			],
			"name": "GroupIPAssetRegistry__CallerIsNotGroupingModule",
			"type": "error"
		},
		{
			"inputs": [
				{
					"internalType": "address",
					"name": "groupPool",
					"type": "address"
				}
			],
			"name": "GroupIPAssetRegistry__GroupRewardPoolNotRegistered",
			"type": "error"
		},
		{
			"inputs": [
				{
					"internalType": "address",
					"name": "rewardPool",
					"type": "address"
				}
			],
			"name": "GroupIPAssetRegistry__InvalidGroupRewardPool",
			"type": "error"
		},
		{
			"inputs": [
				{
					"internalType": "address",
					"name": "groupId",
					"type": "address"
				}
			],
			"name": "GroupIPAssetRegistry__NotRegisteredGroupIP",
			"type": "error"
		},
		{
			"inputs": [
				{
					"internalType": "address",
					"name": "ipId",
					"type": "address"
				}
			],
			"name": "GroupIPAssetRegistry__NotRegisteredIP",
			"type": "error"
		},
		{
			"inputs": [],
			"name": "IPAccountRegistry_ZeroERC6551Registry",
			"type": "error"
		},
		{
			"inputs": [],
			"name": "IPAccountRegistry_ZeroIpAccountImpl",
			"type": "error"
		},
		{
			"inputs": [
				{
					"internalType": "address",
					"name": "contractAddress",
					"type": "address"
				},
				{
					"internalType": "uint256",
					"name": "tokenId",
					"type": "uint256"
				}
			],
			"name": "IPAssetRegistry__InvalidToken",
			"type": "error"
		},
		{
			"inputs": [
				{
					"internalType": "address",
					"name": "contractAddress",
					"type": "address"
				}
			],
			"name": "IPAssetRegistry__UnsupportedIERC721",
			"type": "error"
		},
		{
			"inputs": [
				{
					"internalType": "address",
					"name": "contractAddress",
					"type": "address"
				}
			],
			"name": "IPAssetRegistry__UnsupportedIERC721Metadata",
			"type": "error"
		},
		{
			"inputs": [],
			"name": "IPAssetRegistry__ZeroAccessManager",
			"type": "error"
		},
		{
			"inputs": [
				{
					"internalType": "string",
					"name": "name",
					"type": "string"
				}
			],
			"name": "IPAssetRegistry__ZeroAddress",
			"type": "error"
		},
		{
			"inputs": [],
			"name": "InvalidInitialization",
			"type": "error"
		},
		{
			"inputs": [],
			"name": "NotInitializing",
			"type": "error"
		},
		{
			"inputs": [
				{
					"internalType": "address",
					"name": "token",
					"type": "address"
				}
			],
			"name": "SafeERC20FailedOperation",
			"type": "error"
		},
		{
			"inputs": [
				{
					"internalType": "uint256",
					"name": "value",
					"type": "uint256"
				},
				{
					"internalType": "uint256",
					"name": "length",
					"type": "uint256"
				}
			],
			"name": "StringsInsufficientHexLength",
			"type": "error"
		},
		{
			"inputs": [],
			"name": "UUPSUnauthorizedCallContext",
			"type": "error"
		},
		{
			"inputs": [
				{
					"internalType": "bytes32",
					"name": "slot",
					"type": "bytes32"
				}
			],
			"name": "UUPSUnsupportedProxiableUUID",
			"type": "error"
		},
		{
			"anonymous": false,
			"inputs": [
				{
					"indexed": false,
					"internalType": "address",
					"name": "authority",
					"type": "address"
				}
			],
			"name": "AuthorityUpdated",
			"type": "event"
		},
		{
			"anonymous": false,
			"inputs": [
				{
					"indexed": true,
					"internalType": "address",
					"name": "account",
					"type": "address"
				},
				{
					"indexed": true,
					"internalType": "address",
					"name": "implementation",
					"type": "address"
				},
				{
					"indexed": true,
					"internalType": "uint256",
					"name": "chainId",
					"type": "uint256"
				},
				{
					"indexed": false,
					"internalType": "address",
					"name": "tokenContract",
					"type": "address"
				},
				{
					"indexed": false,
					"internalType": "uint256",
					"name": "tokenId",
					"type": "uint256"
				}
			],
			"name": "IPAccountRegistered",
			"type": "event"
		},
		{
			"anonymous": false,
			"inputs": [
				{
					"indexed": false,
					"internalType": "address",
					"name": "ipId",
					"type": "address"
				},
				{
					"indexed": true,
					"internalType": "uint256",
					"name": "chainId",
					"type": "uint256"
				},
				{
					"indexed": true,
					"internalType": "address",
					"name": "tokenContract",
					"type": "address"
				},
				{
					"indexed": true,
					"internalType": "uint256",
					"name": "tokenId",
					"type": "uint256"
				},
				{
					"indexed": false,
					"internalType": "string",
					"name": "name",
					"type": "string"
				},
				{
					"indexed": false,
					"internalType": "string",
					"name": "uri",
					"type": "string"
				},
				{
					"indexed": false,
					"internalType": "uint256",
					"name": "registrationDate",
					"type": "uint256"
				}
			],
			"name": "IPRegistered",
			"type": "event"
		},
		{
			"anonymous": false,
			"inputs": [
				{
					"indexed": true,
					"internalType": "address",
					"name": "payer",
					"type": "address"
				},
				{
					"indexed": true,
					"internalType": "address",
					"name": "treasury",
					"type": "address"
				},
				{
					"indexed": true,
					"internalType": "address",
					"name": "feeToken",
					"type": "address"
				},
				{
					"indexed": false,
					"internalType": "uint96",
					"name": "amount",
					"type": "uint96"
				}
			],
			"name": "IPRegistrationFeePaid",
			"type": "event"
		},
		{
			"anonymous": false,
			"inputs": [
				{
					"indexed": false,
					"internalType": "uint64",
					"name": "version",
					"type": "uint64"
				}
			],
			"name": "Initialized",
			"type": "event"
		},
		{
			"anonymous": false,
			"inputs": [
				{
					"indexed": false,
					"internalType": "address",
					"name": "account",
					"type": "address"
				}
			],
			"name": "Paused",
			"type": "event"
		},
		{
			"anonymous": false,
			"inputs": [
				{
					"indexed": true,
					"internalType": "address",
					"name": "treasury",
					"type": "address"
				},
				{
					"indexed": true,
					"internalType": "address",
					"name": "feeToken",
					"type": "address"
				},
				{
					"indexed": false,
					"internalType": "uint96",
					"name": "feeAmount",
					"type": "uint96"
				}
			],
			"name": "RegistrationFeeSet",
			"type": "event"
		},
		{
			"anonymous": false,
			"inputs": [
				{
					"indexed": false,
					"internalType": "address",
					"name": "account",
					"type": "address"
				}
			],
			"name": "Unpaused",
			"type": "event"
		},
		{
			"anonymous": false,
			"inputs": [
				{
					"indexed": true,
					"internalType": "address",
					"name": "implementation",
					"type": "address"
				}
			],
			"name": "Upgraded",
			"type": "event"
		},
		{
			"inputs": [],
			"name": "ERC6551_PUBLIC_REGISTRY",
			"outputs": [
				{
					"internalType": "address",
					"name": "",
					"type": "address"
				}
			],
			"stateMutability": "view",
			"type": "function"
		},
		{
			"inputs": [],
			"name": "GROUPING_MODULE",
			"outputs": [
				{
					"internalType": "contract IGroupingModule",
					"name": "",
					"type": "address"
				}
			],
			"stateMutability": "view",
			"type": "function"
		},
		{
			"inputs": [],
			"name": "IP_ACCOUNT_IMPL",
			"outputs": [
				{
					"internalType": "address",
					"name": "",
					"type": "address"
				}
			],
			"stateMutability": "view",
			"type": "function"
		},
		{
			"inputs": [],
			"name": "IP_ACCOUNT_SALT",
			"outputs": [
				{
					"internalType": "bytes32",
					"name": "",
					"type": "bytes32"
				}
			],
			"stateMutability": "view",
			"type": "function"
		},
		{
			"inputs": [],
			"name": "UPGRADE_INTERFACE_VERSION",
			"outputs": [
				{
					"internalType": "string",
					"name": "",
					"type": "string"
				}
			],
			"stateMutability": "view",
			"type": "function"
		},
		{
			"inputs": [
				{
					"internalType": "address",
					"name": "accessManager",
					"type": "address"
				}
			],
			"name": "__ProtocolPausable_init",
			"outputs": [],
			"stateMutability": "nonpayable",
			"type": "function"
		},
		{
			"inputs": [
				{
					"internalType": "address",
					"name": "groupId",
					"type": "address"
				},
				{
					"internalType": "address[]",
					"name": "ipIds",
					"type": "address[]"
				}
			],
			"name": "addGroupMember",
			"outputs": [],
			"stateMutability": "nonpayable",
			"type": "function"
		},
		{
			"inputs": [],
			"name": "authority",
			"outputs": [
				{
					"internalType": "address",
					"name": "",
					"type": "address"
				}
			],
			"stateMutability": "view",
			"type": "function"
		},
		{
			"inputs": [
				{
					"internalType": "address",
					"name": "groupId",
					"type": "address"
				},
				{
					"internalType": "address",
					"name": "ipId",
					"type": "address"
				}
			],
			"name": "containsIp",
			"outputs": [
				{
					"internalType": "bool",
					"name": "",
					"type": "bool"
				}
			],
			"stateMutability": "view",
			"type": "function"
		},
		{
			"inputs": [],
			"name": "getFeeAmount",
			"outputs": [
				{
					"internalType": "uint96",
					"name": "",
					"type": "uint96"
				}
			],
			"stateMutability": "view",
			"type": "function"
		},
		{
			"inputs": [],
			"name": "getFeeToken",
			"outputs": [
				{
					"internalType": "address",
					"name": "",
					"type": "address"
				}
			],
			"stateMutability": "view",
			"type": "function"
		},
		{
			"inputs": [
				{
					"internalType": "address",
					"name": "groupId",
					"type": "address"
				},
				{
					"internalType": "uint256",
					"name": "startIndex",
					"type": "uint256"
				},
				{
					"internalType": "uint256",
					"name": "size",
					"type": "uint256"
				}
			],
			"name": "getGroupMembers",
			"outputs": [
				{
					"internalType": "address[]",
					"name": "results",
					"type": "address[]"
				}
			],
			"stateMutability": "view",
			"type": "function"
		},
		{
			"inputs": [
				{
					"internalType": "address",
					"name": "groupId",
					"type": "address"
				}
			],
			"name": "getGroupRewardPool",
			"outputs": [
				{
					"internalType": "address",
					"name": "",
					"type": "address"
				}
			],
			"stateMutability": "view",
			"type": "function"
		},
		{
			"inputs": [],
			"name": "getIPAccountImpl",
			"outputs": [
				{
					"internalType": "address",
					"name": "",
					"type": "address"
				}
			],
			"stateMutability": "view",
			"type": "function"
		},
		{
			"inputs": [],
			"name": "getTreasury",
			"outputs": [
				{
					"internalType": "address",
					"name": "",
					"type": "address"
				}
			],
			"stateMutability": "view",
			"type": "function"
		},
		{
			"inputs": [
				{
					"internalType": "address",
					"name": "accessManager",
					"type": "address"
				}
			],
			"name": "initialize",
			"outputs": [],
			"stateMutability": "nonpayable",
			"type": "function"
		},
		{
			"inputs": [
				{
					"internalType": "uint256",
					"name": "chainId",
					"type": "uint256"
				},
				{
					"internalType": "address",
					"name": "tokenContract",
					"type": "address"
				},
				{
					"internalType": "uint256",
					"name": "tokenId",
					"type": "uint256"
				}
			],
			"name": "ipAccount",
			"outputs": [
				{
					"internalType": "address",
					"name": "",
					"type": "address"
				}
			],
			"stateMutability": "view",
			"type": "function"
		},
		{
			"inputs": [
				{
					"internalType": "uint256",
					"name": "chainId",
					"type": "uint256"
				},
				{
					"internalType": "address",
					"name": "tokenContract",
					"type": "address"
				},
				{
					"internalType": "uint256",
					"name": "tokenId",
					"type": "uint256"
				}
			],
			"name": "ipId",
			"outputs": [
				{
					"internalType": "address",
					"name": "",
					"type": "address"
				}
			],
			"stateMutability": "view",
			"type": "function"
		},
		{
			"inputs": [],
			"name": "isConsumingScheduledOp",
			"outputs": [
				{
					"internalType": "bytes4",
					"name": "",
					"type": "bytes4"
				}
			],
			"stateMutability": "view",
			"type": "function"
		},
		{
			"inputs": [
				{
					"internalType": "address",
					"name": "id",
					"type": "address"
				}
			],
			"name": "isRegistered",
			"outputs": [
				{
					"internalType": "bool",
					"name": "",
					"type": "bool"
				}
			],
			"stateMutability": "view",
			"type": "function"
		},
		{
			"inputs": [
				{
					"internalType": "address",
					"name": "groupId",
					"type": "address"
				}
			],
			"name": "isRegisteredGroup",
			"outputs": [
				{
					"internalType": "bool",
					"name": "",
					"type": "bool"
				}
			],
			"stateMutability": "view",
			"type": "function"
		},
		{
			"inputs": [
				{
					"internalType": "address",
					"name": "rewardPool",
					"type": "address"
				}
			],
			"name": "isWhitelistedGroupRewardPool",
			"outputs": [
				{
					"internalType": "bool",
					"name": "isWhitelisted",
					"type": "bool"
				}
			],
			"stateMutability": "view",
			"type": "function"
		},
		{
			"inputs": [],
			"name": "pause",
			"outputs": [],
			"stateMutability": "nonpayable",
			"type": "function"
		},
		{
			"inputs": [],
			"name": "paused",
			"outputs": [
				{
					"internalType": "bool",
					"name": "",
					"type": "bool"
				}
			],
			"stateMutability": "view",
			"type": "function"
		},
		{
			"inputs": [],
			"name": "proxiableUUID",
			"outputs": [
				{
					"internalType": "bytes32",
					"name": "",
					"type": "bytes32"
				}
			],
			"stateMutability": "view",
			"type": "function"
		},
		{
			"inputs": [
				{
					"internalType": "uint256",
					"name": "chainid",
					"type": "uint256"
				},
				{
					"internalType": "address",
					"name": "tokenContract",
					"type": "address"
				},
				{
					"internalType": "uint256",
					"name": "tokenId",
					"type": "uint256"
				}
			],
			"name": "register",
			"outputs": [
				{
					"internalType": "address",
					"name": "id",
					"type": "address"
				}
			],
			"stateMutability": "nonpayable",
			"type": "function"
		},
		{
			"inputs": [
				{
					"internalType": "address",
					"name": "groupNft",
					"type": "address"
				},
				{
					"internalType": "uint256",
					"name": "groupNftId",
					"type": "uint256"
				},
				{
					"internalType": "address",
					"name": "rewardPool",
					"type": "address"
				},
				{
					"internalType": "address",
					"name": "registerFeePayer",
					"type": "address"
				}
			],
			"name": "registerGroup",
			"outputs": [
				{
					"internalType": "address",
					"name": "groupId",
					"type": "address"
				}
			],
			"stateMutability": "nonpayable",
			"type": "function"
		},
		{
			"inputs": [
				{
					"internalType": "address",
					"name": "groupId",
					"type": "address"
				},
				{
					"internalType": "address[]",
					"name": "ipIds",
					"type": "address[]"
				}
			],
			"name": "removeGroupMember",
			"outputs": [],
			"stateMutability": "nonpayable",
			"type": "function"
		},
		{
			"inputs": [
				{
					"internalType": "address",
					"name": "newAuthority",
					"type": "address"
				}
			],
			"name": "setAuthority",
			"outputs": [],
			"stateMutability": "nonpayable",
			"type": "function"
		},
		{
			"inputs": [
				{
					"internalType": "address",
					"name": "treasury",
					"type": "address"
				},
				{
					"internalType": "address",
					"name": "feeToken",
					"type": "address"
				},
				{
					"internalType": "uint96",
					"name": "feeAmount",
					"type": "uint96"
				}
			],
			"name": "setRegistrationFee",
			"outputs": [],
			"stateMutability": "nonpayable",
			"type": "function"
		},
		{
			"inputs": [
				{
					"internalType": "address",
					"name": "groupId",
					"type": "address"
				}
			],
			"name": "totalMembers",
			"outputs": [
				{
					"internalType": "uint256",
					"name": "",
					"type": "uint256"
				}
			],
			"stateMutability": "view",
			"type": "function"
		},
		{
			"inputs": [],
			"name": "totalSupply",
			"outputs": [
				{
					"internalType": "uint256",
					"name": "",
					"type": "uint256"
				}
			],
			"stateMutability": "view",
			"type": "function"
		},
		{
			"inputs": [],
			"name": "unpause",
			"outputs": [],
			"stateMutability": "nonpayable",
			"type": "function"
		},
		{
			"inputs": [
				{
					"internalType": "address",
					"name": "newImplementation",
					"type": "address"
				},
				{
					"internalType": "bytes",
					"name": "data",
					"type": "bytes"
				}
			],
			"name": "upgradeToAndCall",
			"outputs": [],
			"stateMutability": "payable",
			"type": "function"
		},
		{
			"inputs": [
				{
					"internalType": "address",
					"name": "rewardPool",
					"type": "address"
				},
				{
					"internalType": "bool",
					"name": "allowed",
					"type": "bool"
				}
			],
			"name": "whitelistGroupRewardPool",
			"outputs": [],
			"stateMutability": "nonpayable",
			"type": "function"
		}
	]
}